:020000040800F2
:10000000C8430020450300081F4A00083B3600088B
:100010001D4A0008CD070008A9760008000000006E
:100020000000000000000000000000008502000841
:100030006509000800000000E102000861500008A6
:100040005F0300085F0300085F0300085F03000808
:100050005F0300085F0300085F0300085F030008F8
:100060005F0300085F0300085F030008B50800088D
:100070005F0300085F0300085F0300085F030008D8
:100080005F0300085F0300085F0300085F030008C8
:100090005F0300085F0300085F0300085F030008B8
:1000A0005F0300085F0300085F0300085F030008A8
:1000B0005F0300085F0300085F0300085F03000898
:1000C0005F0300085F0300085F0300085F03000888
:1000D0005F0300085F0300085F0300085F03000878
:1000E0005F0300085F0300085F0300085F03000868
:1000F0005F0300082D5100085F0300085F0300083C
:100100005F0300085F030008215100085F03000837
:100110005F0300082D5400085F0300085F03000818
:100120005F0300085F0300085F0300085F03000827
:100130005F0300085F0300085F0300085F03000817
:100140005F0300085F0300085F030008654A0008BA
:100150005F0300085F0300085F0300085F030008F7
:100160005F0300085F0300085F0300085F030008E7
:100170005F0300085F0300085F0300080000000041
:100180005F0300085F03000800F002F800F06AF85F
:100190000AA090E8000C82448344AAF10107DA45E2
:1001A00001D100F05FF8AFF2090EBAE80F0013F0CA
:1001B000010F18BFFB1A43F0010318474CCE000093
:1001C0009CCE00000A444FF0000C10F8013B13F0E5
:1001D000070408BF10F8014B1D1108BF10F8015BA0
:1001E000641E05D010F8016B641E01F8016BF9D193
:1001F00013F0080F1EBF10F8014BAD1C0C1B09D1EA
:100200006D1E58BF01F801CBFAD505E014F8016B5B
:1002100001F8016B6D1EF9D59142D6D370470000ED
:10022000103A24BF78C878C1FAD8520724BF30C822
:1002300030C144BF04680C607047000000230024F4
:1002400000250026103A28BF78C1FBD8520728BFE6
:1002500030C148BF0B6070471FB50CF07EF91FBD61
:1002600010B510BD00F0E5F91146FFF7F5FF09F0F4
:10027000A6F800F003FA03B4FFF7F2FF03BC00F0A6
:1002800007FA00002C4B19680868B0E8F04F80F3BB
:100290000988BFF36F8F4FF0000080F3118870471B
:1002A0000000000008480068006880F308884FF0EC
:1002B000000080F3148862B661B6BFF34F8FBFF3BE
:1002C0006F8F00DF00BF00BF08ED00E0DFF80C001B
:1002D000016841F470010160704700BF88ED00E0E3
:1002E000EFF30980BFF36F8F134B1A681EF0100FE6
:1002F00008BF20ED108A20E9F04F106009B44FF0DC
:10030000500080F31188BFF34F8FBFF36F8F0AF057
:10031000FDFF4FF0000080F3118809BC19680868E0
:10032000B0E8F04F1EF0100F08BFB0EC108A80F359
:100330000988BFF36F8F704700000010EFF305804E
:10034000704700000948804709480047FEE7FEE77C
:10035000FEE7FEE7FEE7FEE7FEE7FEE7FEE7FEE775
:1003600004480549054A064B704700001151000832
:1003700089010008C83D0020C8430020C83F002074
:10038000C83F002053EA020C00F069802DE9F04BD1
:100390004FF00006002B1FBFB3FA83F503FA05F4F4
:1003A00024FA05F65E4012BF1643B2FA82F502FA4D
:1003B00005F4C5F120051EBF22FA05FC44EA0C0431
:1003C000203556EA044C4FEA144418BF641C4FF021
:1003D00000084FF00009904271EB030C39D300295B
:1003E00019BFB1FA81F701FA07F6B0FA80F700FAFF
:1003F00007F6C7F120071EBF20FA07FC46EA0C06E5
:100400002037B6FBF4FCA7EB0507103F07F01F0BE6
:10041000CBF120060CFA0BFB2CFA06F644BFB346D0
:100420000026202FA4BF5E464FF0000B5BEA060CAF
:1004300008BF4FF0010B19EB0B09ABFB027C48EB3B
:100440000608C01B06FB02CC0BFB03CC71EB0C01B6
:10045000C1E70B46024641464846BDE8F08B13B55E
:100460004FF000004FF00001AFF30080BDE81C40EA
:100470007047032A40F2308010F0030C00F0158022
:1004800011F8013BBCF1020F624498BF11F801CB97
:1004900000F8013B38BF11F8013BA2F1040298BFFC
:1004A00000F801CB38BF00F8013B11F0030300F066
:1004B0002580083AC0F0088051F8043B083A51F80A
:1004C00004CBA0E80810F5E7121D5CBF51F8043B0F
:1004D00040F8043BAFF30080D20724BF11F8013B82
:1004E00011F801CB48BF11F8012B24BF00F8013BE4
:1004F00000F801CB48BF00F8012B704710B5203A37
:10050000C0F00B80B1E81850203AA0E81850B1E8CC
:100510001850A0E81850BFF4F5AF5FEA027C24BF82
:10052000B1E81850A0E8185044BF18C918C0BDE879
:1005300010405FEA827C24BF51F8043B40F8043B42
:1005400008BF7047D20728BF31F8023B48BF11F8F7
:10055000012B28BF20F8023B48BF00F8012B704751
:1005600002F0FF0343EA032242EA024200F002B82B
:100570004FF000020429C0F0128010F0030C00F0CC
:100580001B80CCF1040CBCF1020F18BF00F8012B4A
:10059000A8BF20F8022BA1EB0C0100F00DB85FEA18
:1005A000C17C24BF00F8012B00F8012B48BF00F8E4
:1005B000012B70474FF0000200B513469446964653
:1005C000203922BFA0E80C50A0E80C50B1F1200166
:1005D000BFF4F7AF090728BFA0E80C5048BF0CC014
:1005E0005DF804EB890028BF40F8042B08BF704772
:1005F00048BF20F8022B11F0804F18BF00F8012BE4
:10060000704770477047704710B500F00DF80068EC
:1006100010BD10B5044600F007F8046010BD0000DE
:1006200000487047683D002000487047683D002042
:1006300070477546FFF7F4FFAE460500694653461E
:1006400020F00700854618B020B5FFF789FEBDE809
:1006500020404FF000064FF000074FF000084FF029
:10066000000B21F00701AC46ACE8C009ACE8C009BA
:10067000ACE8C009ACE8C0098D46704710B5044627
:10068000AFF300802046BDE81040FFF7F4BD000046
:1006900001491820ABBEFEE7260002004A494A681D
:1006A00022F440324A604A6843681A434A6001684B
:1006B0004A6822F480724A6001684A68036942EA23
:1006C00003224A6001684A6822F040724A60016869
:1006D0004A6883681A434A6001688A6822F40062A3
:1006E0008A6001688A68C3681A438A60816A6FF009
:1006F0007062D14214D001688A6822F070628A6008
:1007000001688A68836A1A438A6001688A6822F0ED
:1007100040528A6001688A68C36A1A438A6009E0A5
:1007200001688A6822F070628A6001688A6822F033
:1007300040528A6001688A6822F002028A60016879
:100740008A68037E42EA43028A6090F8201089B1E9
:1007500001684A6842F400624A6001684A6822F40B
:1007600060424A6001684B68426A521E43EA423264
:100770004A6004E001684A6822F400624A60016845
:10078000CA6A22F47002CA620168CB6A828B521E66
:1007900043EA0252CA6201688A6822F400728A60DF
:1007A00001688A6890F8303042EA43228A60016822
:1007B0008A6822F480628A6001688A68406942EA35
:1007C000802088607047000000230140FEE7042875
:1007D0004FF00000704700207047000010B5002265
:1007E0000449054805F0BAF90449034805F0A8F999
:1007F000002010BDF013002014070020F00B002093
:1008000070B505460C462946064805F099F9054895
:1008100005F06AF9218804488AB2294606F045FFA6
:10082000002070BD1407002000C001200020704788
:1008300010B50A460849D1F8BC12D1F814120029A3
:1008400001D0012010BD0146034805F087F9BDE83D
:100850001040014805F018BA1407002090ED010A75
:10086000D1ED020A91ED011A20EE200AD0ED020A24
:1008700000EEC10A82ED000A90ED020AD1ED000AF5
:1008800091ED021A20EE200AD0ED000A00EEC10A16
:1008900082ED010A90ED000AD1ED010A91ED001AF6
:1008A00020EE200AD0ED010A00EEC10A82ED020A14
:1008B00070470000014800F0E7B900006C06002016
:1008C0000168CAB2103A1823B2FBF3F2064B9B5CE4
:1008D000C3656FF30901032A02D9091D816500E090
:1008E0008165806D7047000030C6000810B5014674
:1008F00000208A6A8B694FF0C074002B0ED0B3F5CC
:10090000005F1AD062B3012A2AD0022A28D0032A13
:1009100003D1C96AC90100D5012010BD1AB1012A4D
:1009200006D0022AF9D1C96AC901F6D5012010BD45
:10093000C96AA142FBD1012010BD52B1012A0AD0DF
:10094000022A06D0032AF7D1C96AA142F4D10120B4
:1009500010BD012010BDC96AC901FBD5012010BD21
:10096000012010BD704790ED000AD1ED000A91ED15
:10097000011A20EE200AD0ED010A00EE810AD0ED26
:10098000020A91ED021A00EE810A704772B6FEE784
:1009900010B50B480168001D0468001D006808447C
:1009A00000280BD00822074903F09AFA054920468F
:1009B0000422BDE81040103103F092BA10BD0000CF
:1009C000107AFF1F4A00002078B50024009490F8A8
:1009D0003C20012A19D0012280F83C200A68072512
:1009E000092A14D90368DE680A3A02EB42029540EC
:1009F000AE43DE600A788B680A3A02EB420293400B
:100A00000268D5682B43D36011E0022078BD0368EB
:100A10001E6902EB42029540AE431E610A788B6864
:100A200002EB42029340026815692B4313614A6846
:100A30001F25072A13D203685E6B521E02EB820247
:100A40009540AE435E630A8893B20A79521E02EB68
:100A5000820293400268556B2B43536328E00D2AB2
:100A600013D203681E6BD21F02EB82029540AE4385
:100A70001E630A8893B20A79D21F02EB8202934066
:100A80000268156B2B43136312E00368DE6A0D3AAC
:100A900002EB82029540AE43DE620A8893B20A7985
:100AA0000D3A02EB820293400268D56A2B43D3626F
:100AB000174A184B05689D4206D10D68122D03D1C7
:100AC000556845F48005556005689D421BD10B684B
:100AD000102B01D0112B16D1536843F4000353603F
:100AE000096810290FD10C490C4A0968B1FBF2F1D1
:100AF00001EB81014900009102E00099491E00913B
:100B000000990029F9D180F83C40002078BD000010
:100B100000230140002001408400002040420F00DB
:100B200070B504460026002C03D0206C002510B1BF
:100B300007E0012070BD204600F01CF8656484F8D1
:100B40003C50206CC00610D4206C20F4885040F03B
:100B5000020020642046FFF7A1FD6564206C20F0B0
:100B6000020040F00100206400E0012684F83C50BF
:100B7000304670BD10B586B00446142101A8FFF7B9
:100B800019FD1149206888421CD100210F480268D4
:100B900042F480720260006800F4807000900B489C
:100BA0001438026842F001020260006800F001009F
:100BB00000901020019003200290039101A90448A5
:100BC00000F0C6F906B010BD0020014044380240D4
:100BD000000002402DE9F0410446A76D00F0A8FA9C
:100BE000054694F835000026022806D0802060656E
:100BF00084F834600120BDE8F0812068016821F0AC
:100C0000160101602068416921F080014161206C7A
:100C100008B9A06C20B12068016821F008010160CA
:100C20002068016821F0010101600BE000F080FA0A
:100C3000401B052806D92020343420620320607030
:100C40002670D8E720680068C007EFD134343F2011
:100C500094F828108840B860012060702670002049
:100C6000C9E790F83510022903D0802141650120A1
:100C70007047052180F835100068016821F00101F6
:100C800001600020704700002DE9F84304464FF052
:100C90000009CDF800906F484FF416510068B0FB82
:100CA000F1F7A56D2E6894F85C00082202FA00F1B5
:100CB000314210D02068016849070CD5016821F045
:100CC0000401016094F85C0002FA00F1A960606D13
:100CD00040F00100606594F85C104FF0010808FADC
:100CE00001F0304208D021684969090604D5A8609E
:100CF000606D40F00200606594F85C10042088404C
:100D0000304208D021680968890704D5A860606D61
:100D100040F00400606594F85C1010208840304278
:100D200020D02168096809071CD5A86020680168DF
:100D300049030CD50068000304D4216C91B120460E
:100D400088470FE0A16C69B1204688470AE0016836
:100D5000C90503D4016821F008010160216C09B1C3
:100D60002046884794F85C102020884030424CD0C0
:100D700021680968C90648D5A86094F83500052897
:100D80000BD020680168490330D50068000328D4DF
:100D9000616C51B32046884737E02068016821F034
:100DA000160101602068416921F080014161206CD9
:100DB00008B9A06C20B12068016821F00801016029
:100DC00094F85C103F208840A86084F8358084F84F
:100DD0003490216D00293BD001B02046BDE8F0439E
:100DE0000847E16B09B1204688470EE00168C90554
:100DF00007D4016821F01001016084F8358084F87F
:100E00003490E16B09B120468847606D00281FD0FF
:100E1000606DC00714D0052084F835002068016893
:100E200021F0010101600098401C0090B84203D8F5
:100E300020680068C007F6D184F8358084F83490C3
:100E4000E16C002904D001B02046BDE8F04308471A
:100E5000BDE8F883840000202DE9F041044600F04D
:100E600067F905465CB1022084F83500002684F855
:100E700034602068016821F0010101600DE001206B
:100E8000BDE8F08100F054F9401B052805D9202069
:100E90006065032084F83500F2E720680068C00729
:100EA000F0D121680A6820480240D4E901031843C0
:100EB000D4E903352B43184363691843A3691843E6
:100EC000E3691843236A18431043626A042A03D172
:100ED000D4E90B231A43104308602068406920F0CE
:100EE0000700656A29460543012704290DD1A06A38
:100EF0000543E06A48B12046FFF7F8FC28B14020DE
:100F0000606584F835700120BAE7206845612046A5
:100F1000FFF7D6FC94F85C203F2191408160666524
:100F200084F835700020ABE73F8010F070B50446C0
:100F300000F0FEF80546601C02D004480078044426
:100F400000F0F6F8401BA042FAD370BD78000020F4
:100F50002DE9F84F0022DFF89C914FF0010803279C
:100F60004FF00F0C09F1040AA9F1040B08FA02F57D
:100F70000B682B40AB426ED10C7904F00304012CBA
:100F800001D0022C15D18668540007FA04FE26EA27
:100F90000E06D1F80CE00EFA04FE4EEA060EC0F87A
:100FA00008E04468AC430D79C5F30015954025432E
:100FB00045600C79E443A40708D0C568540007FADB
:100FC00004F6B5438E68A6402E43C6600C7904F043
:100FD0000304022C11D1D40800EB8406356A5407AF
:100FE000E40E0CFA04FE25EA0E05D1F810E00EFA24
:100FF00004FE4EEA050EC6F820E00568540007FA24
:1010000004F6B5430E7906F00306A6402E430660AB
:101010004C6814F4403F67D0374C256845F4804550
:101020002560246804F480440094344C22F00305C5
:101030002E19D6F8085894074FEA147E0CFA0EF4CD
:10104000A5432F4CA04201D1002424E02D4CA04206
:1010500002D101241FE047E02B4CA04201D1022421
:1010600019E02A4CA04201D1032414E0284CA042EC
:1010700001D104240FE0274CA04201D105240AE04D
:10108000254CA04201D1062405E0244CA04201D108
:10109000072400E0082404FA0EF42C43C6F808489C
:1010A000D9F800409C434D68ED0200D51C43C9F8B7
:1010B0000040DAF800409C434D68AD0200D51C4367
:1010C000CAF80040DBF800409C434D68AD0300D5F2
:1010D0001C43CBF80040074D083D2C689C434E68EC
:1010E000F60300D51C432C60521C102AFFF43EAFBF
:1010F000BDE8F88F083C0140443802400030014010
:10110000000002400004024000080240000C0240BF
:10111000001002400014024000180240001C02406F
:10112000002A01D081617047090481617047000085
:1011300001488068704700007800002002488168FC
:1011400002781144816070477800002010B50B4888
:10115000016841F400710160016841F4806101603F
:10116000016841F480710160032000F09FF80F20B6
:1011700000F006F800F050F8002010BD003C0240DE
:1011800030B587B0054600241E48016841F48071DF
:101190000160006800F48070009001A902A800F0CE
:1011A00043FE0598A8B100F063FE40001649B0FB6D
:1011B000F1F1491E1648154A026040F2E732C2605A
:1011C000416004618460846101F010FC04461CB13C
:1011D00015E000F04DFEE9E70D4801F0B3FC0446D0
:1011E0006CB92D2000F034F8102D07D200222946CA
:1011F0002D2000F03BF80748056000E0012407B00F
:10120000204630BD4038024040420F0000200040E0
:10121000CC0600207C00002082B00C48016841F41C
:1012200080410160006800F4804001900748001F81
:10123000016841F080510160006800F08050019029
:1012400000220F21901E02B000F010B84438024076
:10125000002809DB00F01F020121914040098000B5
:1012600000F1E020C0F8001170470000F0B40D4616
:101270000D4B1B68C3F30223C3F10704042C00D9F0
:101280000424191D072901D2002300E0DB1E0126DA
:1012900006FA04F1491E294099409E40761E1640E8
:1012A0003143F0BC06F03CBA0CED00E000F0070161
:1012B000054A10684FF6FF03184040EA0120034931
:1012C00008431060704700000CED00E00000FA05D4
:1012D0007047006841620020704770B50368586A23
:1012E000002907D09C6A00EB144400204FF482755B
:1012F000491E0AE040EA024098620DE005EB8006D4
:101300009E5904EB1644401CC0B28842F6D305EB4C
:10131000810144EA02405850002070BDD0F8080511
:1013200005F02FB801EBC10200EB8202D0F80805EE
:10133000D26C04F053BF01EBC10200EB8202D0F883
:101340000805D2F88C2204F0B7BFD0F8080505F0E4
:101350001AB80A0601F00F0101EBC10100EB81018F
:1013600001D53C3101E001F51F71006805F0CABFED
:1013700070B504460B0601F00F0000EBC00104EB52
:1013800081014FF001024FF0000502D53C314A7057
:1013900002E001F51F714D70087094F8BC0401283B
:1013A00008D084F8BC24206805F064FC84F8BC54A0
:1013B000002070BD022070BD70B5044601F00F0022
:1013C0006268904201D9012070BD0B0601F00F0147
:1013D00001EBC10104EB81014FF001024FF0000568
:1013E00002D53C314A7002E001F51F714D708D70DD
:1013F000087094F8BC04012808D084F8BC24206844
:1014000005F02CFE84F8BC54002070BD022070BD95
:1014100001F00F0101EBC10100EB8100D0F89C024B
:1014200070472DE9F04104460F0601F00F0000EB74
:10143000C00104EB81014FF001064FF0000502D519
:101440003C314E7002E001F51F714D700870CA60AA
:101450000B714A7802B10881022B00D14D7194F8CA
:10146000BC04012809D084F8BC64206805F04EFB58
:10147000284684F8BC54BDE8F0810220FBE770B533
:101480000D4605F00F0404EBC40100EB810101F5EA
:101490001F710A618B6100230B624B700C70036932
:1014A000012B00D14A612A0705D0027C006805F0B3
:1014B0002DFE002070BD027C006805F019FDF8E7E4
:1014C00070B504460D46616805F00F00884201D9E9
:1014D000012070BD29064FF000064FF0010206D52D
:1014E00000EBC00104EB81013C314A7006E005EBE2
:1014F000C50104EB810101F51F714E708A700870FF
:1015000094F8BC04012807D084F8BC24206805F0B6
:10151000D1FD280702D007E0022070BD217C04F233
:10152000C442206805F070FD84F8BC64002070BDE2
:1015300070B50D4605F00F0404EBC40100EB81010A
:101540003C310A618B6100230B6201234B700C70EC
:101550000369012B00D14A612A0705D0027C00688B
:1015600005F0D4FD002070BD027C006805F0C0FCD1
:10157000F8E72DE9F84F04462568284605F070FF86
:1015800000287ED1206805F097FF002879D0D5F893
:101590000808C0F30D20C4F8FC04206805F08CFF97
:1015A000800704D52068416901F00201416120688B
:1015B00005F082FFC10604F2C440009035D52068D2
:1015C000816921F0100181612F6A07F00F0000EBA3
:1015D000C00004EB800606F51F76C7F343400228DF
:1015E00002D0062812D01BE047F6F070074217D051
:1015F000C7F30A1217462846316905F061FF3069C2
:1016000038443061306A3844306209E008222846A4
:10161000009905F055FF306AC7F30A11084430629B
:101620002068816941F010018161206805F044FF64
:1016300000034FF0080B4FF000094FF001085ED592
:101640000026206805F017FF824655E05FEACA7061
:101650004FD0F1B2206805F027FF0746F80707D002
:1016600005EB4610C0F8088B3146204603F024FAFB
:10167000380709D505EB4610C0F808BB31462046AF
:1016800000E0F9E103F0F4F9F80604D505EB4611A2
:101690001020C1F8080BB8071CD56869000605D5ED
:1016A000D5F8040840F48061C5F8041806EBC600BC
:1016B00004EB800000F51F70C178012905D180F886
:1016C0000390F1B2204600F0DDF905EB461102204F
:1016D000C1F8080BB80604D505EB46102021C0F868
:1016E000081BB80405D505EB46104FF40051C0F8AF
:1016F000081B761C4FEA5A0ABAF1000FA6D12068DF
:1017000005F0DAFE40036CD5206805F0ADFE824698
:10171000002663E05FEACA705DD0F1B2206805F090
:10172000B1FE0746F80723D006F00F0108FA01F0D2
:10173000D5F834188143C5F8341805EB4610C0F8C5
:101740000889206901280FD106EBC60004EB800050
:10175000D0E912211144C16436B9606D20B9206806
:101760000121009A05F050FCF1B22046FFF7DAFDA6
:10177000380703D505EB4610C0F808B9F80604D5BC
:1017800005EB46111020C1F80809780604D505EBD1
:1017900046104021C0F80819B80716D5314628462A
:1017A00005F02AFE06EBC60004EB80003C30C17851
:1017B000012905D180F80390F1B2204600F05EF9CE
:1017C00005EB46110220C1F80809380603D5314659
:1017D000204603F0E3F9761C4FEA5A0ABAF1000FEB
:1017E00098D1206805F068FE002811DAD5F80408C1
:1017F00020F00101C5F8041894F8F404012829D058
:10180000204600F00EFA2068416901F00041416174
:10181000206805F051FE00050BD5D5F80808C00773
:1018200002D0204600F042FA2068416901F40061CC
:101830004161206805F040FEC00461D5D5F8040878
:1018400020F00101C5F804181021206805F0D4FD2E
:10185000002120E084F8F49400212046FFF738FDB1
:10186000D1E705EB411000F510604FF67F32826042
:10187000036823F400130360C0F80822D0F80022A4
:1018800022F40012C0F80022D0F8002242F00062D8
:10189000C0F80022491C60688842E2D8D5F81C08CC
:1018A00040F00111C5F81C18206B60B1D5F8840810
:1018B00040F00B01C5F88418D5F8440840F00B013E
:1018C000C5F844180CE0D5F8140842F22B0108437F
:1018D000C5F81408D5F8100840F00B01C5F8101829
:1018E000D5F8000820F4FE61C5F80018217C2068B6
:1018F000009A05F089FB2068416901F4805141613B
:10190000206805F0D9FD800415D5206805F040F960
:10191000206805F095FDE06000F0A4FA0146227B06
:10192000206805F033FE204600F064F92068416924
:1019300001F400514161206805F0BEFD000707D5A4
:10194000204600F072F92068416901F00801416108
:10195000206805F0B1FD000615D5A86920F08001CA
:10196000A96101260CE006EBC60004EB800090F8AC
:101970007F02012803D1F1B22046FFF7EAFC761C72
:101980006068B042EFD8206805F096FDC00220D50F
:10199000012616E005EB4610D0F8001906EBC6004C
:1019A00004EB800090F84020012A09D1002907DAD1
:1019B00080F83F80F0B240F080012046FFF7C9FC7C
:1019C000761C6068B042E5D82068416901F4801156
:1019D0004161206805F070FD800230D5012026E0CD
:1019E00005EB4011D1F8001B00EBC00204EB8202B2
:1019F00092F88032012B19D1002917DA94F8FC34BF
:101A000001F4803103F0010399420FD182F87F8203
:101A1000A96941F08002AA616969090606D4D5F86E
:101A2000040840F40070C5F8040803E0401C616835
:101A30008142D5D82068416901F4001141612068D4
:101A400005F03AFD400007D52046FFF767FC206807
:101A5000416901F080414161206805F02DFD40079A
:101A60000AD520684568680702D52046FFF76DFC57
:101A70002068416829434160BDE8F88FD0F8080527
:101A800004F0D6BCD0F8080504F0E7BC2DE9F0411D
:101A90008AB00446002C05D0266894F8BD040025C1
:101AA00020B108E001200AB0BDE8F08184F8BC5400
:101AB000204600F05DF8032084F8BD04F06BC005FB
:101AC00000D42561206805F00DFA04F110012822E8
:101AD00088466846FEF712FD94E80F0005F066F8A8
:101AE000022718B184F8BD740120DCE700212068CA
:101AF00005F005FD002101260DE001EBC10004EB1E
:101B000080003C304670017001810571C56005613F
:101B10008561491CC9B260688842EED800210DE099
:101B200001EBC10004EB800000F51F7045700170EF
:101B30000571C56005618561491CC9B2606888424C
:101B4000EED8282241466846FEF7D8FC94E80F00FC
:101B500005F010F918B184F8BD740120A3E784F8EA
:101B6000385084F8BD64206805F0F6F800209AE744
:101B700010B586B00446142101A8FEF71BFD2068AD
:101B8000B0F1A04F2FD100211848026842F00102A5
:101B90000260006800F0010000904FF4C050019016
:101BA000022002900391032004900A20059001A9CD
:101BB0000F48FFF7CDF90D48001D016841F0800185
:101BC00001600A481430016841F4804101600068F6
:101BD00000F480400090002205214320FFF746FBDF
:101BE0004320FFF735FB06B010BD0000303802403F
:101BF0000000024070B504460125E06800280ED0C0
:101C0000022801D0FEF7C2FE2946D4F8080504F0E8
:101C100095FCD4F80805BDE8704004F048BC0025E8
:101C2000F2E7D0F8080504F072BCD0F8080504F01B
:101C300078BC10B5044694F8BC0401280BD00120F0
:101C400084F8BC0484F83810206805F088FC002073
:101C500084F8BC0410BD022010BDD0F8082500F2A5
:101C6000C441104604F076BC10B50446206894F8D0
:101C7000BC14012906D0012184F8BC14A16A0129F1
:101C800002D008E0022010BDA169012903D0816BB8
:101C900041F480318163206805F086FB206805F0FF
:101CA0004DF8002084F8BC0410BD000010B50446B7
:101CB000D4F8080504F090FC2068D0F8001E41F02C
:101CC0000101C0F8001E206A002804D00248016803
:101CD00041F00601016010BD10ED00E02DE9F04774
:101CE00004460D46002C13D0DFF82891D9F80000E7
:101CF000EFB200F00700A8420CD289F80070D9F8C2
:101D0000000000F00700A84204D00120BDE8F087E1
:101D10000120FBE72068404E810712D5400703D51C
:101D2000306840F4E05030602078000703D5306818
:101D300040F4604030603068A16820F0F000084353
:101D400030602078C00731D03349606808390128F5
:101D500008D002280BD0032809D0096889070BD4C2
:101D60000120D3E70968890306D40120CEE709687A
:101D7000890101D40120C9E7316821F00301014341
:101D80003160FFF7D5F9804641F2883A07E0FFF766
:101D9000CFF9A0EB0800504501D90320B6E7306821
:101DA000616800F00C00B0EB810FF0D1D9F80000B1
:101DB00000F00700A84209D989F80070D9F800009E
:101DC00000F00700A84201D001209FE720784007DB
:101DD00005D53068E16820F4E05008433060207891
:101DE000000706D53068216920F4604040EAC10050
:101DF000306000F05DF83168084AC1F30311515CAE
:101E0000C8400749086007480068FFF7B9F9002093
:101E10007CE70000003C02400838024038C6000859
:101E2000840000207C0000200F2202600B4A13680F
:101E300003F003034360136803F0F0038360136847
:101E400003F4E053C360126802F46042D2080261F6
:101E50000348006800F00700086070470838024037
:101E6000003C0240014800687047000084000020E8
:101E700000B5FFF7F7FF04490968044AC1F382215E
:101E8000515CC84000BD00000838024048C6000848
:101E900000B5FFF7E7FF04490968044AC1F342317E
:101EA000515CC84000BD00000838024048C6000828
:101EB00010B51748006810F00C01164816D0164BE4
:101EC000042912D0082911D1114C241F216801F0D6
:101ED0003F02216849020AD52068C0F38810A0FBA0
:101EE00003010023FEF74EFA09E0184610BD2168F1
:101EF0000023C1F38811A1FB0001FEF743FA21681A
:101F0000C1F30141491C4900B0FBF1F010BD0000D4
:101F1000083802400024F400001BB7002DE9F84FF8
:101F20000446002C13D02078DFF8A083C007A8F166
:101F3000040556D008F104000168C1F381010129AC
:101F40000CD00068C0F38100022803D00DE001200E
:101F5000BDE8F88FD8F80000400206D52868800355
:101F60003FD5606870BB0120F2E76068B0F5803F44
:101F700010D0B0F5A02F12D0286820F4803028604F
:101F8000286820F4802028606068E0B1FFF7D0F86E
:101F9000064614E0286840F480302860F4E728689A
:101FA00040F480202860286840F480302860EBE707
:101FB000FFF7BEF8801B642801D90320C8E7286812
:101FC0008003F5D50DE0FFF7B3F8064606E0FFF70E
:101FD000AFF8801B642801D90320B9E72868800383
:101FE000F5D42078BA4F80074FF0000948D5B7489C
:101FF000001D016811F00C0F08D00068C0F38100CB
:10200000022813D1D8F8000040020FD428688007B6
:1020100004D5E068012801D0012099E728682169EA
:1020200020F0F80040EAC100286029E0E068B8B17B
:1020300001203860FFF77CF8064606E0FFF778F8E5
:10204000801B022801D9032082E728688007F5D584
:102050002868216920F0F80040EAC10028600FE0FC
:10206000C7F80090FFF764F8064606E0FFF760F84F
:10207000801B022801D903206AE728688007F5D46D
:102080002078000729D5DFF844A2924861690AF157
:10209000700A89B101210160FFF74AF8064606E09F
:1020A000FFF746F8801B022801D9032050E7DAF831
:1020B00000008007F4D510E0C0F80090FFF738F872
:1020C000064606E0FFF734F8801B022801D90320FA
:1020D0003EE7DAF800008007F4D42078400778D58E
:1020E0004FF0000A79483C300068C0000BD47748B4
:1020F0003C30016841F080510160006800F0805080
:1021000000904FF0010ADFF8D0B1DBF80000C00505
:1021100014D4DBF8000040F48070CBF80000FFF727
:1021200007F8064606E0FFF703F8801B022801D9EE
:1021300003200DE7DBF80000C005F4D5634EA0686E
:102140006C3601280FD0052812D0306820F001002D
:102150003060306820F004003060A068F8B1FEF70D
:10216000E7FF834617E0306840F001003060F4E795
:10217000306840F004003060306840F001003060AA
:10218000EBE7FEF7D5FFA0EB0B0141F2883081426F
:1021900001D90320DCE630688007F2D510E0FEF7B5
:1021A000C7FF834609E0FEF7C3FFA0EB0B0141F236
:1021B0008830814201D90320CAE630688007F2D412
:1021C000BAF1010F05D141483C30016821F080513E
:1021D0000160A069C0B33D49091D09684FF0FF3691
:1021E000C1F38101022946D0022805D0C7F86090CA
:1021F000FEF79EFF04463AE0C7F86090FEF798FFAE
:10220000814607E0FEF794FFA0EB0900022801D900
:1022100003209DE628688001F4D4D4E9070108432F
:10222000616AA26A890106EB520241EA024108434F
:1022300094F82C1040EA0160C8F8000001203866CC
:10224000FEF776FF044607E03DE0FEF771FF001B56
:10225000022801D903207BE628688001F5D532E009
:10226000FEF766FF001B022801D9032070E62868EC
:102270008001F5D427E0012823D0D8F80000E269D6
:1022800000F4800191421AD1226A00F03F0191428C
:1022900015D147F6C071626A0140B1EB821F0ED1C1
:1022A000A26A00F4403106EB5202B1EB024F06D1B4
:1022B00094F82C1000F07060B0EB016F03D0012097
:1022C00046E6012044E6002042E6000004380240D1
:1022D00000004742800E47420070004070B504463F
:1022E000002C09D0606A002540B125616561A562B6
:1022F00094F8510040B10CE0012070BD6068B0F569
:10230000827FF4D0E561F2E784F85050204600F077
:1023100045F8022084F851002068016821F040014E
:102320000160A088218900F4827001F4044108430F
:10233000A18901F400610843217C01F002010843F6
:10234000217D01F001010843218B01F40071084354
:10235000217F01F03801084394F8201001F080013A
:102360000843218D01F40051084321680860A069E9
:10237000042101EA104094F8241001F010010843F0
:10238000216848602068C16921F40061C161656508
:10239000012084F85100002070BD0000F0B587B026
:1023A0000446142102A8FEF705F9334821680024E9
:1023B000324A02250326052781421DD12F481430B9
:1023C000016841F480510160006800F48050019080
:1023D000106840F001001060106800F001000190EA
:1023E000E0200290039504940596069702A92448DC
:1023F000FEF7AEFD07B0F0BD204BDFF888C010330C
:10240000214861451AD1196841F480411960196861
:1024100001F480410191116841F0020111601168DD
:1024200001F0020101914FF460410291039504947F
:102430000596069702A9FEF78BFDDBE7134FB9421D
:10244000D8D1196841F400411960196801F40041BC
:102450000191116841F002011160116801F002015F
:102460000191382102910395049405960621069165
:1024700002A9FEF76DFDBDE7003001403038024093
:10248000000002400038004000040240003C0040D0
:102490002DE9F84F04468A4691461D46002660689D
:1024A0004FF0040BB0F5827F01D1A06888B194F899
:1024B0005000012818D0012084F85000FEF738FEA3
:1024C000074694F851004FF0000801280ED002266C
:1024D00082E084F851B04B46524651462046009562
:1024E00000F048F9BDE8F88F0220FBE7BAF1000FD1
:1024F0001BD0B9F1000F18D084F851B0C4F8548043
:10250000C4F838A0A4F83C90A4F83E90C4F83080F9
:10251000A4F83480A4F83680C4F84080C4F844801D
:10252000A068B0F5004F02D00BE0012654E020680F
:10253000016821F0400101602068016821F48041B8
:10254000016020680168490603D4016841F0400138
:102550000160E068B0B131E020688168C90709D046
:10256000007BA16B0870A06B401CA063E08F401E35
:10257000E08707E0FEF7DCFDC01BA84201D3681C22
:1025800004D11DB1E08F0028E6D11AE0032623E034
:1025900020688168C90709D0C068A16B0880A06B5A
:1025A000801CA063E08F401EE08707E0FEF7C0FDBF
:1025B000C01BA84201D3681C15D1A5B1E08F00282B
:1025C000E6D13A462946204602F036FB08B12020E3
:1025D0006065606D00B10126012084F8510084F827
:1025E000508030467EE70326F6E72DE9F84F044693
:1025F0008B4692461D46002694F8500001280DD0C7
:102600004FF0010984F85090FEF792FD074694F8C8
:102610005100B046012804D00226A5E00220BDE802
:10262000F88FBBF1000F1CD05FEA0A0019D003201D
:1026300084F85100C4F85480C4F830B0A4F834A031
:10264000A4F836A0C4F83880A4F83C80A4F83E80F2
:10265000C4F84480C4F84080A068B0F5004F02D0B0
:102660000BE0012680E02068016821F04001016054
:102670002068016841F480410160206801684906D2
:1026800003D4016841F040010160E068B0F5006FDB
:1026900005D0606878B3BAF1010F2DD04DE06068C5
:1026A00010B1BAF1010F20D1206B21680088C860F9
:1026B000206B801C2063E08E401EE08615E02068C1
:1026C0008168890709D5216B0988C160206B801C4E
:1026D0002063E08E401EE08607E0FEF729FDC01B68
:1026E000A84201D3681C04D11DB1E08E0028E6D1B8
:1026F00026E0032638E0FFE7206B216800780873A6
:10270000206B401C2063E08E401EE08615E02068B0
:102710008168890709D5216B09780173206B401CFA
:102720002063E08E401EE08607E0FEF701FDC01B3F
:10273000A84201D3681C0ED16DB1E08E0028E6D10D
:102740003A462946204602F0BDFA08B120206065CD
:10275000A06810B105E0032606E02068C168806823
:102760000090606D00B1012684F8519084F850808B
:10277000304654E72DE9F84F04460A9E8A469346B0
:102780001F4601254FF0000894F8500001280ED094
:10279000012084F85000FEF7CBFC814694F85100EC
:1027A000616801280DD0B1F5827F07D102E00220D7
:1027B000BDE8F88FA16809B9042802D04FF00208DB
:1027C000C3E0BAF1000F28D0BBF1000F25D03800CC
:1027D00023D094F85100042802D0052084F8510039
:1027E00000206065C4F838B0E787A787C4F830A038
:1027F000E786A7862064606420680168490603D4E0
:10280000016841F040010160E068B0F5006F07D059
:102810006068E8B3012F48D07DE04FF0010894E0F4
:10282000606808B1012F39D1206B21680088C86029
:10283000206B801C2063E08E401EE0862EE0206826
:10284000816889070DD5E18E59B1012D09D1216B20
:102850000988C160206B801C2063E08E401EE086EA
:10286000002520688168C9070BD0E18F49B1C06895
:10287000A16B0880A06B801CA063E08F401EE087E6
:102880000125FEF755FCA0EB0900B04206D300E09D
:102890000BE0701C02D04FF0030856E0E08E0028D9
:1028A000CDD1E08F0028CAD13BE0206B21680078B1
:1028B0000873206B401C2063E08E401EE0862AE0F7
:1028C0002068816889070DD5E18E59B1012D09D1A4
:1028D000216B09780173206B401C2063E08E401E41
:1028E000E086002520688168C9070BD0E18F49B1D7
:1028F000C068A16B0870A06B401CA063E08F401EF5
:10290000E0870125FEF714FCA0EB0900B04201D3DB
:10291000701C11D186B1E08E0028D1D1E08F002843
:10292000CED14A463146204602F0CCF938B14FF0BC
:1029300001082020606508E04FF0030805E0A0686A
:1029400018B92068C1688068009001205034607018
:102950000020207040462BE77047704770B590F814
:102960003C20012A31D0012680F83C60022280F808
:102970003D2002685468936824F070050C682C436D
:102980005460134C0268A24214D0B2F1804F11D0AF
:10299000104CA2420ED0104CA2420BD00F4CA242BF
:1029A00008D00F4CA24205D00E4CA24202D00E4CD1
:1029B000A24204D123F080034968194391603C305E
:1029C000467000210170002070BD022070BD000023
:1029D000000001400004004000080040000C0040DE
:1029E00000040140004001400018004010B50446BA
:1029F000002C03D094F83D0010B107E0012010BD79
:102A0000002084F83C00204600F016F8022084F8EC
:102A10003D00211D206802F08FFB01203D346072D3
:102A20006070A070E07020716071A071E071207220
:102A30002070002010BD000008B500681D49B0F1ED
:102A4000804F0BD01C4A904211D1086840F004001E
:102A50000860086800F00400009008BD086840F0B5
:102A600001000860086800F00100009008BD134AEA
:102A7000904211D1086840F008000860086800F032
:102A800008000090002205213220FEF7EFFBBDE890
:102A900008403220FEF7DCBB09498842E6D10548F0
:102AA000001D016841F480310160006800F480304D
:102AB000009008BD4038024000080040000C004073
:102AC0000040014090F83D10012901D001207047DD
:102AD000022180F83D1000681349884214D0B0F1FB
:102AE000804F11D0114988420ED0114988420BD035
:102AF0001049884208D01049884205D00F498842C1
:102B000002D00F49884209D1816801F007010629E6
:102B100008D0016841F00101016003E0016841F063
:102B200001010160002070470000014000040040E6
:102B300000080040000C004000040140004001403B
:102B40000018004090F83D10012901D00120704785
:102B5000022180F83D100168CA6842F00102CA6093
:102B600000681449884214D0B0F1804F11D0124946
:102B700088420ED0114988420BD01149884208D0B2
:102B80001049884205D01049884202D00F49884236
:102B900009D1816801F00701062908D0016841F0D8
:102BA0000101016003E0016841F0010101600020C2
:102BB0007047000000000140000400400008004091
:102BC000000C00400004014000400140001800409B
:102BD00070B50446002594F83C00012817D0012662
:102BE00084F83C60022084F83D002068826822F06E
:102BF000770222F47F4282600868502838D00DDCCA
:102C0000202853D005DC90B3102811D14EE00220CB
:102C100070BD30284AD040280AD13DE0602831D02C
:102C200070280CD0B0F5805F03D0B0F5005F12D0F3
:102C300001253C34667000202070284670BDCB68AA
:102C4000D1E90121206802F0EAFA2068816841F0A8
:102C500077018160EDE7CB68D1E90121206802F0BE
:102C6000DEFA2068816841F480418160E1E71DE07F
:102C7000CA684968206802F0B5FB5021206802F05C
:102C8000D8FAD6E7CA684968206802F0BCFB602120
:102C9000206802F0CEFACCE7CA684968206802F0E2
:102CA000A1FB4021206802F0C4FAC2E72268014675
:102CB000104602F0BEFABCE7704770B504462068C3
:102CC00001694FF00005C943890716D4C168C9439B
:102CD000890712D4E91E01610120207720688069EC
:102CE000800703D02046FFF7E7FF05E0204600F00D
:102CF000F9F8204600F089F9257720680169C94371
:102D0000490718D4C168C943490714D46FF00401B6
:102D10000161022020772068806910F4407F03D091
:102D20002046FFF7C9FF05E0204600F0DBF820460B
:102D300000F06BF9257720680169C943090717D4AA
:102D4000C168C943090713D46FF008010161042069
:102D500020772068C069800703D02046FFF7ACFFCA
:102D600005E0204600F0BEF8204600F04EF9257739
:102D700020680169C943C90618D4C168C943C90696
:102D800014D46FF010010161082020772068C06919
:102D900010F4407F03D02046FFF78EFF05E0204669
:102DA00000F0A0F8204600F030F92577206801698E
:102DB000C943C90708D1C168C943C90704D1891EDD
:102DC0000161204600F090F920680169C9430906B5
:102DD00009D4C168C943090605D46FF080010161B7
:102DE0002046FFF7B9FD20680169C943490609D4A7
:102DF000C168C943490605D46FF04001016120460E
:102E000000F07CF920680169C94389060BD4C168C8
:102E1000C943890607D46FF0200101612046BDE84F
:102E20007040FFF79ABD70BD10B586B004461421FE
:102E300001A8FDF7BFFB20680021244A0223B0F15E
:102E4000804F17D0224CA04228D1106840F00200D9
:102E50001060106800F0020000904FF47070019054
:102E6000029303910491059301A91A48FEF770F8A3
:102E700006B010BD106840F001001060106800F04E
:102E8000010000900720019002930391049101201A
:102E9000059001A91048FEF75BF8E9E70F4CA04246
:102EA000E6D1106840F010001060106800F01000CB
:102EB00000906020019002930391049103200590FB
:102EC00001A90748FEF744F8D2E700003038024075
:102ED00000080040000402400000024000400140A1
:102EE00000100240704770B504460D46002694F865
:102EF0003C0001280FD0012084F83C006AB1042A6C
:102F00001FD0082A32D00C2A44D00126002084F891
:102F10003C00304670BD022070BD2946206802F09A
:102F200091F92068816941F0080181612068816917
:102F300021F004018161206881692A69114381615E
:102F4000E4E72946206802F0B1F92068816941F47C
:102F5000006181612068816921F48061816120685C
:102F600081692A6941EA02218161CFE72946206807
:102F700002F0D6F92068C16941F00801C1612068FA
:102F8000C16921F00401C1612068C1692A69114346
:102F9000C161BBE72946206802F0FAF92068C169DF
:102FA00041F40061C1612068C16921F48061C1619F
:102FB0002068C1692A6941EA0221C161A6E710B50A
:102FC0000446002C03D094F83D0010B107E0012026
:102FD00010BD002084F83C00204600F015F80220C7
:102FE00084F83D00211D206802F0A6F801203D3440
:102FF00060726070A070E07020716071A071E0710B
:1030000020722070002010BD7047704710B5044634
:10301000002909D004290AD008290BD094F84100CE
:1030200001280AD0012010BD94F83E00F8E794F87A
:103030003F00F5E794F84000F2E70220A9B3042925
:1030400037D0082938D084F841000122206802F0E6
:10305000D9F81E4920681E4A884201D0904203D107
:10306000436C43F4004343642068884213D0B0F1BA
:10307000804F10D0174988420DD0174988420AD096
:103080001649884207D0904205D01549884202D09F
:103090001449884213D1816801F00701062912D032
:1030A000016841F0010101600DE0FFE784F83E0096
:1030B000CBE784F83F00C8E784F84000C5E7016823
:1030C00041F001010160002010BD0000000001403E
:1030D000000401400004004000080040000C0040D3
:1030E000004001400018004000680349884201D1B7
:1030F000FEF724B87047000000200040704770477A
:1031000070470000F8B5044622681068D16853691A
:1031100000F00F06002E08D1850606D58D0604D5D1
:103120002046BDE8F84002F0D3B90025002E66D055
:1031300003F0010601F49077374360D0C20705D051
:10314000CA0503D5226C42F001022264420705D56C
:10315000DA0703D0226C42F002022264820705D50E
:10316000DA0703D0226C42F004022264020707D57A
:1031700001F02002324303D0226C42F008022264A4
:10318000226C002A31D0800604D5880602D520465C
:1031900002F09EF920684069C0F38010216C090795
:1031A00000D438B3204602F05FF920684069400639
:1031B0001CD52068143050E8001F21F0400140E881
:1031C0000012002AF5D1A06B60B157490165A06BD0
:1031D000FDF747FD002808D0A06B016D01B0BDE8E8
:1031E000F04008472046FFF78BFFF8BD2046FFF769
:1031F00087FFF8BD2046FFF783FF2564F8BD236BEA
:10320000012B7ED1C3067CD5CB067AD510685068D9
:10321000009050694FF02003400643D5A16B086829
:10322000406880B20028E9D0A28D8242E6D9E085CC
:10323000C869B0F5807F2DD020680C3050E8001FA1
:1032400021F4807140E80012002AF5D12068143082
:1032500050E8001F21F0010140E80012002AF5D1DA
:103260002068143050E8001F21F0400140E80012AF
:10327000002AF5D184F83E30256320680C3050E8F0
:10328000001F21F0100140E80012002AF5D1A06BC8
:10329000FDF7A0FCA08DE18D401A81B22046FFF71A
:1032A0002EFFF8BDA08DE18D401A81B2E08D00287F
:1032B000F7D00029F5D020680C3050E8002F22F418
:1032C000907240E80026002EF5D12068143050E8B6
:1032D000002F22F0010240E80026002EF5D184F8EC
:1032E0003E30256320680C3050E8002F22F0100299
:1032F00040E80023002BF5D12046FFF700FFF8BD82
:10330000FFE7020606D50A0604D52046BDE8F840C8
:1033100002F0EAB94006F2D54806F0D52046BDE8ED
:10332000F84002F0C8B800005954000810B5006811
:103330000649884209D1064806F094FEBDE81040CF
:1033400019220349034800F05FB910BD0050004046
:103350005E3A00201805002070B50446002C04D009
:1033600094F83D00002510B106E0012070BD84F8FE
:103370003C50204600F022F8242084F83D002068CC
:10338000C16821F40051C160204602F005F92068AF
:10339000016921F4904101612068416921F02A010D
:1033A00041612068C16841F40051C160256420205A
:1033B00084F83D0084F83E00002070BD2DE9F04700
:1033C00086B00746142101A8FDF7F4F8834ADFF818
:1033D00008C2396800258148103A02240326804B30
:1033E0004FF0080861451DD1016841F400210160DA
:1033F000006800F400200090106840F004001060A5
:10340000106800F004000090B0020190029403954F
:103410000496CDF8148001A91846FDF799FD06B071
:10342000BDE8F087DFF8BCC1DFF8BC9161454DD144
:10343000016841F480110160006800F48010009080
:10344000106840F004001060106800F00400009064
:10345000106840F008001060106800F0080000904C
:103460004FF480500190029403950496CDF8148097
:1034700001A91846FDF76CFD042001900294039504
:103480000496CDF8148001A94846FDF761FD584C1B
:1034900056482060C0056060A560E560401420616A
:1034A0006561A561E561256265622046FDF7D4FC92
:1034B00008B1FDF76BFABC63A76300220521352034
:1034C000FDF7D4FE3520FDF7C3FEA8E7434FDFF834
:1034D00024A13F1D4FF0070C51451CD1386840F026
:1034E00010003860386800F010000090106840F05C
:1034F00001001060106800F0010000904FF4C060FF
:103500000190029403950496CDF814C001A93A489D
:10351000FDF71EFD83E7DFF8E4A051451BD10168EC
:1035200041F400310160006800F400300090106840
:1035300040F008001060106800F008000090602063
:103540000190029403950496CDF814C001A9484651
:10355000FDF7FEFC63E7DFF8A8A051451CD1016828
:1035600041F480210160006800F480200090106820
:1035700040F008001060106800F0080000904FF460
:1035800040700190029403950496CDF814C001A9EF
:103590004846FDF7DDFC42E71A48814295D138687C
:1035A00040F020003860386800F02000009010687B
:1035B00040F004001060106800F004000090C0208B
:1035C0000190029403950496CDF8148001A9184641
:1035D000FDF7BEFC23E70000004C004040380240ED
:1035E0000008024000500040000C02401060024001
:1035F0006C06002000100140000002400044004022
:10360000004800400014014090F83E30202B01D0CB
:103610000220704759B152B190F83C30012B08D0CC
:10362000012380F83C300023036302F03FB80120FF
:1036300070470220704770477047FEE710B586B0AC
:103640000446D4F8EC0090ED000A8DED050A90EDEB
:10365000010A8DED040A90ED020A8DED030A90ED4A
:10366000030A8DED020A9DED050ADDED050A9DEDCB
:10367000041A20EE200ADDED040A00EE810ADDEDD9
:10368000030A9DED031A00EE810ADDED020A9DEDAD
:10369000021A00EE810A04F085FF8DED010A002078
:1036A000D4F8EC10DDED010A01EB800191ED000A88
:1036B00020EE200A81ED000A401CC0B20428EFD39E
:1036C0004148DDED040AF83490ED6F0AA16860EE20
:1036D000200AB6EE000A60EE800AC1ED040AD0EDC1
:1036E0006F0A9DED031AA16860EE810A60EE800A00
:1036F000C1ED050AD0ED6F0A9DED051AA16820EE17
:10370000811AFEEE000A21EE201A81ED0A1A90EDD0
:103710006F1ADDED021AA16821EE211A21EE001ABE
:1037200081ED0B1A90ED6F1ADDED021AA16821EE02
:10373000211A21EE201A81ED101A90ED6F1ADDED9D
:10374000051AA16821EE211A21EE201A81ED111A25
:1037500090ED6F1ADDED031AA16821EE211A21EE1A
:10376000000A81ED160A90ED6F0A9DED041AA1681A
:1037700020EE010A20EE200A81ED170A2168D0ED23
:10378000740A91ED1C0A20EE200A81ED1C0A2168C2
:10379000D0ED740A91ED230A20EE200A81ED230A70
:1037A00054F8F80909499FED0A0A026F8A4201DDBF
:1037B00080ED1C0AD4F8F800D0F88C208A4201DD94
:1037C00080ED230A06B010BDF83A002000401C46E8
:1037D00000401C4670B505462C4C0126267084ED31
:1037E0006C0AC4ED6D0A84ED6E1A9FED290A84ED12
:1037F000730A002084F83801D03400212167616702
:10380000A167E16784ED3B2AD03C11EE900AB7EE48
:10381000000AB0F17E5F01DDF0EE401AC0EE210A31
:10382000C4ED740A032300220621201D00F076FB5C
:10383000184B01221146A3F1080004F036FB0021C9
:1038400005EB810090ED000AD4F8EC0000EB81005C
:1038500080ED000A491C0429F2DB0F4844F8D00F20
:103860000E4860600E48A0600E48E06004F8A26C4C
:1038700004F8A16C90220C49606BFCF73FFEE06AF3
:10388000BDE8704090220949FCF738BEF83A0020A4
:1038900077CC2B32C03C0020B13800083D36000800
:1038A000E5380008C13900087CCE0008A0010020DE
:1038B00010B50446902254F8F81F0848FCF71EFE85
:1038C00048220748616AFCF719FE054861694822E9
:1038D000BDE810404830FCF711BE0000A0010020F8
:1038E000D83C00201FB50446B0EE000A54F8EC0F97
:1038F000D0ED000A60EE800ACDED030AD0ED010A9A
:1039000060EE800ACDED020AD0ED020A60EE800A78
:10391000CDED010AD0ED030A20EE800A8DED000AFC
:1039200014F8DE0C14F8E01C10FB01F123480088A9
:103930004143206AFCF73EFE9DED010A206AB1EE8C
:10394000400A80ED000A206ADDED000AC0ED010AA0
:10395000DDED030A206AF1EE600AC0ED020A206A7A
:10396000DDED020AC0ED030A206ADDED020AC0EDBA
:10397000060A206ADDED030AC0ED070A206ADDEDC4
:10398000000AC0ED080A206ADDED010AC0ED090A4F
:10399000206ADDED030AC0ED0C0ADDED020A206AA3
:1039A000F1EE600AC0ED0D0A206A80ED0E0A206A71
:1039B0009DED000A80ED0F0A1FBD00009801002058
:1039C0002DE9F04F85B0044604F1800104F1780040
:1039D0000546049104F011FC6C3484F85C00A08965
:1039E000A08734F8120CE0876C3C04F1A80204F1C3
:1039F000580192468946284604F0B0FB823484F888
:103A00004600E08CE08520882086823C04F1B002EC
:103A100093465046049904F0A1FB903484F8380092
:103A20002088208260886082903C04F1A0021546C4
:103A300004F19001584604F023FAB0342076594638
:103A4000284604F037FA2076E06B90ED000A8DED01
:103A5000030A90ED010A8DED020A90ED020A8DED48
:103A6000010A90ED030A8DED000A34F8380C20812C
:103A7000012565819DED020ADDED000A9DED011A2B
:103A8000E06F60EE200A9DED030A40EE410AB0EEC1
:103A9000000A60EE800AC0ED000ADDED030A9DED2C
:103AA000021ADDED001AE06F60EE810A9DED011A49
:103AB00041EE210A20EE800A80ED010A9DED030A05
:103AC000DDED030A9DED021AE06F20EE200ADDED28
:103AD000020AB03C00EEC10ADDED010A9DED011ABB
:103AE00000EEC10ADDED000A9DED001A00EE810A2C
:103AF00080ED020A0027A54ED4F82C0100EB8700C8
:103B000090ED000AB0EEC00A04F076F906EB8700EB
:103B100080ED610A7F1CFFB2032FEDD3B4F848009B
:103B2000A4F8C000A4F8C25004F1C00204F1B80126
:103B30001746884604F1480004F04AFBAA34A077EF
:103B4000E08A24F8020C258052463946584604F093
:103B500005FBA077E581E08A20824146384604F0E3
:103B60004CFBA0778A4A5146404604F0F7FAA0770A
:103B7000AA3C96ED730AB6EE001AD6ED720A20EE54
:103B8000011AF4EEC10AF1EE10FA01D286F83851AA
:103B9000F4EEC00A0020F1EE10FA3CDD96F8381180
:103BA000C1B396F8391149B106F5A07106F5A073B5
:103BB00006C9491C42F1000206C304E00021C6F810
:103BC0004011C6F8441106F5A0724FF0320C0CCA31
:103BD0000021BCEB0202994104D286F8380184F836
:103BE0002C003AE06B4E227B803430884243D4E98B
:103BF0001A01FCF783FC14F8740C10FB00F23088F7
:103C00004243D4E91E01FCF779FC04F8545C05B08A
:103C1000BDE8F08FFFE79FED601A20EE011AF4EE89
:103C2000C10AF1EE10FA0DDD96F8381151B170EEBF
:103C3000600A9FED5A1A20EE010A80EE801A86ED86
:103C4000671A03E0B7EE000A86ED670A0022C6F89D
:103C50004021C6F8442184F82C006C3434F8140C4C
:103C6000A087E08AE08752464846049904F076FA35
:103C700084F85C006C3C04F1980291465946504629
:103C800004F06CFA84F8C80000200DE0D4F81C1190
:103C9000D6ED670A01EB800191ED000A20EE200AC3
:103CA00081ED000A401CC0B2B4F89810B4F89A2014
:103CB00051438142EADC04219FED390A00200A1FAA
:103CC00006EB820C01EB4103D4F81C219CED611A38
:103CD00003EB000A02EB8A0221EE001AD2ED000A81
:103CE00060EE810AC2ED000A401CC0B20328EBD38B
:103CF000491CC9B20629E1D334F8980F20846584A1
:103D000042463946484604F029FA84F83000983C87
:103D100096F8380150B30420DFED220A9FED221AF5
:103D2000D4F8BC1096ED6F0A01EB800120EE200A5A
:103D3000D1ED001AF4EEC01AF1EE10FA01DD81EDBA
:103D4000000AD4F8BC1096ED6F0A01EB800120EE5A
:103D5000010AD1ED001AF4EEC01AF1EE10FA01D208
:103D600081ED000A401CC0B20628D9D3D4F8BC00AB
:103D70009FED0E0A80ED030A04F13002414604F182
:103D8000380004F07DF884F8C80040E7F83A0020D5
:103D9000B83C002098010020CDCCCC3D6666663F43
:103DA00084F9223F0AD7233C0AD723BC0000000035
:103DB00070B506462DED028B8AB00D4600200790A7
:103DC000089009904349D1E90D23C96BCDE904233B
:103DD000069101900290039000249FED3F8A2846AF
:103DE00004F0BAFAB5F90800404200EE100AB8EE45
:103DF000C00AC0EE080A9DED070A30EE800A8DED7C
:103E0000070AB5F90600404200EE100AF8EEC00AB3
:103E100080EE880ADDED080A30EE200A8DED080AF2
:103E2000B5F90A0000EE100AB8EEC00AC0EE080AA2
:103E30009DED090A30EE800A8DED090A0120FDF79B
:103E400075F8641CE4B2642CC9D300209FED230AEA
:103E500007AA02EB8001D1ED000A80EE801A81ED05
:103E6000001A401CC0B20328F3D307A800F0D8FD05
:103E700004A907A8FCF777FD03F062FCB0EE408AC6
:103E800001AA04A907A8FCF7E9FC01A800F0C8FDF5
:103E9000B6EE000A28EE008AB0EE480A03F0DCFC19
:103EA00086ED000A002401ADB0EE480A03F07CFD67
:103EB00005EB8400641CD0ED000A06EB840020EEC4
:103EC000200A80ED000AE4B2022CEDD30AB0BDEC6A
:103ED000028B70BDF0C500080000FD440000C84220
:103EE000F0B500230A2530263727002412E0B5EB71
:103EF000107F04D906EB107C01F813C003E007EB38
:103F0000107C01F813C0000101EB430C8CF8014058
:103F10005B1CDBB29342EAD3F0BD00002DE9F04711
:103F200004460D4690461E46F74F04203880082070
:103F30007880257384F80D80A6734FF0000984F80B
:103F40001090304606F0C8FF60613146FCF710FB68
:103F50003888704306F0C0FFA06139887143FCF7D0
:103F600029FB3888704306F0B7FFE0613988714358
:103F7000FCF720FB3888684306F0AEFF20623988E2
:103F80006943FCF717FB304606F0A6FF6062314636
:103F9000FCF7EEFA3888684306F09EFF2060398807
:103FA0006943FCF707FB3888704306F095FF6060B3
:103FB00039887143FCF7FEFA388800FB08F006F0F8
:103FC0008BFFA060398801FB08F1FCF7F3FA388811
:103FD000684306F081FFC4F8E80039886943FCF7BC
:103FE000E9FA217B012204F13000D4F8E83003F033
:103FF0005CFF3888684306F06FFFC4F8EC0039882E
:104000006943FCF7D7FA217B012204F13800D4F888
:10401000EC3003F04AFFB8F1000F13D0388800FBF2
:1040200008F006F059FFC4F8F000398801FB08F1E8
:10403000FCF7C0FA617B012204F14000D4F8F030B3
:1040400003F033FF3888704306F046FFC4F8F400ED
:1040500039887143FCF7AEFAA17B012204F14800D4
:10406000D4F8F43003F021FF38886843684306F041
:1040700033FFC4F8F800398869436943FCF79AFABA
:10408000217B04F150000A46D4F8F83003F00DFF0C
:1040900038886843684306F01FFFC4F8FC0039887D
:1040A00069436943FCF786FA217B04F158000A460C
:1040B000D4F8FC3003F0F9FE38886843684306F012
:1040C0000BFF8834A06738886843684306F004FF14
:1040D000E0673988A06F69436943FCF76BFA398858
:1040E000E06F69436943FCF765FA14F87C1CA36F21
:1040F000883C0A4604F1600003F0D7FE217B04F1FE
:1041000068000A46D4F8043103F0CFFEB8F1000F7E
:1041100015D03888684300FB08F006F0DDFEC4F8CF
:1041200008013988694301FB08F1FCF743FA627B17
:10413000217B04F17000D4F8083103F0B6FE388812
:104140007043684306F0C8FE9434A067388868431B
:10415000704306F0C1FEE0673988A06F7143694380
:10416000FCF728FA3988E06F69437143FCF722FABB
:1041700014F8882C14F8861CA36F943C04F1780082
:1041800003F093FEA27B217B04F18000D4F8103170
:1041900003F08BFE38886843684306F09DFEC4F840
:1041A0001401398869436943FCF704FA217B04F15F
:1041B00088000A46D4F8143103F077FE388870433B
:1041C000704306F089FEC4F81801398871437143C1
:1041D000FCF7F0F9A17B04F190000A46D4F81831FD
:1041E00003F063FE38886843704306F075FEC4F838
:1041F0001C01398869437143FCF7DCF9A27B217B00
:1042000004F19800D4F81C3103F04FFE207B10FB22
:1042100000F03988484306F05FFEC4F82001217B96
:1042200011FB01F13A885143FCF7C4F9207B10FBE4
:1042300000F03988484306F04FFEC4F82401217B82
:1042400011FB01F13A885143FCF7B4F9207B10FBD4
:1042500000F03988484306F03FFEC4F82801217B6E
:1042600011FB01F13A885143FCF7A4F9207B39880E
:10427000484306F031FEC4F82C01217B3A885143B3
:10428000FCF798F9207B3988484306F025FEC4F8EE
:104290003001217B38884143D4F82C01FCF78AF99E
:1042A000217B04F1A0000A46D4F8203103F0FDFD83
:1042B000217B04F1A8000A46D4F8243103F0F5FD6F
:1042C000217B04F1B0000A46D4F8283103F0EDFD5B
:1042D000217B012204F1B800D4F82C3103F0E5FD74
:1042E000217B012204F1C000D4F8303103F0DDFD60
:1042F00084F8289084F8299084F82A9084F82B90E8
:1043000084F82C90BDE8F087980100207FB5002448
:1043100000940194029403941348124901604FF4ED
:104320008031416084600461047680F82040C4627A
:104330000E498162C4600125C56180F83040456145
:10434000FCF7EEFB08B1FCF721FB0420009001957F
:10435000029469460448FCF737FB002801D0FCF7BB
:1043600015FB7FBD00200140640200200100000F0A
:1043700008B50948016841F400110160006800F4C3
:1043800000100090002205210B20FCF76FFFBDE814
:1043900008400B20FCF75CBF3038024010B5124AD1
:1043A0000021124805F0CAF8114C20600E4A002185
:1043B0002432104805F0C2F860600B4A00214832F0
:1043C0000D4805F0BBF8A060074A00216C320B488D
:1043D00005F0B4F8E060044A00219032084805F086
:1043E000ADF8206110BD000070C50008494E0008FE
:1043F00000000020554E0008FD4E0008494F0008FF
:10440000694E00082DE9F04186B0142101A8FCF79F
:10441000D1F800263048016841F0100101600168C0
:1044200001F010010091016841F080010160016814
:1044300001F080010091016841F001010160016813
:1044400001F001010091016841F00401016001687F
:1044500001F004010091016841F00201016001686E
:1044600001F002010091016841F00801016000685B
:1044700000F008000090DFF86480012230214046FF
:10448000FCF74EFE164F002201213846FCF748FE8D
:10449000012202213846FCF743FE3020019001241E
:1044A000029403940325049501A94046FCF750FDAE
:1044B000019402940396049501A93846FCF748FD3F
:1044C0000220019002940394049501A93846FCF758
:1044D0003FFD06B0BDE8F0813038024000080240E0
:1044E0000004024010B510480E4901604FF482717B
:1044F000416000218160C1600222026101224261AB
:10450000520282611822C2610162416281620A2103
:10451000C162FDF7E3FE002803D0BDE81040FCF7C0
:1045200035BA10BD00300140AC02002010B50F4874
:104530000D4901604FF48271416000218160C160CA
:10454000016141614FF400728261C16101624162A7
:1045500081620A21C162FDF7C1FE002803D0BDE8D7
:104560001040FCF713BA10BD0038004004030020CF
:1045700010B50F480D4901604FF482714160002170
:104580008160C160016141614FF400728261C1616B
:104590000162416281620A21C162FDF79FFE00282B
:1045A00003D0BDE81040FCF7F1B910BD003C00405D
:1045B0005C03002010B58EB000240A940B940C9478
:1045C0000D94089409941C2101A8FBF7F3FF2548DA
:1045D0004FF08041016044608460611EC1600461ED
:1045E0008461FEF703FA08B1FCF7D0F94FF480506C
:1045F0000A900AA91B48FEF7EBFA08B1FCF7C6F9C6
:104600001848FEF7DCFC08B1FCF7C0F908940994DF
:1046100008A91448FEF7A2F908B1FCF7B7F9602021
:104620000190029403940594002201A90D48FEF71D
:104630005AFC08B1FCF7AAF9042201A90948FEF7BF
:1046400052FC08B1FCF7A2F9082201A90548FEF7BF
:104650004AFC08B1FCF79AF90248FEF7E5FB0EB0F8
:1046600010BD0000B403002010B58EB000240A94E1
:104670000B940C940D94089409941C2101A8FBF749
:1046800099FF2A482849016029214160846041F24C
:104690008731C16004618461FEF7A8F908B1FCF7B5
:1046A00075F94FF480500A900AA92048FEF790FA55
:1046B00008B1FCF76BF91D48FEF781FC08B1FCF767
:1046C00065F90894099408A91848FEF747F908B154
:1046D000FCF75CF960200190029403940594002299
:1046E00001A91248FEF7FFFB08B1FCF74FF90422BD
:1046F00001A90E48FEF7F7FB08B1FCF747F90822BD
:1047000001A90A48FEF7EFFB08B1FCF73FF90C22BC
:1047100001A90648FEF7E7FB08B1FCF737F90348A3
:10472000FEF782FB0EB010BD00080040FC03002025
:1047300010B586B000240294039404940594009468
:104740000194144812490160292141608460611E6E
:10475000C160046180218161FEF748F908B1FCF76E
:1047600015F94FF48050029002A90A48FEF730FA7A
:1047700008B1FCF70BF90094019469460548FEF76F
:10478000EDF8002801D0FCF701F906B010BD0000DB
:10479000000C00404404002010B58CB000240894A4
:1047A00009940A940B941C2101A8FBF703FF1D48F0
:1047B0001B490160446084604FF6FF71C160046171
:1047C0008461FEF713F908B1FCF7E0F84FF480506C
:1047D000089008A91348FEF7FBF908B1FCF7D6F8D2
:1047E0001048FEF7ECFB08B1FCF7D0F86020019010
:1047F000029403940594002201A90A48FEF773FB72
:1048000008B1FCF7C3F8042201A90648FEF76BFBC8
:1048100008B1FCF7BBF80348FEF706FB0CB010BD6F
:10482000004001408C04002010B50C480A4901608A
:104830004FF4E131416000218160C16001610C22CF
:1048400042618161C161FEF787FD002803D0BDE8A8
:104850001040FCF79BB810BD004C0040D404002071
:1048600010B50D480B4901600C4941600021816081
:104870004FF40052C26001610C2242618161C1614A
:10488000FEF76AFD002803D0BDE81040FCF77EB8B3
:1048900010BD00000050004018050020A086010057
:1048A00010B50C480A4901604FF4E1314160002124
:1048B0008160C16001610C2242618161C161FEF7CA
:1048C0004BFD002803D0BDE81040FCF75FB810BDD9
:1048D000001001405C05002010B50C480A49016039
:1048E0004FF4E131416000218160C16001610C221F
:1048F00042618161C161FEF72FFD002803D0BDE850
:104900001040FCF743B810BD00440040A005002053
:1049100010B50C480A4901604FF4E13141600021B3
:104920008160C16001610C2242618161C161FEF759
:1049300013FD002803D0BDE81040FCF727B810BDD8
:1049400000480040E405002010B50C480A49016009
:104950004FF4E131416000218160C16001610C22AE
:1049600042618161C161FEF7F7FC002803D0BDE818
:104970001040FCF70BB810BD0014014028060020C1
:1049800010B500220F49104801F002FC08B1FBF7F6
:10499000FDFF0E490C4801F049FE08B1FBF7F6FF98
:1049A0000B49094801F0C0F808B1FBF7EFFF0648D2
:1049B00001F012FF002803D0BDE81040FBF7E6BF6E
:1049C00010BD00001400002014070020E4000020A7
:1049D000640000200F48DFED0E0AC0ED010AB7EEBB
:1049E000001A80ED021ADFED0C0AC0ED030AC0EDDB
:1049F000040AC0ED050AC0ED060AC0ED070AC0EDC5
:104A0000080A00210170C1EE000AC0ED090A7047D2
:104A1000CDCCCC3E4801002000000000FEE7FEE7C0
:104A200000B590ED000AD0ED010A20EE000A00EE7C
:104A3000A00AD0ED020A00EEA00A00F0D5F9D0EDF0
:104A4000000A80EE801A80ED001AD0ED010A80EE97
:104A5000801A80ED011AD0ED020A80EE801A80EDF6
:104A6000021A00BD0148FCF784BD0000101E0020A2
:104A700070B504462068056C00EB4110D0F8081BA7
:104A80000C4EB54205D9090403D54FF40041C0F8D6
:104A9000081B2046FDF7E1F8B54208D92069012836
:104AA00005D104F2C4420121206802F0ADFA0020D1
:104AB00070BD00000A30544F2DE9F04105460C4608
:104AC0002E68306C06EB4411D1F8083BD5F8108005
:104AD0004FF400474FF0200C05F2C442B8F1010F2B
:104AE00008D0DFF8B080404545D118043AD5C1F868
:104AF000087B4CE0284E5FEA037806D5B04246D9E1
:104B0000180444D5C1F8087B41E05FEA836802D508
:104B1000C1F808CB3BE013F0280F38D1B04204D9DC
:104B2000180402D5C1F8087B31E004EBC40005EBA2
:104B3000800000F51F70D1F8101BC369C1F312018A
:104B4000591A016224B983693BB1026911440161B8
:104B5000E1B22846FCF7EFFB19E00121286802F0DA
:104B600053FAF5E7980601D5C1F808CBE1B228461B
:104B7000FCF7E1FB0BE034B9D5F8940218B9002139
:104B8000304602F041FAE1B22846FCF7D4FB00209F
:104B9000BDE8F0810A31544F0A30544F2DE9F84FE7
:104BA00080460E46D8F8007006EBC60008EB80047D
:104BB0003C34A169206A884202D90120BDE8F88FFF
:104BC000081AE168814200D20846C01C4FEA900AE8
:104BD00007EB461916E0151AE268AA4200D21546FC
:104BE000E81C4FEA900A98F810000090ABB2F2B2BD
:104BF0003846216902F044FD206928442061206A7A
:104C000028442062D9F8180980B2504505D3A2691A
:104C1000206A904201D2002ADDD1216AA06988422F
:104C200008D806F00F0101208840D7F834188143D6
:104C3000C7F834180020C1E7F8B504464FF4827570
:104C400060684FF48063A8420AD1A068B0F5004FB5
:104C500001D0984204D12068066826F0400606601C
:104C60006068A8421ED1A06898420DD00B46009201
:104C700000228021204600F053F808B3606D40F018
:104C8000200060650320F8BD0B4600920022012140
:104C9000204600F045F898B1606D40F02000606556
:104CA0000320F8BD0B46009200220121204600F0AF
:104CB00037F828B1606D40F0200060650320F8BD32
:104CC0000020F8BD7CB504461348144D0068B0FBC5
:104CD000F5F04FF47A75684301906068B0F5827F13
:104CE0000DD10B46009200228021204600F018F8DA
:104CF00078B1606D40F02000606503207CBD0198B4
:104D000038B10198401E019020688068C0430006B9
:104D1000F5D500207CBD00008400002000366E0127
:104D20002DE9F84304460F4691461E46089DFCF7C0
:104D3000FFF9401B351AFCF7FBF98046264800684E
:104D4000C0F3CB30684300903AE0701C38D0FCF7D9
:104D5000EFF9A0EB0800A84203D215B1009858B3B0
:104D60002BE02068416821F0E00141606068B0F507
:104D7000827F0BD1A068B0F5004F02D0B0F5806FF4
:104D800004D12068016821F040010160A06AB0F5FB
:104D9000005F09D12068016821F40051016020689A
:104DA000016841F40051016001205034607000201E
:104DB00020700320BDE8F88300250098401E009075
:104DC0002068806837EA000004D000204845BCD144
:104DD0000020EFE70120F9E7840000200178407807
:104DE00041EA002070470000B0EE401AB5EEC01A4C
:104DF000F1EE10FA02D89FED120A7047B6EE000AE3
:104E000021EE000ADFED0F0A61EE201AF0EE002A13
:104E1000B1EE612AF0EE410A50EE000A60EE223A4D
:104E200080EEA33A30EE430AF4EEE10AF1EE10FA16
:104E3000F0DCF4EEC20AF1EE10FAEBD3704700009A
:104E4000000000006F12833AFFF79AFD0120FCF783
:104E50006DF8FBE708B506F081FE00900121684679
:104E600006F072F9FAE700009EB006F077FE1D909A
:104E700002F06AFF1D4E1E4C1AAD1BAF0DF150081B
:104E8000162231466846FBF7F4FA184922220C39FB
:104E900007A8FBF7EEFA07A916480EC905F0C0FEF1
:104EA0000A21154805F020FE1349124803F018FAAC
:104EB000B4F91A1000EE101AB8EEC00A8DED1B0AF4
:104EC00094ED0A0A8DED1A0A2946384602F022FFAF
:104ED000242241466846FBF711FB10A80FC805F0D5
:104EE00069F90A211DA806F02FF9C9E7483A002000
:104EF00030020020A43A00208A01002008B506F004
:104F00002DFE00900E4CE08800EE100AA088F8EE0E
:104F1000401A00EE100A6088B8EE401A00EE100A3F
:104F20002088F8EE400A00EE100A0648B8EE400A63
:104F300004F0B4FA0521684606F006F9E3E700003C
:104F4000820100208A0100202DED028B8CB006F03A
:104F500005FE0B901C2104A8FBF72CFB9FED380AE3
:104F6000FFF738FD0020009001900290039000248C
:104F700004A803F0F1F90220FBF7D8FF641C642CAD
:104F8000F6DB04A96846FEF713FFDFED2E2A9FED3E
:104F90002E2AF7EE001A9FED2D1ADFED2D0AB2EE44
:104FA000040A6846FEF716FC2B4C2A4D04F1240631
:104FB0009FED2A8A371FF3EE098A04F10C0804F1E9
:104FC0000809012211462846FCF7AAF804A803F0B4
:104FD000C3F93146384605F0F1FCBDF9220000EE78
:104FE000100AF8EEC00AB0EE680A00EE880A84EDF6
:104FF000040ABDF818004042A082BDF816004042E5
:10500000E082BDF81A002083BDF81E004042608394
:10501000BDF81C004042A083BDF820004042E08360
:1050200043464A46211D0C4804F068F8002201213D
:105030002846FCF775F803210BA806F085F8C0E7B1
:105040000000FA43000000006F12033B8096184BEB
:105050006F12833A00040240300200200000003C3E
:1050600010B54FF0E020006906F06AFD012803D07A
:10507000BDE8104006F084BA10BD000030B593B012
:10508000302107A8FBF796FA142102A8FBF792FA41
:1050900000251D48016841F080510160006800F062
:1050A000805001901948016841F480410160006816
:1050B00000F4804001900120079000040890022431
:1050C0000D9480010E9006200F90A820109011944E
:1050D0000720129007A8FCF721FF08B1FBF756FC48
:1050E0000F200290039404954FF4A05005904FF4C4
:1050F00080500690052102A8FCF7F0FD002801D0A1
:10510000FBF744FC13B030BD403802400070004053
:105110000248016841F470010160704788ED00E0C9
:105120000148FDF7CABD0000440400200148FDF716
:10513000C4BD0000CC0600202DE9F0410268264DD8
:10514000264E274FDFF89CC0274B4FF08048A842DF
:1051500009D0404507D0B04205D0B84203D06045E1
:1051600001D0984203D122F070044A682243A84239
:105170001BD0404519D0B04217D0B84215D0604579
:1051800013D0984211D0194CA0420ED0184CA04216
:105190000BD0184CA04208D0174CA04205D0174C99
:1051A000A04202D0164CA04203D122F44074CA6837
:1051B00022434C6922F08002224302608A68C26264
:1051C0000A688262A84201D0984201D1096901634C
:1051D00001214161BDE8F081000001400004004070
:1051E00000080040000C0040000401400040014065
:1051F000004401400048014000180040001C0040ED
:105200000020004010B501F01F0101238B40046A0B
:105210009C430462036A8A401343036210BD10B5C5
:10522000846824F47F4442EA03220A4322438260D2
:1052300010BD826822F070020A4342F007018160CB
:1052400070470000F0B5026A22F001020262026AB1
:105250004368846924F0700424F003050C682C432F
:1052600022F002058A682A430E4E0F4FB04201D049
:10527000B84205D122F00805CA682A4322F0040288
:10528000B04201D0B84207D123F4807323F40073F5
:105290004D691D438B692B434360846149684163B9
:1052A0000262F0BD0000014000040140F0B5026A56
:1052B00022F010020262036A4268846924F4E04426
:1052C00024F440740D6844EA052423F020038D681B
:1052D00043EA0513104D114EA84201D0B04206D149
:1052E00023F08003CF6843EA071323F04003A8426A
:1052F00001D0B04209D122F4806222F400624D69EB
:1053000042EA85028D6942EA850242608461496809
:1053100081630362F0BD0000000001400004014011
:10532000F0B5026A22F480720262026A4368C469BC
:1053300024F0700424F003050C682C4322F400725E
:105340008D6842EA0522104D104EA84201D0B042AD
:1053500006D122F40062CF6842EA072222F480627A
:10536000A84201D0B04209D123F4805323F4005362
:105370004D6943EA05138D6943EA05134360C4612F
:105380004968C1630262F0BD0000014000040140B1
:1053900030B5026A22F480520262046A4268C3692C
:1053A00023F4E04323F440730D6843EA052324F417
:1053B00000548D6844EA0534084DA84202D0084DD7
:1053C000A84204D122F480424D6942EA851242602B
:1053D000C36149680164046230BD000000000140FF
:1053E0000004014010B5036A046A24F00104046259
:1053F000846924F0F00444EA021423F00A020A4308
:105400008461026210BD10B5036A23F010030362C9
:105410008469036A24F4704444EA023223F0A0034E
:1054200043EA01118261016210BD000008B509481C
:10543000FDF768FE074800680168C943C90607D43C
:10544000016840680090BDE808400248FDF76EBF63
:1054500008BD00001805002010B5806B0021C18533
:10546000C184FDF74DFE10BD01680C3151E8002FDD
:1054700022F4907241E80023002BF5D10168143129
:1054800051E8002F22F0010241E80023002BF5D162
:10549000016B012909D101680C3151E8002F22F07C
:1054A000100241E80023002BF5D1202180F83E10A6
:1054B00000210163704710B50168CA6822F04002FC
:1054C000CA60202180F83D10FEF7B6F8002010BD1C
:1054D00008B590F83E10222901D0022008BD82684C
:1054E0004FF480539A4201D1016921B1816A9A42F5
:1054F0001DD052B10BE0816A02685268C2F3080203
:105500000A80816A891C816209E002697AB10268B5
:10551000526802F07F020A70816A491C8162C18D63
:10552000491E0904090CC18505D0002008BD026888
:1055300052680A70F0E70168CA6822F02002CA6067
:105540000168CA6822F48072CA6001684A6922F060
:1055500001024A61202180F83E10016B012903D02D
:10556000FEF769F8002008BD0021016301680C31D5
:1055700051E8002F22F0100241E80023002BF5D162
:1055800001680A68D20602D50A6849680091818DCF
:10559000FDF7B5FDE6E700002DE9F041044620687F
:1055A0000169E26821F4405111430161A168206959
:1055B000E26901436069104301432068C26849F20F
:1055C0000C639A430A43C26020684169A26921F4CE
:1055D00040711143416133492068884202D0324909
:1055E000884202D1FCF754FC01E0FCF741FCE16980
:1055F0000023192764253226B1F5004F28D06168B1
:105600008B0F8A00A0FB0701FAF7BCFE0146B0FB36
:10561000F5F07A42504301EB800006EB0010B0FB3E
:10562000F5F000F0F002B1FBF5F002EB0012B1FB77
:10563000F5F07B42584301EB800006EB0010B0FB15
:10564000F5F0216800F00F0010448860BDE8F0819B
:1056500061684A18A0FB07015B41FAF793FE014617
:10566000B0FBF5F00201B1FBF5F06FF01803584301
:1056700001EB800006EBC000B0FBF5F000F0F80095
:1056800002EB4002B1FBF5F0584301EB800006EB62
:10569000C000B0FBF5F0216800F0070010448860FE
:1056A000D4E70000001001400014014081628285AF
:1056B000C28500210164222280F83E2080F83C103F
:1056C0000169002904D00168CA6842F48072CA6086
:1056D00001684A6942F001024A610068C16841F00C
:1056E0002001C1600020704790F83D10212901D0B1
:1056F000022070478168B1F5805F01D1016961B115
:10570000016A4A1C0262026809785160C18C491E14
:105710000904090CC1840AD013E0016A02680988EF
:10572000C1F308015160016A891C0162EEE701685A
:10573000CA6822F08002CA600068C16841F0400176
:10574000C160002070472DE9F0410E46D0F8C82214
:10575000D0F8D41200EB8101D1F8C012002925D075
:1057600006F00F0303EB830400EB84040027A56914
:105770004DB103EBC30302EB8302936CB5FBF3F271
:1057800003FB1252A2B1C1F81472D0F8D42200EB7C
:105790008200D0F8C40203692BB1D1F80802324666
:1057A00001F5047198470020BDE8F0810320FBE774
:1057B000A76100231A46314600F016FFF3E770B5E3
:1057C0000546D5F8D40205EB8000D0F8C042002C85
:1057D00012D0284600F0E7FDC4F80C02D5F8D41228
:1057E000D4F8040205EB8101D1F8C412CA6804F5AB
:1057F00003719047002070BD032070BD70B5044652
:10580000224D2046297800F0E0FC2878002600F0A0
:105810000F0000EB800004EB80008684697820464E
:1058200000F0D3FC687800F00F0000EB800004EB80
:105830008000A0F86461A978204600F0C6FCA87832
:1058400000F00F0000EB800004EB80008684C6842B
:10585000D4F8D40204EB8000D0F8C01299B1D0F88B
:10586000C40240688047D4F8D40204EB8000D0F82A
:10587000C00201F045F9D4F8D40204EB8000C0F86E
:10588000C062C4F8BC62002070BD0000900000201F
:1058900010B5D0F8D41200EB8100D0F8C042002C33
:1058A00010D0D0F8C41259B194F80002FF2807D0E4
:1058B0008B6894F8012221469847FF2084F8000263
:1058C000002010BD032010BD0A2101800048704750
:1058D0009400002070B5064682210C4800F0DBFBE6
:1058E00005460121094800F0D6FB044681210748FE
:1058F00000F0D1FB0DB11021A971402104B1A180AC
:1059000000B1818043203080004870BDA00000209D
:1059100070B5064682210D4800F0BDFB0546012109
:105920000A4800F0B8FB04468121084800F0B3FBA8
:105930000DB11021A9714FF4007104B1A18000B123
:10594000818043203080014870BD0000A00000200D
:1059500070B5064682210C4800F09DFB05460121EA
:10596000094800F098FB04468121074800F093FBAA
:105970000DB11021A971402104B1A18000B1818035
:1059800043203080004870BDA00000202DE9F04782
:1059900004464FF40776304601F0B4F805464FF060
:1059A0000008002D64D031462846FAF703FED4F8EB
:1059B000D40204EB8000C0F8C052C4F8BC52207C72
:1059C000484E4FF010094FF4007A0127F0B34023FE
:1059D00002223178204600F055FD307800F00F00AB
:1059E00000EB800004EB8000878440230222717862
:1059F000204600F047FD707800F00F0000EB8000BB
:105A000004EB8000A0F86471B07800F00F0000EBA8
:105A1000800004EB8000A0F8269008230322B178D0
:105A2000204600F02FFDB07800F00F0000EB800062
:105A300004EB80008784C5F80482D4F8D40204EB18
:105A40008000D0F8C4020068804700E018E0C5F884
:105A50001482C5F81882D5F80422C2B3207CB8B3EA
:105A600040237178204600F019FD0020BDE8F08742
:105A7000D4F8D40204EB8000C0F8C0820220F5E71D
:105A8000534602223178204600F0FCFC307800F0CA
:105A90000F0000EB800004EB800087845346022255
:105AA0007178204600F0EEFC707800F00F0000EBFB
:105AB000800004EB8000A0F86471B07800F00F0063
:105AC00000EB800004EB8000A0F82690A5E700E042
:105AD00001E00220CAE753467178204600F0DEFC60
