:020000040800F2
:10000000F0430020450300087F5300086D360008C8
:100010007D530008CD070008FD7E000800000000A9
:100020000000000000000000000000008502000841
:10003000E108000800000000E1020008255900085E
:100040005F0300085F0300085F0300085F03000808
:100050005F0300085F0300085F0300085F030008F8
:100060005F0300085F0300085F0300083108000811
:100070005F0300085F0300085F0300085F030008D8
:100080005F0300085F0300085F0300085F030008C8
:100090005F0300085F0300085F0300085F030008B8
:1000A0005F0300085F0300085F0300085F030008A8
:1000B0005F0300085F0300085F0300085F03000898
:1000C0005F0300085F0300085F0300085F03000888
:1000D0005F0300085F0300085F0300085F03000878
:1000E0005F0300085F0300085F0300085F03000868
:1000F0005F030008F15900085F0300085F03000870
:100100005F0300085F030008E55900085F0300086B
:100110005F030008D55C00085F0300085F03000868
:100120005F0300085F0300085F0300085F03000827
:100130005F0300085F0300085F0300085F03000817
:100140005F0300085F0300085F0300088153000895
:100150005F0300085F0300085F0300085F030008F7
:100160005F0300085F0300085F0300085F030008E7
:100170005F0300085F0300085F0300080000000041
:100180005F0300085F03000800F002F800F06AF85F
:100190000AA090E8000C82448344AAF10107DA45E2
:1001A00001D100F05FF8AFF2090EBAE80F0013F0CA
:1001B000010F18BFFB1A43F001031847A0CA000043
:1001C000F0CA00000A444FF0000C10F8013B13F095
:1001D000070408BF10F8014B1D1108BF10F8015BA0
:1001E000641E05D010F8016B641E01F8016BF9D193
:1001F00013F0080F1EBF10F8014BAD1C0C1B09D1EA
:100200006D1E58BF01F801CBFAD505E014F8016B5B
:1002100001F8016B6D1EF9D59142D6D370470000ED
:10022000103A24BF78C878C1FAD8520724BF30C822
:1002300030C144BF04680C607047000000230024F4
:1002400000250026103A28BF78C1FBD8520728BFE6
:1002500030C148BF0B6070471FB50CF002F81FBDDE
:1002600010B510BD00F0E5F91146FFF7F5FF09F0F4
:100270002DFB00F003FA03B4FFF7F2FF03BC00F01C
:1002800007FA00002C4B19680868B0E8F04F80F3BB
:100290000988BFF36F8F4FF0000080F3118870471B
:1002A0000000000008480068006880F308884FF0EC
:1002B000000080F3148862B661B6BFF34F8FBFF3BE
:1002C0006F8F00DF00BF00BF08ED00E0DFF80C001B
:1002D000016841F470010160704700BF88ED00E0E3
:1002E000EFF30980BFF36F8F134B1A681EF0100FE6
:1002F00008BF20ED108A20E9F04F106009B44FF0DC
:10030000500080F31188BFF34F8FBFF36F8F0AF057
:10031000AFFE4FF0000080F3118809BC196808682F
:10032000B0E8F04F1EF0100F08BFB0EC108A80F359
:100330000988BFF36F8F704700000010EFF305804E
:10034000704700000948804709480047FEE7FEE77C
:10035000FEE7FEE7FEE7FEE7FEE7FEE7FEE7FEE775
:1003600004480549054A064B70470000D559000866
:1003700089010008F03D0020F0430020F03F0020FC
:10038000F03F002053EA020C00F069802DE9F04BA9
:100390004FF00006002B1FBFB3FA83F503FA05F4F4
:1003A00024FA05F65E4012BF1643B2FA82F502FA4D
:1003B00005F4C5F120051EBF22FA05FC44EA0C0431
:1003C000203556EA044C4FEA144418BF641C4FF021
:1003D00000084FF00009904271EB030C39D300295B
:1003E00019BFB1FA81F701FA07F6B0FA80F700FAFF
:1003F00007F6C7F120071EBF20FA07FC46EA0C06E5
:100400002037B6FBF4FCA7EB0507103F07F01F0BE6
:10041000CBF120060CFA0BFB2CFA06F644BFB346D0
:100420000026202FA4BF5E464FF0000B5BEA060CAF
:1004300008BF4FF0010B19EB0B09ABFB027C48EB3B
:100440000608C01B06FB02CC0BFB03CC71EB0C01B6
:10045000C1E70B46024641464846BDE8F08B13B55E
:100460004FF000004FF00001AFF30080BDE81C40EA
:100470007047032A40F2308010F0030C00F0158022
:1004800011F8013BBCF1020F624498BF11F801CB97
:1004900000F8013B38BF11F8013BA2F1040298BFFC
:1004A00000F801CB38BF00F8013B11F0030300F066
:1004B0002580083AC0F0088051F8043B083A51F80A
:1004C00004CBA0E80810F5E7121D5CBF51F8043B0F
:1004D00040F8043BAFF30080D20724BF11F8013B82
:1004E00011F801CB48BF11F8012B24BF00F8013BE4
:1004F00000F801CB48BF00F8012B704710B5203A37
:10050000C0F00B80B1E81850203AA0E81850B1E8CC
:100510001850A0E81850BFF4F5AF5FEA027C24BF82
:10052000B1E81850A0E8185044BF18C918C0BDE879
:1005300010405FEA827C24BF51F8043B40F8043B42
:1005400008BF7047D20728BF31F8023B48BF11F8F7
:10055000012B28BF20F8023B48BF00F8012B704751
:1005600002F0FF0343EA032242EA024200F002B82B
:100570004FF000020429C0F0128010F0030C00F0CC
:100580001B80CCF1040CBCF1020F18BF00F8012B4A
:10059000A8BF20F8022BA1EB0C0100F00DB85FEA18
:1005A000C17C24BF00F8012B00F8012B48BF00F8E4
:1005B000012B70474FF0000200B513469446964653
:1005C000203922BFA0E80C50A0E80C50B1F1200166
:1005D000BFF4F7AF090728BFA0E80C5048BF0CC014
:1005E0005DF804EB890028BF40F8042B08BF704772
:1005F00048BF20F8022B11F0804F18BF00F8012BE4
:10060000704770477047704710B500F00DF80068EC
:1006100010BD10B5044600F007F8046010BD0000DE
:1006200000487047903D002000487047903D0020F2
:1006300070477546FFF7F4FFAE460500694653461E
:1006400020F00700854618B020B5FFF789FEBDE809
:1006500020404FF000064FF000074FF000084FF029
:10066000000B21F00701AC46ACE8C009ACE8C009BA
:10067000ACE8C009ACE8C0098D46704710B5044627
:10068000AFF300802046BDE81040FFF7F4BD000046
:1006900001491820ABBEFEE7260002004A494A681D
:1006A00022F440324A604A6843681A434A6001684B
:1006B0004A6822F480724A6001684A68036942EA23
:1006C00003224A6001684A6822F040724A60016869
:1006D0004A6883681A434A6001688A6822F40062A3
:1006E0008A6001688A68C3681A438A60816A6FF009
:1006F0007062D14214D001688A6822F070628A6008
:1007000001688A68836A1A438A6001688A6822F0ED
:1007100040528A6001688A68C36A1A438A6009E0A5
:1007200001688A6822F070628A6001688A6822F033
:1007300040528A6001688A6822F002028A60016879
:100740008A68037E42EA43028A6090F8201089B1E9
:1007500001684A6842F400624A6001684A6822F40B
:1007600060424A6001684B68426A521E43EA423264
:100770004A6004E001684A6822F400624A60016845
:10078000CA6A22F47002CA620168CB6A828B521E66
:1007900043EA0252CA6201688A6822F400728A60DF
:1007A00001688A6890F8303042EA43228A60016822
:1007B0008A6822F480628A6001688A68406942EA35
:1007C000802088607047000000230140FEE7042875
:1007D0004FF00000704700207047000010B5002265
:1007E0000449054805F00EFE0449034805F0FCFDE8
:1007F000002010BD6C140020900700206C0C00201D
:1008000070B505460C462946064805F0EDFD05483D
:1008100005F0BEFD218804488AB2294607F06FFB27
:10082000002070BD9007002000C00120002070470C
:10083000014800F007BA0000E80600200168CAB2CB
:10084000103A1823B2FBF3F2064B9B5CC3656FF3BF
:100850000901032A02D9091D816500E08165806DC7
:10086000704700009CC2000810B5014600208A6A4B
:100870008B694FF0C074002B0ED0B3F5005F1AD017
:1008800062B3012A2AD0022A28D0032A03D1C96AD6
:10089000C90100D5012010BD1AB1012A06D0022AD3
:1008A000F9D1C96AC901F6D5012010BDC96AA142B2
:1008B000FBD1012010BD52B1012A0AD0022A06D074
:1008C000032AF7D1C96AA142F4D1012010BD012049
:1008D00010BDC96AC901FBD5012010BD012010BDA2
:1008E0007047000010B5174C154820600021C16109
:1008F00001620D200AF0ECF82168087604E00D2072
:100900000AF0E6F8216808762068007E1028F6D103
:1009100009F0F8FE1022802100200AF051F8082288
:10092000114601200AF04CF803200AF0FDF8206877
:10093000007E102801D0002010BD012010BD000055
:10094000B43A00202001002072B6FEE710B50B4833
:100950000168001D0468001D0068084400280BD0D1
:100960000822074903F03EFC054920460422BDE861
:100970001040103103F036BC10BD0000107AFF1F8C
:100980003E00002078B50024009490F83C20012A15
:1009900019D0012280F83C200A680725092A14D9B9
:1009A0000368DE680A3A02EB42029540AE43DE601D
:1009B0000A788B680A3A02EB420293400268D568D3
:1009C0002B43D36011E0022078BD03681E6902EB5F
:1009D00042029540AE431E610A788B6802EB4202E8
:1009E0009340026815692B4313614A681F25072A43
:1009F00013D203685E6B521E02EB82029540AE4337
:100A00005E630A8893B20A79521E02EB8202934017
:100A10000268556B2B43536328E00D2A13D20368F9
:100A20001E6BD21F02EB82029540AE431E630A8802
:100A300093B20A79D21F02EB820293400268156BCF
:100A40002B43136312E00368DE6A0D3A02EB820265
:100A50009540AE43DE620A8893B20A790D3A02EB02
:100A6000820293400268D56A2B43D362174A184B1F
:100A700005689D4206D10D68122D03D1556845F4D5
:100A80008005556005689D421BD10B68102B01D075
:100A9000112B16D1536843F40003536009681029E1
:100AA0000FD10C490C4A0968B1FBF2F101EB81014D
:100AB0004900009102E00099491E00910099002927
:100AC000F9D180F83C40002078BD000000230140AF
:100AD000002001407800002040420F0070B504461D
:100AE0000026002C03D0206C002510B107E0012067
:100AF00070BD204600F01CF8656484F83C50206C02
:100B0000C00610D4206C20F4885040F0020020640D
:100B10002046FFF7C3FD6564206C20F0020040F022
:100B20000100206400E0012684F83C50304670BD8E
:100B300010B586B00446142101A8FFF73BFD11490A
:100B4000206888421CD100210F48026842F480725C
:100B50000260006800F4807000900B48143802684E
:100B600042F001020260006800F0010000901020D5
:100B7000019003200290039101A9044800F0C6F9F6
:100B800006B010BD00200140443802400000024081
:100B90002DE9F0410446A76D00F0A8FA054694F847
:100BA00035000026022806D08020606584F8346075
:100BB0000120BDE8F0812068016821F01601016084
:100BC0002068416921F080014161206C08B9A06C66
:100BD00020B12068016821F00801016020680168E7
:100BE00021F0010101600BE000F080FA401B0528B4
:100BF00006D9202034342062032060702670D8E7A4
:100C000020680068C007EFD134343F2094F82810E2
:100C10008840B8600120607026700020C9E790F815
:100C20003510022903D0802141650120704705213C
:100C300080F835100068016821F001010160002092
:100C4000704700002DE9F84304464FF00009CDF845
:100C500000906F484FF416510068B0FBF1F7A56D96
:100C60002E6894F85C00082202FA00F1314210D09C
:100C70002068016849070CD5016821F00401016072
:100C800094F85C0002FA00F1A960606D40F0010088
:100C9000606594F85C104FF0010808FA01F03042EA
:100CA00008D021684969090604D5A860606D40F044
:100CB0000200606594F85C1004208840304208D03F
:100CC00021680968890704D5A860606D40F00400B8
:100CD000606594F85C1010208840304220D0216874
:100CE000096809071CD5A8602068016849030CD56C
:100CF0000068000304D4216C91B1204688470FE0BE
:100D0000A16C69B1204688470AE00168C90503D48F
:100D1000016821F008010160216C09B12046884773
:100D200094F85C102020884030424CD0216809683B
:100D3000C90648D5A86094F8350005280BD020686E
:100D40000168490330D50068000328D4616C51B3B1
:100D50002046884737E02068016821F016010160CD
:100D60002068416921F080014161206C08B9A06CC4
:100D700020B12068016821F00801016094F85C103E
:100D80003F208840A86084F8358084F83490216D35
:100D900000293BD001B02046BDE8F0430847E16B95
:100DA00009B1204688470EE00168C90507D40168EB
:100DB00021F01001016084F8358084F83490E16BF3
:100DC00009B120468847606D00281FD0606DC007BC
:100DD00014D0052084F835002068016821F0010155
:100DE00001600098401C0090B84203D82068006859
:100DF000C007F6D184F8358084F83490E16C00297E
:100E000004D001B02046BDE8F0430847BDE8F883B0
:100E1000780000202DE9F041044600F067F905460E
:100E20005CB1022084F83500002684F83460206824
:100E3000016821F0010101600DE00120BDE8F081B1
:100E400000F054F9401B052805D9202060650320D7
:100E500084F83500F2E720680068C007F0D1216807
:100E60000A6820480240D4E901031843D4E9033555
:100E70002B43184363691843A3691843E369184374
:100E8000236A18431043626A042A03D1D4E90B236E
:100E90001A43104308602068406920F00700656A23
:100EA00029460543012704290DD1A06A0543E06ABC
:100EB00048B12046FFF7D8FC28B14020606584F88F
:100EC00035700120BAE7206845612046FFF7B6FC7F
:100ED00094F85C203F2191408160666584F835700C
:100EE0000020ABE73F8010F070B5044600F0FEF83C
:100EF0000546601C02D004480078044400F0F6F86F
:100F0000401BA042FAD370BD6C0000202DE9F84FC1
:100F10000022DFF89C914FF0010803274FF00F0CDF
:100F200009F1040AA9F1040B08FA02F50B682B4039
:100F3000AB426ED10C7904F00304012C01D0022CD9
:100F400015D18668540007FA04FE26EA0E06D1F889
:100F50000CE00EFA04FE4EEA060EC0F808E0446803
:100F6000AC430D79C5F300159540254345600C79D8
:100F7000E443A40708D0C568540007FA04F6B54353
:100F80008E68A6402E43C6600C7904F00304022C40
:100F900011D1D40800EB8406356A5407E40E0CFA2C
:100FA00004FE25EA0E05D1F810E00EFA04FE4EEA22
:100FB000050EC6F820E00568540007FA04F6B543AC
:100FC0000E7906F00306A6402E4306604C6814F422
:100FD000403F67D0374C256845F48045256024683C
:100FE00004F480440094344C22F003052E19D6F802
:100FF000085894074FEA147E0CFA0EF4A5432F4CC0
:10100000A04201D1002424E02D4CA04202D10124B1
:101010001FE047E02B4CA04201D1022419E02A4CEA
:10102000A04201D1032414E0284CA04201D10424A1
:101030000FE0274CA04201D105240AE0254CA04234
:1010400001D1062405E0244CA04201D1072400E090
:10105000082404FA0EF42C43C6F80848D9F80040D6
:101060009C434D68ED0200D51C43C9F80040DAF8F6
:1010700000409C434D68AD0200D51C43CAF80040B7
:10108000DBF800409C434D68AD0300D51C43CBF812
:101090000040074D083D2C689C434E68F60300D580
:1010A0001C432C60521C102AFFF43EAFBDE8F88FA1
:1010B000083C01404438024000300140000002403A
:1010C0000004024000080240000C024000100240F0
:1010D0000014024000180240001C0240002A01D007
:1010E0008161704709048161704700000148806890
:1010F000704700006C0000200248816802781144AB
:10110000816070476C00002010B50B48016841F405
:1011100000710160016841F480610160016841F47F
:1011200080710160032000F09FF80F2000F006F8A6
:1011300000F050F8002010BD003C024030B587B0F0
:10114000054600241E48016841F480710160006872
:1011500000F48070009001A902A800F043FE0598F9
:10116000A8B100F063FE40001649B0FBF1F1491E42
:101170001648154A026040F2E732C26041600461DD
:101180008460846101F010FC04461CB115E000F09D
:101190004DFEE9E70D4801F0B3FC04466CB92D2083
:1011A00000F034F8102D07D2002229462D2000F03F
:1011B0003BF80748056000E0012407B0204630BD39
:1011C0004038024040420F00002000404807002005
:1011D0007000002082B00C48016841F48041016039
:1011E000006800F4804001900748001F016841F04A
:1011F00080510160006800F08050019000220F21B2
:10120000901E02B000F010B844380240002809DBFC
:1012100000F01F02012191404009800000F1E02010
:10122000C0F8001170470000F0B40D460D4B1B686C
:10123000C3F30223C3F10704042C00D90424191DAD
:10124000072901D2002300E0DB1E012606FA04F183
:10125000491E294099409E40761E16403143F0BCFD
:1012600006F088BE0CED00E000F00701054A1068AA
:101270004FF6FF03184040EA01200349084310607D
:10128000704700000CED00E00000FA0570470068B0
:1012900041620020704770B50368586A002907D082
:1012A0009C6A00EB144400204FF48275491E0AE04A
:1012B00040EA024098620DE005EB80069E5904EB7F
:1012C0001644401CC0B28842F6D305EB810144EAC3
:1012D00002405850002070BDD0F8080505F07BBCD6
:1012E00001EBC10200EB8202D0F80805D26C05F0D8
:1012F0009FBB01EBC10200EB8202D0F80805D2F8D7
:101300008C2205F003BCD0F8080505F066BC0A067F
:1013100001F00F0101EBC10100EB810101D53C316E
:1013200001E001F51F71006806F016BC70B50446B7
:101330000B0601F00F0000EBC00104EB81014FF040
:1013400001024FF0000502D53C314A7002E001F580
:101350001F714D70087094F8BC04012808D084F8FF
:10136000BC24206806F0B0F884F8BC54002070BD9E
:10137000022070BD70B5044601F00F006268904213
:1013800001D9012070BD0B0601F00F0101EBC10175
:1013900004EB81014FF001024FF0000502D53C3112
:1013A0004A7002E001F51F714D708D70087094F85D
:1013B000BC04012808D084F8BC24206806F078FA20
:1013C00084F8BC54002070BD022070BD01F00F01F4
:1013D00001EBC10100EB8100D0F89C0270472DE9C0
:1013E000F04104460F0601F00F0000EBC00104EBD2
:1013F00081014FF001064FF0000502D53C314E70DF
:1014000002E001F51F714D700870CA600B714A78D7
:1014100002B10881022B00D14D7194F8BC0401285F
:1014200009D084F8BC64206805F09AFF284684F847
:10143000BC54BDE8F0810220FBE770B50D4605F015
:101440000F0404EBC40100EB810101F51F710A6177
:101450008B6100230B624B700C700369012B00D170
:101460004A612A0705D0027C006806F079FA00205C
:1014700070BD027C006806F065F9F8E770B50446B7
:101480000D46616805F00F00884201D9012070BD4A
:1014900029064FF000064FF0010206D500EBC0010F
:1014A00004EB81013C314A7006E005EBC50104EB19
:1014B000810101F51F714E708A70087094F8BC04A8
:1014C000012807D084F8BC24206806F01DFA2807FC
:1014D00002D007E0022070BD217C04F2C4422068E3
:1014E00006F0BCF984F8BC64002070BD70B50D46F0
:1014F00005F00F0404EBC40100EB81013C310A61EB
:101500008B6100230B6201234B700C700369012B6C
:1015100000D14A612A0705D0027C006806F020FA53
:10152000002070BD027C006806F00CF9F8E72DE998
:10153000F84F04462568284606F0BCFB00287ED1FB
:10154000206806F0E3FB002879D0D5F80808C0F33E
:101550000D20C4F8FC04206806F0D8FB800704D5F1
:101560002068416901F002014161206806F0CEFB6C
:10157000C10604F2C440009035D52068816921F08D
:10158000100181612F6A07F00F0000EBC00004EB2F
:10159000800606F51F76C7F34340022802D00628CE
:1015A00012D01BE047F6F070074217D0C7F30A12BB
:1015B00017462846316906F0ADFB30693844306182
:1015C000306A3844306209E008222846009906F063
:1015D000A1FB306AC7F30A110844306220688169B0
:1015E00041F010018161206806F090FB00034FF08C
:1015F000080B4FF000094FF001085ED50026206867
:1016000006F063FB824655E05FEACA704FD0F1B244
:10161000206806F073FB0746F80707D005EB461075
:10162000C0F8088B3146204603F0D4FE380709D5B0
:1016300005EB4610C0F808BB3146204600E0F9E152
:1016400003F0A4FEF80604D505EB46111020C1F8FE
:10165000080BB8071CD56869000605D5D5F804083D
:1016600040F48061C5F8041806EBC60004EB800066
:1016700000F51F70C178012905D180F80390F1B2FF
:10168000204600F0DDF905EB46110220C1F8080BF9
:10169000B80604D505EB46102021C0F8081BB80495
:1016A00005D505EB46104FF40051C0F8081B761C19
:1016B0004FEA5A0ABAF1000FA6D1206806F026FBBD
:1016C00040036CD5206806F0F9FA8246002663E0F4
:1016D0005FEACA705DD0F1B2206806F0FDFA0746F5
:1016E000F80723D006F00F0108FA01F0D5F83418F6
:1016F0008143C5F8341805EB4610C0F80889206905
:1017000001280FD106EBC60004EB8000D0E91221BE
:101710001144C16436B9606D20B920680121009A76
:1017200006F09CF8F1B22046FFF7DAFD380703D542
:1017300005EB4610C0F808B9F80604D505EB4611CC
:101740001020C1F80809780604D505EB46104021A1
:10175000C0F80819B80716D53146284606F076FABB
:1017600006EBC60004EB80003C30C178012905D1AE
:1017700080F80390F1B2204600F05EF905EB4611C7
:101780000220C1F80809380603D53146204603F087
:1017900093FE761C4FEA5A0ABAF1000F98D12068DE
:1017A00006F0B4FA002811DAD5F8040820F0010197
:1017B000C5F8041894F8F404012829D0204600F054
:1017C0000EFA2068416901F000414161206806F08D
:1017D0009DFA00050BD5D5F80808C00702D02046B1
:1017E00000F042FA2068416901F40061416120681B
:1017F00006F08CFAC00461D5D5F8040820F0010188
:10180000C5F804181021206806F020FA002120E015
:1018100084F8F49400212046FFF738FDD1E705EB6A
:10182000411000F510604FF67F328260036823F4A8
:1018300000130360C0F80822D0F8002222F400123E
:10184000C0F80022D0F8002242F00062C0F8002266
:10185000491C60688842E2D8D5F81C0840F00111A4
:10186000C5F81C18206B60B1D5F8840840F00B0156
:10187000C5F88418D5F8440840F00B01C5F84418A1
:101880000CE0D5F8140842F22B010843C5F81408FF
:10189000D5F8100840F00B01C5F81018D5F800086D
:1018A00020F4FE61C5F80018217C2068009A05F03C
:1018B000D5FF2068416901F480514161206806F03C
:1018C00025FA800415D5206805F08CFD206806F007
:1018D000E1F9E06000F0A4FA0146227B206806F0FE
:1018E0007FFA204600F064F92068416901F4005154
:1018F0004161206806F00AFA000707D5204600F08B
:1019000072F92068416901F008014161206806F020
:10191000FDF9000615D5A86920F08001A96101260E
:101920000CE006EBC60004EB800090F87F02012873
:1019300003D1F1B22046FFF7EAFC761C6068B042A2
:10194000EFD8206806F0E2F9C00220D5012616E0A3
:1019500005EB4610D0F8001906EBC60004EB80003A
:1019600090F84020012A09D1002907DA80F83F8049
:10197000F0B240F080012046FFF7C9FC761C606899
:10198000B042E5D82068416901F4801141612068C6
:1019900006F0BCF9800230D5012026E005EB4011AD
:1019A000D1F8001B00EBC00204EB820292F88032F7
:1019B000012B19D1002917DA94F8FC3401F4803195
:1019C00003F0010399420FD182F87F82A96941F0A7
:1019D0008002AA616969090606D4D5F8040840F4B2
:1019E0000070C5F8040803E0401C61688142D5D846
:1019F0002068416901F400114161206806F086F910
:101A0000400007D52046FFF767FC2068416901F0D8
:101A100080414161206806F079F940070AD52068C5
:101A20004568680702D52046FFF76DFC20684168CD
:101A300029434160BDE8F88FD0F8080505F022B9C8
:101A4000D0F8080505F033B92DE9F0418AB0044615
:101A5000002C05D0266894F8BD04002520B108E0CC
:101A600001200AB0BDE8F08184F8BC54204600F0A3
:101A70005DF8032084F8BD04F06BC00500D4256137
:101A8000206805F059FE04F11001282288466846B6
:101A9000FEF734FD94E80F0005F0B2FC022718B100
:101AA00084F8BD740120DCE70021206806F051F9BC
:101AB000002101260DE001EBC10004EB80003C3069
:101AC0004670017001810571C56005618561491C21
:101AD000C9B260688842EED800210DE001EBC10078
:101AE00004EB800000F51F70457001700571C56042
:101AF00005618561491CC9B260688842EED8282218
:101B000041466846FEF7FAFC94E80F0005F05CFDDC
:101B100018B184F8BD740120A3E784F8385084F824
:101B2000BD64206805F042FD00209AE710B586B03C
:101B30000446142101A8FEF73DFD2068B0F1A04F36
:101B40002FD100211848026842F0010202600068AB
:101B500000F0010000904FF4C0500190022002906C
:101B60000391032004900A20059001A90F48FFF774
:101B7000CDF90D48001D016841F0800101600A485F
:101B80001430016841F480410160006800F4804035
:101B90000090002205214320FFF746FB4320FFF77A
:101BA00035FB06B010BD0000303802400000024096
:101BB00070B504460125E06800280ED0022801D047
:101BC000FEF7C2FE2946D4F8080505F0E1F8D4F87E
:101BD0000805BDE8704005F094B80025F2E7D0F89C
:101BE000080505F0BEB8D0F8080505F0C4B810B572
:101BF000044694F8BC0401280BD0012084F8BC04EE
:101C000084F83810206806F0D4F8002084F8BC046A
:101C100010BD022010BDD0F8082500F2C4411046C6
:101C200005F0C2B810B50446206894F8BC14012928
:101C300006D0012184F8BC14A16A012902D008E071
:101C4000022010BDA169012903D0816B41F48031CC
:101C50008163206805F0D2FF206805F099FC002020
:101C600084F8BC0410BD000010B50446D4F8080583
:101C700005F0DCF82068D0F8001E41F00101C0F842
:101C8000001E206A002804D00248016841F00601C5
:101C9000016010BD10ED00E02DE9F04704460D464F
:101CA000002C13D0DFF82891D9F80000EFB200F033
:101CB0000700A8420CD289F80070D9F8000000F0A3
:101CC0000700A84204D00120BDE8F0870120FBE70F
:101CD0002068404E810712D5400703D5306840F494
:101CE000E05030602078000703D5306840F4604051
:101CF00030603068A16820F0F00008433060207840
:101D0000C00731D0334960680839012808D002285B
:101D10000BD0032809D0096889070BD40120D3E729
:101D20000968890306D40120CEE70968890101D436
:101D30000120C9E7316821F0030101433160FFF759
:101D4000D5F9804641F2883A07E0FFF7CFF9A0EBDA
:101D50000800504501D90320B6E73068616800F0FB
:101D60000C00B0EB810FF0D1D9F8000000F00700B3
:101D7000A84209D989F80070D9F8000000F00700DE
:101D8000A84201D001209FE72078400705D53068A0
:101D9000E16820F4E050084330602078000706D561
:101DA0003068216920F4604040EAC100306000F0F2
:101DB0005DF83168084AC1F30311515CC840074916
:101DC000086007480068FFF7B9F900207CE70000C9
:101DD000003C024008380240A4C2000878000020FD
:101DE000700000200F2202600B4A136803F0030307
:101DF0004360136803F0F0038360136803F4E05357
:101E0000C360126802F46042D208026103480068AD
:101E100000F007000860704708380240003C0240AC
:101E200001480068704700007800002000B5FFF707
:101E3000F7FF04490968044AC1F38221515CC84094
:101E400000BD000008380240B4C2000800B5FFF72A
:101E5000E7FF04490968044AC1F34231515CC840B4
:101E600000BD000008380240B4C2000810B5174891
:101E7000006810F00C01164816D0164B042912D039
:101E8000082911D1114C241F216801F03F0221685B
:101E900049020AD52068C0F38810A0FB0301002383
:101EA000FEF770FA09E0184610BD21680023C1F35F
:101EB0008811A1FB0001FEF765FA2168C1F3014119
:101EC000491C4900B0FBF1F010BD00000838024089
:101ED0000024F400001BB7002DE9F84F0446002C45
:101EE00013D02078DFF8A083C007A8F1040556D0EE
:101EF00008F104000168C1F3810101290CD00068D8
:101F0000C0F38100022803D00DE00120BDE8F88F66
:101F1000D8F80000400206D5286880033FD56068E5
:101F200070BB0120F2E76068B0F5803F10D0B0F5DB
:101F3000A02F12D0286820F480302860286820F470
:101F4000802028606068E0B1FFF7D0F8064614E012
:101F5000286840F480302860F4E7286840F4802046
:101F60002860286840F480302860EBE7FFF7BEF86F
:101F7000801B642801D90320C8E728688003F5D5B1
:101F80000DE0FFF7B3F8064606E0FFF7AFF8801B59
:101F9000642801D90320B9E728688003F5D42078A4
:101FA000BA4F80074FF0000948D5B748001D0168B7
:101FB00011F00C0F08D00068C0F38100022813D183
:101FC000D8F8000040020FD42868800704D5E068E4
:101FD000012801D0012099E72868216920F0F80044
:101FE00040EAC100286029E0E068B8B1012038600B
:101FF000FFF77CF8064606E0FFF778F8801B02281A
:1020000001D9032082E728688007F5D5286821696F
:1020100020F0F80040EAC10028600FE0C7F8009007
:10202000FFF764F8064606E0FFF760F8801B022819
:1020300001D903206AE728688007F5D420780007D3
:1020400029D5DFF844A2924861690AF1700A89B182
:1020500001210160FFF74AF8064606E0FFF746F85F
:10206000801B022801D9032050E7DAF8000080071E
:10207000F4D510E0C0F80090FFF738F8064606E007
:10208000FFF734F8801B022801D903203EE7DAF875
:1020900000008007F4D42078400778D54FF0000A7C
:1020A00079483C300068C0000BD477483C30016868
:1020B00041F080510160006800F0805000904FF0C6
:1020C000010ADFF8D0B1DBF80000C00514D4DBF85A
:1020D000000040F48070CBF80000FFF707F80646D8
:1020E00006E0FFF703F8801B022801D903200DE763
:1020F000DBF80000C005F4D5634EA0686C360128FB
:102100000FD0052812D0306820F001003060306810
:1021100020F004003060A068F8B1FEF7E7FF8346C6
:1021200017E0306840F001003060F4E7306840F0BC
:1021300004003060306840F001003060EBE7FEF7EB
:10214000D5FFA0EB0B0141F28830814201D9032079
:10215000DCE630688007F2D510E0FEF7C7FF834663
:1021600009E0FEF7C3FFA0EB0B0141F2883081428A
:1021700001D90320CAE630688007F2D4BAF1010F12
:1021800005D141483C30016821F080510160A069CF
:10219000C0B33D49091D09684FF0FF36C1F3810105
:1021A000022946D0022805D0C7F86090FEF79EFFAE
:1021B00004463AE0C7F86090FEF798FF814607E0D2
:1021C000FEF794FFA0EB0900022801D903209DE649
:1021D00028688001F4D4D4E907010843616AA26A3F
:1021E000890106EB520241EA0241084394F82C109F
:1021F00040EA0160C8F8000001203866FEF776FF6B
:10220000044607E03DE0FEF771FF001B022801D9FC
:1022100003207BE628688001F5D532E0FEF766FFF3
:10222000001B022801D9032070E628688001F5D43C
:1022300027E0012823D0D8F80000E26900F48001EB
:1022400091421AD1226A00F03F01914215D147F61E
:10225000C071626A0140B1EB821F0ED1A26A00F424
:10226000403106EB5202B1EB024F06D194F82C102C
:1022700000F07060B0EB016F03D0012046E6012052
:1022800044E6002042E600000438024000004742D5
:10229000800E47420070004070B50446002C09D003
:1022A000606A002540B125616561A56294F851001E
:1022B00040B10CE0012070BD6068B0F5827FF4D0C1
:1022C000E561F2E784F85050204600F045F802201E
:1022D00084F851002068016821F040010160A08865
:1022E000218900F4827001F404410843A18901F4BA
:1022F00000610843217C01F002010843217D01F0C7
:1023000001010843218B01F400710843217F01F092
:102310003801084394F8201001F080010843218D12
:1023200001F40051084321680860A069042101EA12
:10233000104094F8241001F010010843216848600F
:102340002068C16921F40061C1616565012084F8DC
:102350005100002070BD0000F0B587B00446142184
:1023600002A8FEF727F9334821680024324A0225E3
:102370000326052781421DD12F481430016841F4FE
:1023800080510160006800F480500190106840F0B6
:1023900001001060106800F001000190E020029040
:1023A000039504940596069702A92448FEF7AEFD0E
:1023B00007B0F0BD204BDFF888C0103321486145DD
:1023C0001AD1196841F480411960196801F48041FB
:1023D0000191116841F002011160116801F00201E0
:1023E00001914FF46041029103950494059606977C
:1023F00002A9FEF78BFDDBE7134FB942D8D119686C
:1024000041F400411960196801F40041019111681B
:1024100041F002011160116801F0020101913821BF
:1024200002910395049405960621069102A9FEF7F0
:102430006DFDBDE700300140303802400000024031
:102440000038004000040240003C00402DE9F84FF5
:1024500004468A4691461D46002660684FF0040BEC
:10246000B0F5827F01D1A06888B194F850000128AE
:1024700018D0012084F85000FEF738FE074694F883
:1024800051004FF0000801280ED0022682E084F8A7
:1024900051B04B46524651462046009500F048F94F
:1024A000BDE8F88F0220FBE7BAF1000F1BD0B9F1AD
:1024B000000F18D084F851B0C4F85480C4F838A084
:1024C000A4F83C90A4F83E90C4F83080A4F834807E
:1024D000A4F83680C4F84080C4F84480A068B0F501
:1024E000004F02D00BE0012654E02068016821F083
:1024F000400101602068016821F48041016020688A
:102500000168490603D4016841F040010160E068B8
:10251000B0B131E020688168C90709D0007BA16BA8
:102520000870A06B401CA063E08F401EE08707E0AE
:10253000FEF7DCFDC01BA84201D3681C04D11DB10D
:10254000E08F0028E6D11AE0032623E020688168A6
:10255000C90709D0C068A16B0880A06B801CA0636C
:10256000E08F401EE08707E0FEF7C0FDC01BA842D9
:1025700001D3681C15D1A5B1E08F0028E6D13A46F9
:102580002946204602F0E6FF08B120206065606D14
:1025900000B10126012084F8510084F850803046B3
:1025A0007EE70326F6E72DE9F84F04468B46924670
:1025B0001D46002694F8500001280DD04FF0010967
:1025C00084F85090FEF792FD074694F85100B0460B
:1025D000012804D00226A5E00220BDE8F88FBBF157
:1025E000000F1CD05FEA0A0019D0032084F85100C4
:1025F000C4F85480C4F830B0A4F834A0A4F836A0CD
:10260000C4F83880A4F83C80A4F83E80C4F8448024
:10261000C4F84080A068B0F5004F02D00BE001265E
:1026200080E02068016821F04001016020680168B5
:1026300041F48041016020680168490603D40168C3
:1026400041F040010160E068B0F5006F05D06068BE
:1026500078B3BAF1010F2DD04DE0606810B1BAF136
:10266000010F20D1206B21680088C860206B801C7E
:102670002063E08E401EE08615E0206881688907AF
:1026800009D5216B0988C160206B801C2063E08E16
:10269000401EE08607E0FEF729FDC01BA84201D3DB
:1026A000681C04D11DB1E08E0028E6D126E0032687
:1026B00038E0FFE7206B216800780873206B401C2E
:1026C0002063E08E401EE08615E02068816889075F
:1026D00009D5216B09780173206B401C2063E08EC3
:1026E000401EE08607E0FEF701FDC01BA84201D3B3
:1026F000681C0ED16DB1E08E0028E6D13A4629461D
:10270000204602F06DFF08B120206065A06810B17E
:1027100005E0032606E02068C16880680090606DCF
:1027200000B1012684F8519084F85080304654E777
:102730002DE9F84F04460A9E8A4693461F46012516
:102740004FF0000894F8500001280ED0012084F8C2
:102750005000FEF7CBFC814694F8510061680128D7
:102760000DD0B1F5827F07D102E00220BDE8F88FDD
:10277000A16809B9042802D04FF00208C3E0BAF1F9
:10278000000F28D0BBF1000F25D0380023D094F8DB
:102790005100042802D0052084F851000020606513
:1027A000C4F838B0E787A787C4F830A0E786A786C3
:1027B0002064606420680168490603D4016841F020
:1027C00040010160E068B0F5006F07D06068E8B3D1
:1027D000012F48D07DE04FF0010894E0606808B117
:1027E000012F39D1206B21680088C860206B801CC4
:1027F0002063E08E401EE0862EE020688168890715
:102800000DD5E18E59B1012D09D1216B0988C16027
:10281000206B801C2063E08E401EE086002520682F
:102820008168C9070BD0E18F49B1C068A16B0880EE
:10283000A06B801CA063E08F401EE0870125FEF79F
:1028400055FCA0EB0900B04206D300E00BE0701C81
:1028500002D04FF0030856E0E08E0028CDD1E08F83
:102860000028CAD13BE0206B216800780873206BF8
:10287000401C2063E08E401EE0862AE020688168CC
:1028800089070DD5E18E59B1012D09D1216B097848
:102890000173206B401C2063E08E401EE086002503
:1028A00020688168C9070BD0E18F49B1C068A16B6E
:1028B0000870A06B401CA063E08F401EE0870125DC
:1028C000FEF714FCA0EB0900B04201D3701C11D13B
:1028D00086B1E08E0028D1D1E08F0028CED14A46C3
:1028E0003146204602F07CFE38B14FF0010820202E
:1028F000606508E04FF0030805E0A06818B920689B
:10290000C168806800900120503460700020207001
:1029100040462BE77047704770B590F83C20012A7D
:1029200031D0012680F83C60022280F83D20026808
:102930005468936824F070050C682C435460134C61
:102940000268A24214D0B2F1804F11D0104CA242C2
:102950000ED0104CA2420BD00F4CA24208D00F4C0C
:10296000A24205D00E4CA24202D00E4CA24204D18B
:1029700023F080034968194391603C304670002180
:102980000170002070BD022070BD000000000140F9
:102990000004004000080040000C0040000401401A
:1029A000004001400018004010B50446002C03D040
:1029B00094F83D0010B107E0012010BD002084F81C
:1029C0003C00204600F016F8022084F83D00211D4E
:1029D000206803F013F801203D3460726070A0702D
:1029E000E07020716071A071E07120722070002091
:1029F00010BD000008B500681D49B0F1804F0BD034
:102A00001C4A904211D1086840F004000860086830
:102A100000F00400009008BD086840F00100086064
:102A2000086800F00100009008BD134A904211D1DF
:102A3000086840F008000860086800F0080000908E
:102A4000002205213220FEF7EFFBBDE808403220CE
:102A5000FEF7DCBB09498842E6D10548001D016844
:102A600041F480310160006800F48030009008BDBE
:102A70004038024000080040000C00400040014087
:102A800090F83D10012901D001207047022180F803
:102A90003D1000681349884214D0B0F1804F11D026
:102AA000114988420ED0114988420BD01049884202
:102AB00008D01049884205D00F49884202D00F49FA
:102AC000884209D1816801F00701062908D0016810
:102AD00041F00101016003E0016841F00101016082
:102AE0000020704700000140000400400008004042
:102AF000000C00400004014000400140001800406C
:102B000090F83D10012901D001207047022180F882
:102B10003D100168CA6842F00102CA6000681449A9
:102B2000884214D0B0F1804F11D0124988420ED0A3
:102B3000114988420BD01149884208D01049884277
:102B400005D01049884202D00F49884209D18168D6
:102B500001F00701062908D0016841F00101016078
:102B600003E0016841F001010160002070470000AE
:102B7000000001400004004000080040000C00403C
:102B800000040140004001400018004070B50446B8
:102B9000002594F83C00012817D0012684F83C60F9
:102BA000022084F83D002068826822F0770222F437
:102BB0007F4282600868502838D00DDC202853D02E
:102BC00005DC90B3102811D14EE0022070BD3028F2
:102BD0004AD040280AD13DE0602831D070280CD07E
:102BE000B0F5805F03D0B0F5005F12D001253C3412
:102BF000667000202070284670BDCB68D1E90121A5
:102C0000206802F061FF2068816841F077018160EF
:102C1000EDE7CB68D1E90121206802F055FF20687B
:102C2000816841F480418160E1E71DE0CA6849683C
:102C3000206803F02BF85021206802F04FFFD6E700
:102C4000CA684968206803F032F86021206802F001
:102C500045FFCCE7CA684968206803F017F84021AF
:102C6000206802F03BFFC2E722680146104602F0EE
:102C700035FFBCE7704770B50446206801694FF026
:102C80000005C943890716D4C168C943890712D40E
:102C9000E91E01610120207720688069800703D048
:102CA0002046FFF7E7FF05E0204600F00FF9204639
:102CB00000F0B2F9257720680169C943490718D4A3
:102CC000C168C943490714D46FF0040101610220AF
:102CD00020772068806910F4407F03D02046FFF7FA
:102CE000C9FF05E0204600F0F1F8204600F094F915
:102CF000257720680169C943090717D4C168C9430A
:102D0000090713D46FF008010161042020772068BF
:102D1000C069800703D02046FFF7ACFF05E02046DE
:102D200000F0D4F8204600F077F925772068016993
:102D3000C943C90618D4C168C943C90614D46FF081
:102D400010010161082020772068C06910F4407FDD
:102D500003D02046FFF78EFF05E0204600F0B6F8CE
:102D6000204600F059F9257720680169C943C90751
:102D700008D1C168C943C90704D1891E0161204631
:102D800000F04CF920680169C943090609D4C168FB
:102D9000C943090605D46FF0800101612046FFF7A1
:102DA000B9FD20680169C943490609D4C168C9430E
:102DB000490605D46FF040010161204600F038F962
:102DC00020680169C94389060BD4C168C9438906D3
:102DD00007D46FF0200101612046BDE87040FFF785
:102DE0009ABD70BD70B586B00446142101A8FDF7E8
:102DF000E1FB216800232E4A02240125B1F1804F16
:102E000015D02C4E2C48B14224D1116841F002015A
:102E10001160116801F00201009101950294039381
:102E20000493059401A9FEF771F806B070BD10680F
:102E300040F001001060106800F0010000900720D1
:102E40000190029403930493059501A91B48FEF792
:102E50005DF8EAE71A4DA94212D1116841F002016A
:102E60001160116801F0020100914FF4607101914D
:102E7000029403930493059401A9FEF747F8D4E75D
:102E800010488142D1D1106840F0100010601068E5
:102E900000F01000009060200190029403930493CE
:102EA0000320059001A90848FEF730F8BDE70000AF
:102EB000303802400004004000040240000002409C
:102EC000000800400040014000100240704770B50B
:102ED00004460D46002694F83C0001280FD001203E
:102EE00084F83C006AB1042A1FD0082A32D00C2A88
:102EF00044D00126002084F83C00304670BD0220FA
:102F000070BD2946206802F0F1FD2068816941F01A
:102F1000080181612068816921F0040181612068D4
:102F200081692A6911438161E4E72946206802F03A
:102F300011FE2068816941F4006181612068816926
:102F400021F480618161206881692A6941EA022156
:102F50008161CFE72946206802F036FE2068C1690A
:102F600041F00801C1612068C16921F00401C1611B
:102F70002068C1692A691143C161BBE729462068FD
:102F800002F05AFE2068C16941F40061C161206805
:102F9000C16921F48061C1612068C1692A6941EA7F
:102FA0000221C161A6E710B50446002C03D094F8B5
:102FB0003D0010B107E0012010BD002084F83C0066
:102FC000204600F015F8022084F83D00211D2068FD
:102FD00002F014FD01203D3460726070A070E0705A
:102FE00020716071A071E07120722070002010BD0E
:102FF00008B500680649884208D10648016841F0D2
:1030000002010160006800F00200009008BD0000AD
:103010000004004040380240704700000068034947
:10302000884201D1FEF768B87047000000200040D8
:103030007047704770470000F8B504462268106872
:10304000D168536900F00F06002E08D1850606D519
:103050008D0604D52046BDE8F84002F08DBE00255F
:10306000002E66D003F0010601F49077374360D05C
:10307000C20705D0CA0503D5226C42F001022264C2
:10308000420705D5DA0703D0226C42F0020222641F
:10309000820705D5DA0703D0226C42F004022264CD
:1030A000020707D501F02002324303D0226C42F020
:1030B00008022264226C002A31D0800604D58806DA
:1030C00002D5204602F058FE20684069C0F3801007
:1030D000216C090700D438B3204602F019FE20689D
:1030E000406940061CD52068143050E8001F21F0CC
:1030F000400140E80012002AF5D1A06B60B15749A9
:103100000165A06BFDF78BFD002808D0A06B016D59
:1031100001B0BDE8F04008472046FFF78BFFF8BD3F
:103120002046FFF787FFF8BD2046FFF783FF2564A1
:10313000F8BD236B012B7ED1C3067CD5CB067AD597
:1031400010685068009050694FF02003400643D546
:10315000A16B0868406880B20028E9D0A28D824245
:10316000E6D9E085C869B0F5807F2DD020680C30A5
:1031700050E8001F21F4807140E80012002AF5D1C8
:103180002068143050E8001F21F0010140E80012CF
:10319000002AF5D12068143050E8001F21F04001CA
:1031A00040E80012002AF5D184F83E3025632068FB
:1031B0000C3050E8001F21F0100140E80012002AF6
:1031C000F5D1A06BFDF7E4FCA08DE18D401A81B232
:1031D0002046FFF72EFFF8BDA08DE18D401A81B289
:1031E000E08D0028F7D00029F5D020680C3050E899
:1031F000002F22F4907240E80026002EF5D12068BE
:10320000143050E8002F22F0010240E80026002E82
:10321000F5D184F83E30256320680C3050E8002F4B
:1032200022F0100240E80023002BF5D12046FFF7E2
:1032300000FFF8BDFFE7020606D50A0604D52046C2
:10324000BDE8F84002F0A4BE4006F2D54806F0D52D
:103250002046BDE8F84002F082BD0000015D000894
:1032600010B500680649884209D1064807F03EF9C2
:10327000BDE8104019220349034800F05FB910BDB2
:10328000005000400C0200209405002070B5044658
:10329000002C04D094F83D00002510B106E0012078
:1032A00070BD84F83C50204600F022F8242084F8B9
:1032B0003D002068C16821F40051C160204602F041
:1032C000BFFD2068016921F49041016120684169D6
:1032D00021F02A0141612068C16841F40051C160B8
:1032E0002564202084F83D0084F83E00002070BD55
:1032F0002DE9F04786B00746142101A8FDF75AF9D9
:10330000834ADFF808C2396800258148103A022450
:103310000326804B4FF0080861451DD1016841F438
:1033200000210160006800F400200090106840F067
:1033300004001060106800F004000090B0020190DA
:10334000029403950496CDF8148001A91846FDF760
:10335000DDFD06B0BDE8F087DFF8BCC1DFF8BC9149
:1033600061454DD1016841F480110160006800F4AD
:1033700080100090106840F004001060106800F0A9
:1033800004000090106840F008001060106800F021
:10339000080000904FF48050019002940395049629
:1033A000CDF8148001A91846FDF7B0FD0420019066
:1033B000029403950496CDF8148001A94846FDF7C0
:1033C000A5FD584C56482060C0056060A560E560CA
:1033D000401420616561A561E56125626562204652
:1033E000FDF718FD08B1FDF7AFFABC63A763002233
:1033F00005213520FDF718FF3520FDF707FFA8E769
:10340000434FDFF824A13F1D4FF0070C51451CD15D
:10341000386840F010003860386800F01000009004
:10342000106840F001001060106800F0010000908A
:103430004FF4C0600190029403950496CDF814C037
:1034400001A93A48FDF762FD83E7DFF8E4A05145A2
:103450001BD1016841F400310160006800F40030C4
:103460000090106840F008001060106800F008003C
:10347000009060200190029403950496CDF814C04A
:1034800001A94846FDF742FD63E7DFF8A8A05145D2
:103490001CD1016841F480210160006800F48020A3
:1034A0000090106840F008001060106800F00800FC
:1034B00000904FF440700190029403950496CDF86B
:1034C00014C001A94846FDF721FD42E71A48814290
:1034D00095D1386840F020003860386800F020004E
:1034E0000090106840F004001060106800F00400C4
:1034F0000090C0200190029403950496CDF81480AA
:1035000001A91846FDF702FD23E70000004C00402A
:10351000403802400008024000500040000C0240C9
:1035200010600240E8060020001001400000024048
:1035300000440040004800400014014090F83E3034
:10354000202B01D00220704759B152B190F83C3085
:10355000012B08D0012380F83C300023036302F0E4
:10356000F9BC012070470220704770477047000087
:1035700070B50446002020743B4DA27B616828880A
:103580004243D4F8F400FCF7B9FFA17B28884143FB
:103590006068FDF70FF8A07B10FB00F1288841431D
:1035A000D4F81801FDF706F8207BA17B10FB01F190
:1035B00028884143D4F80C01FCF7FCFF002029E0E7
:1035C000D4F8F41001EB800292ED000AB5EEC00AC7
:1035D000F1EE10FA1CD0227C01EB820181ED000A91
:1035E000227C616A8854A169227B01EB8001237CE3
:1035F00091ED000A6169095C12FB0311D4F80C21FA
:10360000491E02EB810181ED000A217C491C2174D5
:10361000401CC0B2A17B8142D2D8002010E0636A76
:10362000E26900FB01011B5C02EB830292ED000AE0
:10363000D4F8182102EB810181ED000A401CC0B2D0
:10364000217C8142EBD85C3414F84C0CA08314F834
:10365000500CE083A084E184A186E186A087E18705
:1036600024F8141C70BD000074010020FEE7000067
:1036700010B586B00446D4F8EC0090ED000A8DED4C
:10368000050A90ED010A8DED040A90ED020A8DED18
:10369000030A90ED030A8DED020A9DED050ADDEDAA
:1036A000050A9DED041A20EE200ADDED040A00EE65
:1036B000810ADDED030A9DED031A00EE810ADDEDBE
:1036C000020A9DED021A00EE810A05F0F3F98DED74
:1036D000010A0020D4F8EC10DDED010A01EB8001B5
:1036E00091ED000A20EE200A81ED000A401CC0B2D4
:1036F0000428EFD34148DDED040AF83490ED6F0A59
:10370000A16860EE200AB6EE000A60EE800AC1ED04
:10371000040AD0ED6F0A9DED031AA16860EE810ADC
:1037200060EE800AC1ED050AD0ED6F0A9DED051A25
:10373000A16820EE811AFEEE000A21EE201A81ED2A
:103740000A1A90ED6F1ADDED021AA16821EE211A16
:1037500021EE001A81ED0B1A90ED6F1ADDED021AC1
:10376000A16821EE211A21EE201A81ED101A90EDA8
:103770006F1ADDED051AA16821EE211A21EE201A3B
:1037800081ED111A90ED6F1ADDED031AA16821EE9B
:10379000211A21EE000A81ED160A90ED6F0A9DEDC7
:1037A000041AA16820EE010A20EE200A81ED170A12
:1037B0002168D0ED740A91ED1C0A20EE200A81EDFB
:1037C0001C0A2168D0ED740A91ED230A20EE200A2C
:1037D00081ED230A54F8F80909499FED0A0A026F9E
:1037E0008A4201DD80ED1C0AD4F8F800D0F88C2064
:1037F0008A4201DD80ED230A06B010BD203B002087
:1038000000401C4600401C4670B52DED028B012582
:103810002D4C257084ED6C0AC4ED6D0A84ED6E1A92
:103820009FED2A0A84ED730A002084F83801D03411
:10383000002121676167A067E06784ED3B2AD03CE7
:1038400011EE900AB7EE008AB0F17E5F01DDF0EE76
:10385000481A88EE210A84ED740A03230022062107
:10386000201D00F0DDFC1A4B01221146A3F10800D7
:1038700004F0D7FD8834606E80ED008A606E9FEDA5
:10388000150A80ED010A606E80ED020A606E80ED1F
:10389000030A1148A0641148E064114820651148EA
:1038A000606504F85A5C04F8595C90220E49E06F98
:1038B000FCF724FE606F9022BDEC028B0B49BDE843
:1038C0007040FCF71BBE0000203B002077CC2B3261
:1038D000E83C002000000000F138000871360008C4
:1038E00025390008F53D000830CB00087C01002098
:1038F00010B50446902254F8F81F0848FCF7FEFD66
:1039000048220748616AFCF7F9FD054861694822C9
:10391000BDE810404830FCF7F1BD00007C010020FC
:10392000003D00201FB50446B0EE000A54F8EC0F2D
:10393000D0ED000A60EE800ACDED030AD0ED010A59
:1039400060EE800ACDED020AD0ED020A60EE800A38
:10395000CDED010AD0ED030A20EE800A8DED000ABC
:1039600014F8DE0C14F8E01C10FB01F12348008869
:103970004143206AFCF71EFE9DED010A206AB1EE6C
:10398000400A80ED000A206ADDED000AC0ED010A60
:10399000DDED030A206AF1EE600AC0ED020A206A3A
:1039A000DDED020AC0ED030A206ADDED020AC0ED7A
:1039B000060A206ADDED030AC0ED070A206ADDED84
:1039C000000AC0ED080A206ADDED010AC0ED090A0F
:1039D000206ADDED030AC0ED0C0ADDED020A206A63
:1039E000F1EE600AC0ED0D0A206A80ED0E0A206A31
:1039F0009DED000A80ED0F0A1FBD0000740100203C
:103A000010B52DED048B84B0F0EE619AB0EE429AC1
:103A1000F0EE628AEC4CD4ED171A30EE610A84EDB8
:103A20001A0AD4ED181A70EEE10AC4ED1B0AD4ED9F
:103A3000191A31EE611A84ED1C1AB6EE008A60EE96
:103A4000081A94ED2E0A61EE801ACDED031A60EE8D
:103A5000880A60EE800ACDED020A61EE080A20EEC7
:103A6000800A8DED010A9022D8492068FCF746FDB6
:103A70009DED030A2068B1EE401A80ED011A9DED1C
:103A8000020A2068F1EE400AC0ED020A9DED010A2B
:103A90002068B1EE400A80ED030A2068DDED031ACC
:103AA000C0ED061A2068DDED011AC0ED081A206885
:103AB000C0ED090A2068DDED020AC0ED0C0A20689D
:103AC00080ED0D0A20689DED030A80ED0F0A206845
:103AD0009DED010A80ED120A20689DED020A80ED3D
:103AE000130A206880ED141AD4E91101A4F5827438
:103AF00050EA01020BD1C4ED5E9A84ED5F9AC4EDE9
:103B0000608A401C04F5A47241F1000103C294EDE7
:103B10006F1A94ED643AF7EE002AAD4871EE030A8D
:103B200082EEA00A80ED000AD4ED5E0A60EE830A00
:103B300060EE803A61EE290A40EE803AC4ED5E3ACA
:103B4000D4ED5F0A60EE830A60EE801A61EE090A26
:103B500040EE801AC4ED5F1AD4ED600A60EE830A6D
:103B600020EE802A61EE280A00EE802A84ED602A89
:103B700063EEA30A41EEA10A42EE020AB1EEE00AA8
:103B800084ED660AC2EE800ACDED000A9DED000AC2
:103B9000A06823EE800A80ED000A94ED5F0ADDED57
:103BA000000AA06820EE200A80ED010A94ED600A68
:103BB000DDED000AA06820EE200A80ED020A94EDF7
:103BC0005B0A60EE000A94ED5C0A40EE000A94ED98
:103BD0005D0A40EE000AB1EEE00A84ED650A10EEDF
:103BE000100A7C4988420BDA7B49D4F89801884254
:103BF00006DD7A49884203DA012084F8390102E0BF
:103C0000002084F8390104F58C7494ED260AD4ED73
:103C1000290A206820EE200A80ED000A94ED260A89
:103C2000D4ED290A206820EE200A80ED070A94EDE1
:103C3000260AD4ED290A206820EE200A80ED0E0A1B
:103C400094ED260AD4ED290A206820EE200A80EDA2
:103C5000150A94ED270AD4ED290A206820EE200ADF
:103C600080ED1C0A94ED270AD4ED290A206820EE85
:103C7000200A80ED230A606894ED280A80ED000A8E
:103C8000606894ED280A80ED040A606894ED280AC3
:103C9000A4F58C7480ED080A201D00F0A3FD606877
:103CA000D0ED000AC4ED540A90ED010A84ED550AE6
:103CB00090ED021A84ED561AD0ED031AC4ED571A8E
:103CC000B0EE482A404800EE402A20EE800A9C30A0
:103CD00001EE210A01EE412AF0EE420A04F034FA24
:103CE00094ED680ADFED3E8A20EE280A84ED680A2A
:103CF00094ED550AD4ED570A94ED561A20EE200A99
:103D0000D4ED540A00EEC10AF8EE000A20EE200AB3
:103D100004F040F920EE280A84ED690A94ED560A71
:103D2000D4ED551A94ED571A00EE408A21EE800A20
:103D3000D4ED541A244801EE810AF0EE480AA4306A
:103D400041EE410A04F000FA94ED6A0A20EE280AD6
:103D500084ED6A0A6068D0ED040AC4ED580AD0ED1B
:103D6000050AC4ED590ADFED1F0AC4ED5A0AD4ED65
:103D7000760A1D4970EE600A10EE900A884205DD51
:103D8000B4F8D401401EA4F8D40109E010EE900A62
:103D90001649884204D9B4F8D401401CA4F8D401CF
:103DA000B4F9D401DFED121A00EE900AB8EEE01A71
:103DB000F0EE400A41EE210AC4ED6B0A84ED760A6A
:103DC00004B0BDEC048B10BD243C002030CB0008B7
:103DD000780100209A99993ECDCC1441CDCC244154
:103DE000E12E65420000000000003443000034C3AF
:103DF0000000B4432DE9F04F85B0044604F1800182
:103E000004F178000546049104F0B3FC6C3484F8A6
:103E10005C00A089A08734F8120CE0876C3C04F1A8
:103E2000A80204F1580192468946284604F052FC43
:103E3000823484F84600E08CE08520882086823C2D
:103E400004F1B00293465046049904F043FC9034C8
:103E500084F838002088208260886082903C04F1D9
:103E6000A002154604F19001584604F0C5FAB0349A
:103E700020765946284604F0D9FA2076E06B90ED7A
:103E8000000A8DED030A90ED010A8DED020A90ED16
:103E9000020A8DED010A90ED030A8DED000A34F857
:103EA000380C2081012565819DED020ADDED000AB7
:103EB0009DED011AE06F60EE200A9DED030A40EED1
:103EC000410AB0EE000A60EE800AC0ED000ADDEDA6
:103ED000030A9DED021ADDED001AE06F60EE810A23
:103EE0009DED011A41EE210A20EE800A80ED010AC3
:103EF0009DED030ADDED030A9DED021AE06F20EE51
:103F0000200ADDED020AB03C00EEC10ADDED010A37
:103F10009DED011A00EEC10ADDED000A9DED001ACB
:103F200000EE810A80ED020A0027A54ED4F82C018C
:103F300000EB870090ED000AB0EEC00A04F018FA1A
:103F400006EB870080ED610A7F1CFFB2032FEDD3E3
:103F5000B4F84800A4F8C000A4F8C25004F1C002AC
:103F600004F1B8011746884604F1480004F0ECFB60
:103F7000AA34A077E08A24F8020C258052463946FC
:103F8000584604F0A7FBA077E581E08A20824146ED
:103F9000384604F0EEFBA0778A4A5146404604F0CA
:103FA00099FBA077AA3C96ED730AB6EE001AD6EDFF
:103FB000720A20EE011AF4EEC10AF1EE10FA01D2F3
:103FC00086F83851F4EEC00A0020F1EE10FA3CDD1C
:103FD00096F83811C1B396F8391149B106F5A071B8
:103FE00006F5A07306C9491C42F1000206C304E0AD
:103FF0000021C6F84011C6F8441106F5A0724FF032
:10400000320C0CCA0021BCEB0202994104D286F8A2
:10401000380184F82C003AE06B4E227B80343088E3
:104020004243D4E91A01FCF769FA14F8740C10FB46
:1040300000F230884243D4E91E01FCF75FFA04F82D
:10404000545C05B0BDE8F08FFFE79FED601A20EEED
:10405000011AF4EEC10AF1EE10FA0DDD96F83811EE
:1040600051B170EE600A9FED5A1A20EE010A80EEFF
:10407000801A86ED671A03E0B7EE000A86ED670A3C
:104080000022C6F84021C6F8442184F82C006C3484
:1040900034F8140CA087E08AE08752464846049919
:1040A00004F018FB84F85C006C3C04F19802914623
:1040B0005946504604F00EFB84F8C80000200DE07D
:1040C000D4F81C11D6ED670A01EB800191ED000ACE
:1040D00020EE200A81ED000A401CC0B2B4F898100E
:1040E000B4F89A2051438142EADC04219FED390A59
:1040F00000200A1F06EB820C01EB4103D4F81C21BF
:104100009CED611A03EB000A02EB8A0221EE001A11
:10411000D2ED000A60EE810AC2ED000A401CC0B276
:104120000328EBD3491CC9B20629E1D334F8980F10
:104130002084658442463946484604F0CBFA84F828
:104140003000983C96F8380150B30420DFED220A85
:104150009FED221AD4F8BC1096ED6F0A01EB800196
:1041600020EE200AD1ED001AF4EEC01AF1EE10FA9A
:1041700001DD81ED000AD4F8BC1096ED6F0A01EB69
:10418000800120EE010AD1ED001AF4EEC01AF1EE22
:1041900010FA01D281ED000A401CC0B20628D9D322
:1041A000D4F8BC009FED0E0A80ED030A04F1300242
:1041B000414604F1380004F01FF984F8C80040E7D4
:1041C000203B0020E03C002074010020CDCCCC3D01
:1041D0006666663F84F9223F0AD7233C0AD723BC90
:1041E00000000000F0B500230A2530263727002400
:1041F00012E0B5EB107F04D906EB107C01F813C078
:1042000003E007EB107C01F813C0000101EB430C45
:104210008CF801405B1CDBB29342EAD3F0BD000096
:104220002DE9F04704460D4690461E46F74F042000
:10423000388008207880257384F80D80A6734FF0AD
:10424000000984F81090304606F0F8FC60613146B1
:10425000FCF78EF93888704306F0F0FCA0613988CD
:104260007143FCF7A7F93888704306F0E7FCE0617A
:1042700039887143FCF79EF93888684306F0DEFC04
:10428000206239886943FCF795F9304606F0D6FC80
:1042900060623146FCF76CF93888684306F0CEFC62
:1042A000206039886943FCF785F93888704306F047
:1042B000C5FC606039887143FCF77CF9388800FBE5
:1042C00008F006F0BBFCA060398801FB08F1FCF7A0
:1042D00071F93888684306F0B1FCC4F8E800398801
:1042E0006943FCF767F9217B012204F13000D4F81F
:1042F000E83004F096F83888684306F09FFCC4F86C
:10430000EC0039886943FCF755F9217B012204F15F
:104310003800D4F8EC3004F084F8B8F1000F13D072
:10432000388800FB08F006F089FCC4F8F0003988F2
:1043300001FB08F1FCF73EF9617B012204F140002A
:10434000D4F8F03004F06DF83888704306F076FC4D
:10435000C4F8F40039887143FCF72CF9A17B0122E1
:1043600004F14800D4F8F43004F05BF8388868436E
:10437000684306F063FCC4F8F80039886943694370
:10438000FCF718F9217B04F150000A46D4F8F83004
:1043900004F047F838886843684306F04FFCC4F8D7
:1043A000FC00398869436943FCF704F9217B04F177
:1043B00058000A46D4F8FC3004F033F838886843D3
:1043C000684306F03BFC8834A0673888684368433C
:1043D00006F034FCE0673988A06F69436943FCF755
:1043E000E9F83988E06F69436943FCF7E3F814F8AA
:1043F0007C1CA36F883C0A4604F1600004F011F8AD
:10440000217B04F168000A46D4F8043104F009F86D
:10441000B8F1000F15D03888684300FB08F006F0AB
:104420000DFCC4F808013988694301FB08F1FCF769
:10443000C1F8627B217B04F17000D4F8083103F0ED
:10444000F0FF38887043684306F0F8FB9434A067A7
:1044500038886843704306F0F1FBE0673988A06F45
:1044600071436943FCF7A6F83988E06F69437143EB
:10447000FCF7A0F814F8882C14F8861CA36F943C61
:1044800004F1780003F0CDFFA27B217B04F18000D2
:10449000D4F8103103F0C5FF38886843684306F04C
:1044A000CDFBC4F81401398869436943FCF782F8ED
:1044B000217B04F188000A46D4F8143103F0B1FFDF
:1044C00038887043704306F0B9FBC4F81801398886
:1044D00071437143FCF76EF8A17B04F190000A462A
:1044E000D4F8183103F09DFF38886843704306F014
:1044F000A5FBC4F81C01398869437143FCF75AF8DD
:10450000A27B217B04F19800D4F81C3103F089FFD1
:10451000207B10FB00F03988484306F08FFBC4F87D
:104520002001217B11FB01F13A885143FCF742F84D
:10453000207B10FB00F03988484306F07FFBC4F86D
:104540002401217B11FB01F13A885143FCF732F839
:10455000207B10FB00F03988484306F06FFBC4F85D
:104560002801217B11FB01F13A885143FCF722F825
:10457000207B3988484306F061FBC4F82C01217B7D
:104580003A885143FCF716F8207B3988484306F0F7
:1045900055FBC4F83001217B38884143D4F82C0105
:1045A000FCF708F8217B04F1A0000A46D4F820317A
:1045B00003F037FF217B04F1A8000A46D4F8243128
:1045C00003F02FFF217B04F1B0000A46D4F8283114
:1045D00003F027FF217B012204F1B800D4F82C312D
:1045E00003F01FFF217B012204F1C000D4F8303119
:1045F00003F017FF84F8289084F8299084F82A9013
:1046000084F82B9084F82C90BDE8F087740100208A
:1046100070B504460F4DE07B002803D02046FEF71E
:10462000A7FF0DE0A27B288861684243D4F8F4001C
:10463000FBF764FFA17B288841436068FBF7BAFF62
:10464000627B2888A1684243D4F8F000BDE870403E
:10465000FBF754BF740100202DE9F041044694F8A3
:104660002C00002827D17434A08CA086E188E18634
:10467000A08734F81A0CE087743C04F1A8021546B0
:1046800004F1780104F1980004F024F884F8C800DB
:1046900004F1B00204F1580116460F46284604F012
:1046A00019F884F8C80004F150023146384604F085
:1046B0004BF884F8C800BDE8F0812DE9F0410446CC
:1046C00094F8290000282CD104F1680104F160005D
:1046D0000D46074604F04DF884F8C80004F158026E
:1046E000164604F15001384603F0F4FF84F8C80080
:1046F000B4F85800A4F8A800B4F86A00A4F8AA0016
:1047000004F1A80217462946304603F0E3FF84F877
:10471000C800324604F18801384603F06DFE84F883
:10472000C800BDE8F0812DE9F047044694F82A005E
:10473000002855D104F1800104F178000D460746A8
:1047400004F017F86C3484F85C00A089A08734F872
:10475000120CE0876C3C04F1A80204F158011646E3
:104760008846384603F0B6FF823484F84600E08C71
:10477000E08520882086823C04F1B0021746294655
:10478000304603F0A7FF903484F838002088208258
:1047900060886082903C04F1A002914604F190018F
:1047A000384603F029FEAA34A0773946484603F07C
:1047B0003DFEA07734F8520C24F8020C34F8280C93
:1047C000208032462946404603F084FFA077AA3C69
:1047D00004F198023946304603F07CFF84F8C800A3
:1047E000BDE8F08770B504462046FFF711FFD4F806
:1047F000CC1009B120468847204600F067F8D4F86D
:10480000D01009B1204688472046FFF756FFD4F85C
:10481000D41009B120468847207C2B4DC0B9E07BDD
:10482000B0B1227B28884243D4E93A01FBF766FE07
:10483000207B10FB00F228884243D4E93E01FBF7BD
:104840005DFED4F8E01009B120468847002029E039
:104850002046FFF768FFD4F8D81009B120468847F2
:10486000204600F06DF8D4F8DC1009B120468847E6
:104870002046FFF7F1FEE4E700FB0101D4F8F82041
:1048800002EB8101226AD1ED000A02EB800292ED77
:10489000000AF4EEC00AF1EE10FA01D281ED000A2E
:1048A000401CC0B2217B8142E6D8227B2888D4F804
:1048B000E81042432068FBF721FED4F8E41009B168
:1048C00020468847206870BD740100202DE9F04122
:1048D000044694F8280000282AD1627B04F13001B4
:1048E00004F1600004F1380522B3227BA4F8B8205B
:1048F0000126A4F8BA6004F1B802174603F0EAFEF4
:1049000084F8C800207BA4F8C000A4F8C26004F1B9
:10491000C002164604F1400104F1700003F0DAFE13
:1049200004F8C80F2A463146384603F065FD20706A
:10493000BDE8F0812A4603F0CDFE84F8C800F7E711
:104940002DE9F041044694F82B00002836D1B4F844
:104950007800A4F8B8000125A4F8BA5004F1B80210
:1049600004F1380116460F4604F1780003F0B2FE58
:10497000AA34A07734F8620CE0822583AA3C04F1C3
:10498000C0029046314604F1480003F0DDFE983441
:1049900084F83000208820846584983C3246414663
:1049A00004F1980003F096FE84F8C80004F1300288
:1049B0003146384603F020FD84F8C800BDE8F08198
:1049C0007FB5002400940194029403941348124983
:1049D00001604FF48031416084600461047680F8A6
:1049E0002040C4620E498162C4600125C56180F81F
:1049F00030404561FCF772F808B1FBF7A5FF0420D1
:104A000000900195029469460448FBF7BBFF00281B
:104A100001D0FBF799FF7FBD0020014098020020E4
:104A20000100000F08B50948016841F40011016058
:104A3000006800F400100090002205210B20FCF714
:104A4000F3FBBDE808400B20FCF7E0BB3038024028
:104A500010B5044A0021044804F0B4FF034908607B
:104A600010BD000078C200080557000804000020AF
:104A70002DE9F04186B0142101A8FBF79BFD00262B
:104A80003148016841F010010160016801F0100136
:104A90000091016841F080010160016801F080012E
:104AA0000091016841F001010160016801F001011C
:104AB0000091016841F004010160016801F0040106
:104AC0000091016841F002010160016801F00201FA
:104AD0000091016841F008010160006800F00800E1
:104AE0000090DFF86880012230214046FCF7F6FA9A
:104AF000174F012202213846FCF7F0FA002240212C
:104B00003846FCF7EBFA302001900124029403941C
:104B10000325049501A94046FCF7F8F9022001900D
:104B200002940394049501A93846FCF7EFF940205C
:104B3000019002940396049601A93846FCF7E6F921
:104B400006B0BDE8F08100003038024000080240A5
:104B50000004024010B510480E4901604FF4827104
:104B6000416000218160C160022202610122426134
:104B7000520282611822C2610162416281620A218D
:104B8000C162FDF789FB002803D0BDE81040FBF7A8
:104B9000DBBE10BD00300140E002002010B50F4820
:104BA0000D4901604FF48271416000218160C16054
:104BB000016141614FF400728261C1610162416231
:104BC00081620A21C162FDF767FB002803D0BDE8BE
:104BD0001040FBF7B9BE10BD00380040380300207C
:104BE00010B50F480D4901604FF4827141600021FA
:104BF0008160C160016141614FF400728261C161F5
:104C00000162416281620A21C162FDF745FB002811
:104C100003D0BDE81040FBF797BE10BD003C00403C
:104C20009003002010B58EB000240A940B940C94CD
:104C30000D94089409941C2101A8FBF7BBFC25489E
:104C40004FF08041016044608460611EC160046176
:104C50008461FDF7A9FE08B1FBF776FE4FF48050A2
:104C60000A900AA91B48FDF791FF08B1FBF76CFEFB
:104C70001848FEF798F908B1FBF766FE0894099406
:104C800008A91448FDF748FE08B1FBF75DFE602057
:104C90000190029403940594002201A90D48FEF7A7
:104CA00016F908B1FBF750FE042201A90948FEF7E6
:104CB0000EF908B1FBF748FE082201A90548FEF7E6
:104CC00006F908B1FBF740FE0248FEF78BF80EB07C
:104CD00010BD0000E803002010B58AB0002408943D
:104CE00009941C2101A8FBF765FC164814490160D2
:104CF000446084604FF6FF71C16004618461FEF717
:104D000052F908B1FBF720FE0894099408A90D4850
:104D1000FDF702FE08B1FBF717FE60200190029438
:104D200003940594082201A90648FEF7D0F808B1BB
:104D3000FBF70AFE0348FEF755F80AB010BD000065
:104D4000000400403004002010B58EB000240A9406
:104D50000B940C940D94089409941C2101A8FBF762
:104D600029FC264824490160446084604FF6FF71A5
:104D7000C16004618461FDF717FE08B1FBF7E4FD33
:104D80004FF480500A900AA91C48FDF7FFFE08B1B5
:104D9000FBF7DAFD1948FEF706F908B1FBF7D4FD79
:104DA0000894099408A91548FDF7B6FD08B1FBF76A
:104DB000CBFD60200190029403940594042201A984
:104DC0000E48FEF784F808B1FBF7BEFD082201A9E2
:104DD0000A48FEF77CF808B1FBF7B6FD0C2201A9E2
:104DE0000648FEF774F808B1FBF7AEFD0348FDF77F
:104DF000F9FF0EB010BD000000080040780400204C
:104E000010B586B000240294039404940594009491
:104E10000194144812490160292141608460611E97
:104E2000C160046180218161FDF7BEFD08B1FBF71F
:104E30008BFD4FF48050029002A90A48FDF7A6FEB0
:104E400008B1FBF781FD0094019469460548FDF720
:104E500063FD002801D0FBF777FD06B010BD000010
:104E6000000C0040C004002010B58CB00024089451
:104E700009940A940B941C2101A8FBF79BFB1D4885
:104E80001B490160446084604FF6FF71C16004619A
:104E90008461FDF789FD08B1FBF756FD4FF48050A2
:104EA000089008A91348FDF771FE08B1FBF74CFD07
:104EB0001048FEF778F808B1FBF746FD6020019036
:104EC000029403940594002201A90A48FDF7FFFF0C
:104ED00008B1FBF739FD042201A90648FDF7F7FFE9
:104EE00008B1FBF731FD0348FDF77CFF0CB010BDA6
:104EF000004001400805002010B50C480A49016037
:104F00004FF4E131416000218160C16001610C22F8
:104F100042618161C161FEF7B9F9002803D0BDE8A3
:104F20001040FBF711BD10BD004C004050050020A3
:104F300010B50D480B4901600C49416000218160AA
:104F40004FF40052C26001610C2242618161C16173
:104F5000FEF79CF9002803D0BDE81040FBF7F4BC35
:104F600010BD00000050004094050020A086010004
:104F700010B50C480A4901604FF4E131416000214D
:104F80008160C16001610C2242618161C161FEF7F3
:104F90007DF9002803D0BDE81040FBF7D5BC10BD5B
:104FA00000100140D805002010B50C480A490160E6
:104FB0004FF4E131416000218160C16001610C2248
:104FC00042618161C161FEF761F9002803D0BDE84B
:104FD0001040FBF7B9BC10BD004400401C06002087
:104FE00010B50C480A4901604FF4E13141600021DD
:104FF0008160C16001610C2242618161C161FEF783
:1050000045F9002803D0BDE81040FBF79DBC10BD5A
:10501000004800406006002010B50C480A490160B5
:105020004FF4E131416000218160C16001610C22D7
:1050300042618161C161FEF729F9002803D0BDE812
:105040001040FBF781BC10BD00140140A4060020F5
:1050500010B500220F49104801F0C4FC08B1FBF75D
:1050600073FC0E490C4801F00BFF08B1FBF76CFC18
:105070000B49094801F0ACF908B1FBF765FC06489B
:1050800001F0D4FF002803D0BDE81040FBF75CBC62
:1050900010BD00000800002090070020D80000206C
:1050A0005800002010B52DED088BB0EE408AF0EED0
:1050B000608AB0EE419AB0EE61BAF0EE429AB0EE7C
:1050C00062AAB5EEC0BAF6EE00BAF1EE10FA694C7B
:1050D00009D1F5EEC09AF1EE10FA04D1B5EEC0AAEE
:1050E000F1EE10FA65D02BEE0B0A09EEA90A0AEED2
:1050F0000A0A03F0CFFC6BEE002A29EE803A2AEE72
:10510000002AD4ED031A94ED050AD4ED020AD4ED79
:10511000043A21EE801A00EEE31A60EEA11A43EE83
:10512000801AF0EE6BAA50EEA0AA40EE00AA63EE41
:105130002A0A42EE610A22EE012A02EEEA2A62EE11
:10514000A11A43EE411A94ED010AB5EEC00AF1EE40
:1051500010FA20DD20EE203A94ED091AD4ED062A4B
:1051600043EE012AC4ED062A60EE023A94ED073AB6
:1051700003EE813A84ED073A60EE213A94ED080A95
:1051800003EE810A84ED080A38EE228A78EE838ADB
:1051900039EE009A07E09FED380A84ED060A84EDA7
:1051A000070A84ED080A38EE208A78EE828A39EE02
:1051B000219A94ED090A20EE2B1A21EE080A61EEDD
:1051C000280A21EE091AD4ED021A94ED032AD4ED2F
:1051D000042AB1EE423A63EE003A94ED053A42EE0B
:1051E000E03A43EE413A73EEA14AC4ED024A61EE61
:1051F000803A42EE813A43EE603A73EE823AC4ED71
:10520000033A21EEA04A02EE414A03EE004A34EE90
:10521000224A84ED044A21EE811A02EE201A02EE9F
:10522000C01A71EE030AC4ED050A24EEA40A03EEC7
:10523000A30A04EE040A00EEA00A03F02BFCD4ED4E
:10524000020A60EE800AC4ED020AD4ED030A60EEA1
:10525000800AC4ED030AD4ED040A60EE800AC4EDAE
:10526000040AD4ED050A20EE800A84ED050ABDEC9F
:10527000088B10BD3C010020000000000E48DFED4F
:105280000D0AC0ED010AB7EE001A80ED021AC0ED5A
:10529000030AC0ED040AC0ED050AC0ED060AC0ED20
:1052A000070AC0ED080A00210170C1EE000AC0ED36
:1052B000090A7047000000003C01002010B52DEDE8
:1052C000028BF6EE008A2B4CF0EE680A04F12800FF
:1052D00094ED030AD4ED021A94ED041A40EE400A4C
:1052E00021EE800AD4ED051A01EE210A41EE410AB1
:1052F00002F02AFF94ED0A0A9FED1F8A20EE080AA9
:1053000084ED0A0A94ED030AD4ED050A94ED041A1B
:1053100020EE200AD4ED020A00EEC10AF8EE000ADF
:1053200020EE200A02F036FE20EE080A84ED0B0A79
:1053300094ED040AD4ED031A94ED051A40EE408A68
:1053400021EE800AD4ED021A04F1300001EE810A48
:10535000F0EE680A41EE410A02F0F6FE94ED0C0A06
:1053600020EE080A84ED0C0A01202070BDEC028BAF
:1053700010BD00003C010020E12E6542FEE7FEE783
:105380000148FCF7D4B800008C1E002070B504461C
:105390002068056C00EB4110D0F8081B0C4EB5429C
:1053A00005D9090403D54FF40041C0F8081B204675
:1053B000FCF731FCB54208D92069012805D104F277
:1053C000C4420121206802F049FA002070BD0000AB
:1053D0000A30544F2DE9F04105460C462E68306CDA
:1053E00006EB4411D1F8083BD5F810804FF4004784
:1053F0004FF0200C05F2C442B8F1010F08D0DFF8DD
:10540000B080404545D118043AD5C1F8087B4CE03E
:10541000284E5FEA037806D5B04246D9180444D531
:10542000C1F8087B41E05FEA836802D5C1F808CB88
:105430003BE013F0280F38D1B04204D9180402D54C
:10544000C1F8087B31E004EBC40005EB800000F5F7
:105450001F70D1F8101BC369C1F31201591A016200
:1054600024B983693BB1026911440161E1B2284664
:10547000FBF73FFF19E00121286802F0EFF9F5E79B
:10548000980601D5C1F808CBE1B22846FBF731FFF9
:105490000BE034B9D5F8940218B90021304602F077
:1054A000DDF9E1B22846FBF724FF0020BDE8F081DA
:1054B0000A31544F0A30544F2DE9F84F80460E46BA
:1054C000D8F8007006EBC60008EB80043C34A169F4
:1054D000206A884202D90120BDE8F88F081AE168E5
:1054E000814200D20846C01C4FEA900A07EB4619D9
:1054F00016E0151AE268AA4200D21546E81C4FEAE7
:10550000900A98F810000090ABB2F2B238462169C8
:1055100002F0E0FC206928442061206A28442062CF
:10552000D9F8180980B2504505D3A269206A904283
:1055300001D2002ADDD1216AA069884208D806F08C
:105540000F0101208840D7F834188143C7F8341878
:105550000020C1E7F8B504464FF4827560684FF447
:105560008063A8420AD1A068B0F5004F01D09842EC
:1055700004D12068066826F0400606606068A842EC
:105580001ED1A06898420DD00B46009200228021C7
:10559000204600F053F808B3606D40F020006065CD
:1055A0000320F8BD0B46009200220121204600F0A6
:1055B00045F898B1606D40F0200060650320F8BDAB
:1055C0000B46009200220121204600F037F828B156
:1055D000606D40F0200060650320F8BD0020F8BD3C
:1055E0007CB504461348144D0068B0FBF5F04FF449
:1055F0007A75684301906068B0F5827F0DD10B46E3
:10560000009200228021204600F018F878B1606DE9
:1056100040F02000606503207CBD019838B10198FE
:10562000401E019020688068C0430006F5D5002028
:105630007CBD00007800002000366E012DE9F843A3
:1056400004460F4691461E46089DFBF74FFD401B42
:10565000351AFBF74BFD804626480068C0F3CB3077
:10566000684300903AE0701C38D0FBF73FFDA0EB98
:105670000800A84203D215B1009858B32BE0206867
:10568000416821F0E00141606068B0F5827F0BD194
:10569000A068B0F5004F02D0B0F5806F04D120684B
:1056A000016821F040010160A06AB0F5005F09D1F6
:1056B0002068016821F4005101602068016841F40C
:1056C00000510160012050346070002020700320E0
:1056D000BDE8F88300250098401E0090206880688F
:1056E00037EA000004D000204845BCD10020EFE795
:1056F0000120F9E7780000200178407841EA002095
:10570000704700002DED068B88B0FFF7A1FC7A4CA6
:10571000012210212046FBF7E1FC01222021204636
:10572000FBF7DCFC754D012202212846FBF7D6FC75
:10573000FBF7D8F803F0F8F803F0C6FF4FF4C8649D
:105740001021204605F046FA4FF4FA61204605F094
:105750005BFA9FED6B0AFFF791FDDFED6A2ADFED43
:105760006A0AF7EE001AB0EE602A9FED681AB2EEF0
:10577000040AFEF749F806F075F80090644C04F14D
:105780002406371F9FED63AAF3EE099A04F10C0873
:1057900004F108099FED608ADFED608A9FED609A51
:1057A000012240212846FBF799FC01A803F068F884
:1057B0003146384605F0DEF9BDF9160000EE100A54
:1057C000F8EEC00AB0EE690A00EE8A0A84ED040A17
:1057D000BDF80A00A082BDF80C00E082BDF80E0002
:1057E0002083BDF810006083BDF81200A083BDF8CF
:1057F0001400E08343464A46211D454803F006FF56
:10580000B4F91E0000EE100AB4F91C00F8EEC00A4C
:1058100080EE880A80EE281A00EE100AB4F91A0009
:10582000F8EEC00A80EE880AC0EE280A00EE100AE0
:10583000B4F91800B8EEC00AC0EE081A81EEA80A42
:1058400001EE900AB4F91600F8EEE11A61EE892A29
:1058500001EE900AB4F91400F8EEE11A21EE892A5B
:1058600001EE900AF8EEE11A61EE891AFFF71AFCD0
:10587000B4F91E0000EE100AB4F91C00F8EEC00ADC
:1058800080EE880A80EE281A00EE100AB4F91A0099
:10589000F8EEC00A80EE880AC0EE280A00EE100A70
:1058A000B4F91800B8EEC00AC0EE081A81EEA80AD2
:1058B00001EE900AB4F91600F8EEE11A61EE892AB9
:1058C00001EE900AB4F91400F8EEE11A21EE892AEB
:1058D00001EE900AF8EEE11A61EE891AFEF790F8EF
:1058E000FFF7ECFC002240212846FBF7F7FB0121E3
:1058F000684605F0DBFA53E7000802400004024066
:1059000000007A44000000006F12833A8096184B22
:10591000700200200000003C333383413333654282
:105920000000003A10B54FF0E020006905F08CFF50
:10593000012803D0BDE8104005F0A6BC10BD000052
:1059400030B593B0302107A8FAF734FE142102A82D
:10595000FAF730FE00251D48016841F080510160D2
:10596000006800F0805001901948016841F48041BE
:105970000160006800F4804001900120079000045D
:10598000089002240D9480010E9006200F90A8200C
:10599000109011940720129007A8FCF79DFA08B107
:1059A000FAF7D2FF0F200290039404954FF4A05011
:1059B00005904FF480500690052102A8FCF76CF981
:1059C000002801D0FAF7C0FF13B030BD40380240C4
:1059D000007000400248016841F4700101607047A6
:1059E00088ED00E00148FDF746B90000C004002042
:1059F0000148FDF740B90000480700202DE9F041BB
:105A00000268264D264E274FDFF89CC0274B4FF0EB
:105A10008048A84209D0404507D0B04205D0B842DE
:105A200003D0604501D0984203D122F070044A6847
:105A30002243A8421BD0404519D0B04217D0B842EB
:105A400015D0604513D0984211D0194CA0420ED009
:105A5000184CA0420BD0184CA04208D0174CA042C2
:105A600005D0174CA04202D0164CA04203D122F41C
:105A70004074CA6822434C6922F0800222430260CB
:105A80008A68C2620A688262A84201D0984201D143
:105A90000969016301214161BDE8F0810000014015
:105AA0000004004000080040000C004000040140D9
:105AB00000400140004401400048014000180040FF
:105AC000001C00400020004010B5846824F47F448E
:105AD00042EA03220A432243826010BD826822F018
