:020000040800F2
:100000002071002029030008713E00086D370008A8
:100010006D3E0008C1070008517300080000000091
:10002000000000000000000000000000690200085D
:100030005908000800000000C5020008AD43000890
:100040004303000843030008430300084303000878
:100050004303000843030008430300084303000868
:100060004303000843030008430300084303000858
:100070004303000843030008430300084303000848
:100080004303000843030008430300084303000838
:100090004303000843030008430300084303000828
:1000A0004303000843030008430300084303000818
:1000B0004303000843030008430300084303000808
:1000C00043030008430300084303000843030008F8
:1000D00043030008430300084303000843030008E8
:1000E00043030008430300084303000843030008D8
:1000F000430300088D44000843030008430300083D
:1001000043030008430300084303000843030008B7
:1001100043030008430300084303000843030008A7
:100120004303000843030008430300084303000897
:100130004303000843030008430300084303000887
:10014000430300084303000843030008753E00080A
:100150004303000843030008430300084303000867
:100160004303000843030008430300084303000857
:100170004303000843030008430300080000000095
:10018000430300084303000800F002F800F05CF8A5
:100190000AA090E8000C82448344AAF10107DA45E2
:1001A00001D100F051F8AFF2090EBAE80F0013F0D8
:1001B000010F18BFFB1A43F00103184764920000B7
:1001C000849200000A444FF0000C10F8013B13F039
:1001D000070408BF10F8014B1D1108BF10F8015BA0
:1001E000641E05D010F8016B641E01F8016BF9D193
:1001F00013F0080F1EBF10F8014BAD1C0C1B09D1EA
:100200006D1E58BF01F801CBFAD505E014F8016B5B
:1002100001F8016B6D1EF9D59142D6D370470000ED
:100220000023002400250026103A28BF78C1FBD8FF
:10023000520728BF30C148BF0B6070471FB509F097
:10024000C5F81FBD10B510BD00F0D0F91146FFF77D
:10025000F5FF07F09FF800F0EEF903B4FFF7F2FFA7
:1002600003BC00F0F5F900002C4B19680868B0E8F1
:10027000F04F80F30988BFF36F8F4FF0000080F3D9
:10028000118870470000000008480068006880F38B
:1002900008884FF0000080F3148862B661B6BFF39F
:1002A0004F8FBFF36F8F00DF00BF00BF08ED00E08E
:1002B000DFF80C00016841F470010160704700BF75
:1002C00088ED00E0EFF30980BFF36F8F134B1A68DE
:1002D0001EF0100F08BF20ED108A20E9F04F1060CB
:1002E00009B44FF0500080F31188BFF34F8FBFF374
:1002F0006F8F08F067F94FF0000080F3118809BC98
:1003000019680868B0E8F04F1EF0100F08BFB0EC95
:10031000108A80F30988BFF36F8F70478000002038
:10032000EFF30580704700000948804709480047FF
:10033000FEE7FEE7FEE7FEE7FEE7FEE7FEE7FEE795
:10034000FEE7FEE704480549054A064B70470000F2
:100350007944000889010008206B002020710020EA
:10036000206D0020206D002053EA020C00F069800F
:100370002DE9F04B4FF00006002B1FBFB3FA83F5B9
:1003800003FA05F424FA05F65E4012BF1643B2FAEA
:1003900082F502FA05F4C5F120051EBF22FA05FC1C
:1003A00044EA0C04203556EA044C4FEA144418BFC2
:1003B000641C4FF000084FF00009904271EB030CF1
:1003C00039D3002919BFB1FA81F701FA07F6B0FA5B
:1003D00080F700FA07F6C7F120071EBF20FA07FCD6
:1003E00046EA0C062037B6FBF4FCA7EB0507103FE6
:1003F00007F01F0BCBF120060CFA0BFB2CFA06F6CC
:1004000044BFB3460026202FA4BF5E464FF0000B2A
:100410005BEA060C08BF4FF0010B19EB0B09ABFBB5
:10042000027C48EB0608C01B06FB02CC0BFB03CC8E
:1004300071EB0C01C1E70B46024641464846BDE858
:10044000F08B13B54FF000004FF00001AFF30080C8
:10045000BDE81C407047032A40F2308010F0030CC6
:1004600000F0158011F8013BBCF1020F624498BF07
:1004700011F801CB00F8013B38BF11F8013BA2F1A4
:10048000040298BF00F801CB38BF00F8013B11F01F
:10049000030300F02580083AC0F0088051F8043BBF
:1004A000083A51F804CBA0E80810F5E7121D5CBF2C
:1004B00051F8043B40F8043BAFF30080D20724BF5F
:1004C00011F8013B11F801CB48BF11F8012B24BFF3
:1004D00000F8013B00F801CB48BF00F8012B704742
:1004E00010B5203AC0F00B80B1E81850203AA0E8CF
:1004F0001850B1E81850A0E81850BFF4F5AF5FEA03
:10050000027C24BFB1E81850A0E8185044BF18C9B5
:1005100018C0BDE810405FEA827C24BF51F8043B5C
:1005200040F8043B08BF7047D20728BF31F8023BB0
:1005300048BF11F8012B28BF20F8023B48BF00F844
:10054000012B704702F0FF0343EA032242EA024212
:1005500000F02CB84FF0000200B5134694469646C2
:10056000203922BFA0E80C50A0E80C50B1F12001C6
:10057000BFF4F7AF090728BFA0E80C5048BF0CC074
:100580005DF804EB890028BF40F8042B08BF7047D2
:1005900048BF20F8022B11F0804F18BF00F8012B44
:1005A00070477047704770474FF000020429C0F051
:1005B000128010F0030C3FF4CFAFCCF1040CBCF16F
:1005C000020F18BF00F8012BA8BF20F8022BA1EBE7
:1005D0000C01FFF7C1BF5FEAC17C24BF00F8012B0B
:1005E00000F8012B48BF00F8012B7047754600F05A
:1005F0002BF8AE4605006946534620F007008546B5
:1006000018B020B5FFF79EFEBDE820404FF0000671
:100610004FF000074FF000084FF0000B21F00701EA
:10062000AC46ACE8C009ACE8C009ACE8C009ACE82D
:10063000C0098D46704710B50446AFF300802046D0
:10064000BDE81040FFF709BE00487047BC6A0020B3
:1006500001491820ABBEFEE72600020070470000EB
:1006600055494A6822F440324A604A6843681A434E
:100670004A600268526822F4807203685A60026815
:100680005368026943EA022203685A6002685268AA
:1006900022F0407203685A600268526883681A4305
:1006A00003685A600268926822F4006203689A60E4
:1006B00002689268C3681A4303689A603F4B826A73
:1006C0009A4218D00268926822F0706203689A60B9
:1006D00002689268836A1A4303689A6002689268A3
:1006E00022F0405203689A6002689268C36A1A4313
:1006F00003689A600BE00268926822F070620368F7
:100700009A600268926822F0405203689A60026818
:10071000926822F0020203689A6002689368027E7F
:1007200043EA420203689A602022125CA2B1026886
:10073000526842F4006203685A600268526822F408
:10074000604203685A6002685368426A521E43EA74
:10075000423203685A6005E00268526822F400627F
:1007600003685A600268D26A22F470020368DA628F
:100770000268D36A828B521E43EA02520368DA622D
:100780000268926822F4007203689A6002689368B3
:1007900090F8302043EA422203689A600268926827
:1007A00022F4806203689A6002689368426943EAAF
:1007B000822203689A607047002301400100000F05
:1007C00000BFFEE70346042B15D007DC7BB1012BED
:1007D0000ED0022B0DD0032B12D10BE0202B0BD00F
:1007E000212B0AD0222B09D0232B09D107E008E0C6
:1007F00007E006E005E004E003E002E001E000E0DD
:1008000000BF00BF002070470020704710B50022D5
:100810000449054804F077FB0449034804F064FBED
:10082000002010BDBC120020E0050020BC0A002002
:1008300070B504460D462146034804F055FB0248B6
:1008400004F01EFB002070BDE005002010B503463B
:100850000C460021084610BD704772B600BFFEE787
:1008600070B50A480468001D0568001D0668344418
:1008700054B108220649204602F07AFF04220449B6
:100880001031284602F074FF70BD0000107AFF1F7F
:100890004200002038B502460020009000BF92F8C8
:1008A0003C00012801D1022038BD012082F83C0023
:1008B00000BF0868092816D91068C0680C780A3C7F
:1008C00004EB44050724AC40A0431468E0600C78B6
:1008D0000A3C04EB44048868A0401468E4682043A0
:1008E0001468E06013E0106800690C7804EB4405BC
:1008F0000724AC40A043146820610C7804EB440446
:100900008868A040146824692043146820614868FE
:10091000072817D21068406B0C79641E04EB84051D
:100920001F24AC40A04314686063088880B20C792F
:10093000641E04EB8404A0401468646B20431468B4
:10094000606331E048680D2817D21068006B0C799D
:10095000E41F04EB84051F24AC40A043146820630B
:10096000088880B20C79E41F04EB8404A04014686A
:10097000246B20431468206316E01068C06A0C7969
:100980000D3C04EB84051F24AC40A0431468E062D6
:10099000088880B20C790D3C04EB8404A0401468F4
:1009A000E46A20431468E062194B1A4C1068A042B4
:1009B00006D10868122803D1586840F480005860B6
:1009C000144C1068A0421CD10868102802D0086896
:1009D000112816D1586840F40000586008681028A3
:1009E0000FD10D4800680D4CB0FBF4F000EB800017
:1009F0004000009002E00098401E009000980028FF
:100A0000F9D100BF002082F83C0000BF00BF4BE7D7
:100A100000230140002001407C00002040420F00E4
:100A200070B5044600250CB9012070BD1549A06AB7
:100A3000884200D000BF206C30B9204600F024F876
:100A40000020606484F83C00206C00F0100088B93D
:100A5000206C20F4885040F0020020642046FFF70C
:100A6000FFFD00206064206C20F0020040F00100D7
:100A7000206400E0012500BF002084F83C0000BF96
:100A80002846D2E70100000F10B586B004461421B5
:100A900001A8FFF75FFD1949206888422BD100BFEC
:100AA000002000901648006840F4807014490860E7
:100AB0000846006800F48070009000BF00BF00BFCF
:100AC000002000900E481438006840F001000C49E6
:100AD000143908600846006800F00100009000BF6B
:100AE00000BF10200190032002900020039001A974
:100AF000044800F01DF806B010BD000000200140C1
:100B0000443802400000024070B5044600F010F97D
:100B100006462546681C10B104480078054400BF0D
:100B200000F006F9801BA842FAD370BD78000020BF
:100B3000F8B502460B460025002400200021D6E02F
:100B4000012606FA01F51E6806EA0504AC4274D1D6
:100B50001E7906F00306012E04D01E7906F0030666
:100B6000022E13D190684F000326BE40B0434F00C1
:100B7000DE68BE4030439060506801268E40B0432E
:100B80001E79C6F300168E40304350601E7906F081
:100B90000306032E09D0D0684F000326BE40B043A1
:100BA0004F009E68BE403043D0601E7906F00306B9
:100BB000022E13D1CF0802F1200656F827004E0767
:100BC000F70E0F26BE40B0434F07FF0E1E69BE4012
:100BD0003043CF0802F1200646F8270010684F0086
:100BE0000326BE40B0431E7906F003064F00BE4008
:100BF000304310605E6806F44036002E76D000BFA9
:100C0000002600963C4E366846F480463A4F3E60D9
:100C10003E46366806F48046009600BF00BF374E59
:100C20008F0856F827008E07370F0F26BE40B043B7
:100C3000334EB24202D1002624E057E0314EB24298
:100C400001D101261EE0304EB24201D1022619E048
:100C50002E4EB24201D1032614E02D4EB24201D1F4
:100C600004260FE02B4EB24201D105260AE02A4E9F
:100C7000B24201D1062605E0284EB24201D1072634
:100C800000E008268F073F0FBE4030431B4E8F0801
:100C900046F82700224E3068A0435E6806F48016AE
:100CA00006B120431E4E3060361D3068A0435E689A
:100CB00006F4001606B12043194E361D3060184E5A
:100CC000361F3068A0435E6806F4003606B1204344
:100CD000134E361F3060361F3068A0435E6806F43E
:100CE000803606B120430E4E083E3060491C102964
:100CF000FFF426AFF8BD0000443802400838014038
:100D0000000002400004024000080240000C0240C3
:100D1000001002400014024000180240001C024073
:100D2000083C01400AB1816101E00B048361704716
:100D30000148006870470000700000200348006808
:100D40000349097808440149086070477000002091
:100D50007800002010B50D48006840F400700B4981
:100D600008600846006840F4806008600846006833
:100D700040F480700860032000F0DCF80F2000F0E1
:100D800007F800F05FF8002010BD0000003C0240B2
:100D90002DE9F04188B004460027B84600BF002086
:100DA00001902348006840F480702149086008469B
:100DB000006800F48070019000BF00BF02A903A882
:100DC00001F074F8069F1FB901F098F8054602E09B
:100DD00001F094F845001748B5FBF0F0A0F10108C8
:100DE00015481649086040F2E7311448C160C0F860
:100DF0000480002101618160816101F061FF06468C
:100E000096B90E4801F0D6FF06466EB92D2000F0C7
:100E100043F8102C07D2002221462D2000F04CF878
:100E20000748046000E00126304608B0BDE8F081C4
:100E30004038024040420F0000200040980500204A
:100E40007400002008B500BF002000901148006821
:100E500040F480400F4908600846006800F4804074
:100E6000009000BF00BF00BF00200090081F006876
:100E700040F08050091F08600846006800F080506C
:100E8000009000BF00BF00220F21901E00F014F858
:100E900008BD00004438024001460846002809DB2E
:100EA00000F01F0301229A4043099B0003F1E02355
:100EB000C3F8002100BF70472DE9F05F80460D4662
:100EC0001646002706F046FA074639462A463346B4
:100ED00001F00700C0F1070ABAF1040F02D94FF080
:100EE000040A01E0C0F1070AD14600F1040ABAF190
:100EF000070F02D24FF0000A01E0A0F1030AD44626
:100F00004FF0010A0AFA09FAAAF1010A0AEA020AEA
:100F10000AFA0CFA4FF0010B0BFA0CFBABF1010BC8
:100F20000BEA030B4AEA0B042146404606F01AFA84
:100F3000BDE8F09F00BF00F00702064B19684FF6AE
:100F4000FF031940044B0B4343EA0221014B196094
:100F500000BF70470CED00E00000FA057047024644
:100F60001068416200207047F0B5034615461868C6
:100F7000446A21B944EA05401E68B06219E0186865
:100F8000806A04EB1044002208E0186800F58270C3
:100F900050F8220004EB1044501CC2B2481E90428C
:100FA000F3D844EA0547186800F582704E1E40F8F1
:100FB00026700020F0BD10B50446D4F8080504F0F2
:100FC0008EFC10BD70B504460D4605EBC50304F15B
:100FD0003C0101EB83010A692946D4F8080504F0B5
:100FE00079FB70BD70B504460D4605EBC50304F5ED
:100FF0001F7101EB83010A692946D4F8080504F042
:10100000EDFB70BD10B50446D4F8080504F06AFC89
:1010100010BD2DE9F04104460D4605F08000802802
:1010200008D105F00F0000EBC00104F13C0000EB1B
:10103000810607E005F00F0000EBC00104F51F700A
:1010400000EB81063146206805F03EFF0746384632
:10105000BDE8F08170B504460E4606F08000802899
:101060000AD106F00F0000EBC00104F13C0000EBD8
:1010700081050120687009E006F00F0000EBC00157
:1010800004F51F7000EB81050020687006F00F006A
:10109000287000BF94F8BC04012801D1022070BD63
:1010A000012084F8BC0400BF2946206805F0ECF953
:1010B00000BF002084F8BC0400BF00BFEFE770B59C
:1010C00004460E4606F00F006168884201D90120EF
:1010D00070BD06F0800080280AD106F00F0000EBFA
:1010E000C00104F13C0000EB81050120687009E0BB
:1010F00006F00F0000EBC00104F51F7000EB810546
:10110000002068700020A87006F00F00287000BF53
:1011100094F8BC04012801D10220D9E7012084F809
:10112000BC0400BF2946206805F096FC00BF0020E3
:1011300084F8BC0400BF00BFCAE7024601F00F00FC
:1011400000EBC00302F51F7000EB8300006A7047DC
:101150002DE9F04705460E4690461F464FF0000920
:1011600006F0800080280AD106F00F0000EBC001D5
:1011700005F13C0000EB81040120607009E006F0FD
:101180000F0000EBC00105F51F7000EB810400208B
:10119000607006F00F002070C4F80C802771607832
:1011A00008B120782081022F01D10020607100BF9A
:1011B00095F8BC04012802D10220BDE8F087012087
:1011C00085F8BC0400BF2146286805F073F800BF0D
:1011D000002085F8BC0400BF4846EEE72DE9F04149
:1011E00004460E461746984606F00F0000EBC00175
:1011F00004F51F7000EB81052F61C5F818800020F1
:101200002862687006F00F0028702069012800D15C
:101210006F6106F00F0028B9227C2946206805F08E
:10122000F5FA04E0227C2946206805F0A9FC00209C
:10123000BDE8F08170B504460D4605F00F00616809
:10124000884201D9012070BD05F0800080280AD1B4
:1012500005F00F0000EBC00104F13C0000EB81063B
:101260000120707007E005EBC50104F51F7000EB6D
:101270008106002070700120B07005F00F00307002
:1012800000BF94F8BC04012801D10220DBE7012053
:1012900084F8BC0400BF3146206805F024FC05F04A
:1012A0000F0028B9217C04F2C442206805F09CFBA1
:1012B00000BF002084F8BC0400BF00BFC3E72DE9D5
:1012C000F04104460E461746984606F00F0000EB24
:1012D000C00104F13C0000EB81052F61C5F81880C6
:1012E000002028620120687006F00F002870206935
:1012F000012800D16F6106F00F0028B9227C294631
:10130000206805F083FA04E0227C2946206805F075
:1013100037FC0020BDE8F0812DE9FE4F0446D4F8EB
:1013200000B05E46206805F0B6FE002874D1206843
:1013300005F0F0FE08B9BDE8FE8F40F608008059C0
:10134000C0F30D20C4F8FC04206805F0E3FE00F0B3
:101350000200022805D12068406900F002002168DF
:101360004861206805F0D6FE00F01000102845D135
:101370002068806920F0100021688861DBF82090E7
:1013800009F00F0000EBC00104F51F7000EB810AAB
:10139000C9F3434002281AD147F6F07009EA000069
:1013A00030B3C9F30A125846DAF8101005F0B7FE48
:1013B000C9F30A11DAF810000844CAF81000C9F39A
:1013C0000A11DAF820000844CAF8200010E0C9F336
:1013D000434006280CD1082204F2C441584605F0C7
:1013E0009EFEC9F30A11DAF820000844CAF820006A
:1013F0002068806940F0100021688861206805F04D
:1014000089FE00F40020B0F5002F7BD10025206874
:1014100005F050FE029072E0E1E2029800F0010057
:10142000002868D0E9B2206805F067FE804608F021
:10143000010048B1012106F5306000EB45108160E4
:101440002946204602F050FD08F00800082809D17E
:10145000082106F5306000EB4510816029462046E2
:1014600002F010FD08F01000102805D1102106F53B
:10147000306000EB4510816008F00200022824D1A2
:10148000DBF8140000F08000802807D140F604004B
:10149000805940F4806140F60400815105EBC5019C
:1014A00004F51F7000EB810A9AF80300012806D1A9
:1014B00000208AF80300E9B2204600F09BFA0221DE
:1014C00006F5306000EB4510816008F02000202810
:1014D00005D1202106F5306000EB4510816008F44D
:1014E0000050B0F5005F06D14FF4005106F53060B2
:1014F00000EB451081606D1C029840080290029834
:1015000000288AD1206805F005FE00F48020B0F59F
:10151000802F7DD1206805F0C3FD029000259AE060
:10152000029800F00100002873D0E9B2206805F0AD
:10153000CBFD804608F00100F0B305F00F0101205B
:101540008840019040F634008159019821EA00005A
:1015500040F634018851012106F5106000EB45107A
:1015600081602069012824D105EBC50104F13C000C
:1015700000EB810005EBC502016904F13C0000EBC2
:101580008200C068014405EBC50204F13C0000EB99
:10159000820001616DB905EBC50104F13C0000EB6F
:1015A0008100806928B904F2C4420121206805F055
:1015B0001BFAE9B2204600E001E0FFF703FD08F066
:1015C0000800082805D1082106F5106000EB451039
:1015D000816008F01000102805D1102106F5106078
:1015E00000EB4510816008F04000402805D1402103
:1015F00006F5106000EB4510816008F0020002283B
:101600001DD12946584605F007FD05EBC50101E04F
:1016100025E01CE004F13C0000EB810A9AF803008D
:10162000012806D100208AF80300E9B2204600F024
:10163000D8F9022106F5106000EB4510816008F032
:101640008000802803D12946204602F0EFFC6D1C63
:10165000029840080290029800287FF461AF206849
:1016600005F058FD00F00040B0F1004F1CD140F6ED
:101670000400805920F0010140F60400815194F8E3
:10168000F404012807D1002084F8F4040021204646
:10169000FFF764FC02E0204600F0D4FA20684069BD
:1016A00000F0004021684861206805F033FD00F437
:1016B0000060B0F5006F0ED140F60800805900F0D0
:1016C000010010B1204600F015FB2068406900F4CD
:1016D000006021684861206805F01CFD00F480501E
:1016E000B0F5805F7ED140F60400805920F0010102
:1016F00040F6040081511021206805F08DFC002780
:1017000032E04FF67F3106F5106000EB4710816044
:1017100006F5106000EB4710006820F4001106F594
:10172000106000EB471001604FF67F3106F5306026
:1017300000EB4710816006F5306000EB4710006851
:1017400020F4001106F5306000EB4710016006F54B
:10175000306000EB4710006840F0006106F5306033
:1017600000EB471001607F1C6068B842C9D840F6A2
:101770001C00805940F0011140F61C008151206B83
:1017800070B1D6F8840840F00B01C6F8841840F612
:101790004400805940F00B0140F6440081510FE0B5
:1017A00040F61400805942F22B01084340F6140120
:1017B0008851081F805940F00B014FF4016081519E
:1017C000D6F8000820F4FE60C6F80008217C04F278
:1017D000C442206805F008F92068406900F4805090
:1017E000216800E000E04861206805F093FC00F407
:1017F0000050B0F5005F17D1206804F0C3FD2068E9
:1018000005F036FCE06000F073FB0090227B20685E
:10181000009905F007FD204600F0FCF920684069BA
:1018200000F4005021684861206805F073FC00F066
:101830000800082808D1204600F00BFA206840690B
:1018400000F0080021684861206805F063FC00F0A2
:101850008000802818D1DBF8180020F08000CBF839
:10186000180001250DE005EBC50104F51F7000EB24
:101870008100C078012803D1E9B22046FFF7C9FBF7
:101880006D1C6068A842EED8206805F043FC00F4A7
:101890008010B0F5801F2DD1012522E006F51060E3
:1018A00000EB4510D0F8009005EBC50104F13C00B9
:1018B00000EB81000079012812D109F00040B0F15D
:1018C000004F0DD1012105EBC50204F13C0000EBF6
:1018D0008200C170E8B240F080012046FFF799FB1A
:1018E0006D1C6068A842D9D82068406900F4801057
:1018F00021684861206805F00DFC00F40010B0F587
:10190000001F44D1012538E006F5306000EB45109A
:10191000D0F8009005EBC50104F51F7000EB8100C5
:101920000079012828D109F00040B0F1004F23D1FF
:1019300009F4803094F8FC1401F0010188421BD1B5
:10194000012105EBC50204F51F7000EB8200C17098
:10195000DBF8180040F08000CBF81800DBF814002A
:1019600000F0800040B940F60400805940F4007156
:1019700040F60400815103E06D1C6068A842C3D8A2
:1019800000BF2068406900F40010216848612068A9
:1019900005F0C0FB00F08040B0F1804F08D1204638
:1019A000FFF709FB2068406900F08040216848612A
:1019B000206805F0AFFB00F0040004280FD1206878
:1019C000D0F8049009F00400042802D12046FFF763
:1019D00019FB2068406840EA09002168486000BFA0
:1019E000A9E470B504460D462946D4F8080503F06D
:1019F000E5FF70BD70B504460D462946D4F80805CC
:101A000004F000F870BD70B58AB0044614B9012026
:101A10000AB070BD266894F8BD0428B9002084F887
:101A2000BC04204600F0A2F8032084F8BD04F06B4B
:101A300000F4807008B900212161206804F0DEFE06
:101A4000282204F110016846FEF74AFD94E80F00D1
:101A500004F0ACFC20B1022084F8BD040120D7E7DB
:101A60000021206805F08BFB002531E0012105EB0A
:101A7000C50204F13C0000EB8200417005EBC5019A
:101A800004F13C0000F8215005EBC50100EB81009A
:101A90000581002105EBC50204F13C0000EB82004A
:101AA000017105EBC50204F13C0000EB8200C1604E
:101AB00005EBC50204F13C0000EB8200016105EB7F
:101AC000C50204F13C0000EB82008161681CC5B2D4
:101AD0006068A842CAD800252AE0002105EBC502AB
:101AE00004F51F7000EB8200417005EBC50104F5A1
:101AF0001F7000F82150002105EBC50200EB8200A9
:101B0000017105EBC50204F51F7000EB8200C16096
:101B100005EBC50204F51F7000EB8200016105EBC7
:101B2000C50204F51F7000EB82008161681CC5B21C
:101B30006068A842D1D8282204F110016846FEF757
:101B4000CFFC94E80F0004F069FD20B1022084F876
:101B5000BD0401205CE7002084F83800012084F8EF
:101B6000BD04206804F048FD002051E710B586B0A0
:101B70000446142101A8FEF7EDFC2068B0F1A04F47
:101B800042D100BF002000902048006840F00100D2
:101B90001E4908600846006800F00100009000BF80
:101BA00000BF4FF4C050019002200290002003902B
:101BB000032004900A20059001A91548FEF7B8FFFC
:101BC00000BF1248001D006840F080000F49091D49
:101BD000086000BF002000900C481430006840F4FA
:101BE00080400A49143108600846006800F48040CB
:101BF000009000BF00BF00BF002205214320FFF777
:101C00005BF94320FFF748F906B010BD30380240B9
:101C10000000024070B504460125E06808B90025BF
:101C200006E0E068022801D1012501E0FEF715FE7B
:101C30002946D4F8080503F08EFFD4F8080503F010
:101C400035FF70BD10B50446D4F8080503F064FFF5
:101C500010BD10B50446D4F8080503F068FF10BDA8
:101C600070B504460D4600BF94F8BC04012801D1AC
:101C7000022070BD012084F8BC0400BF84F83850F5
:101C80002946206805F0AFFA00BF002084F8BC04A4
:101C900000BF00BFEDE710B5044604F2C441D4F81C
:101CA000080503F06FFF10BD70B50446256800BF3E
:101CB00094F8BC04012801D1022070BD012084F8F1
:101CC000BC0400BFA06A012806D1A069012803D086
:101CD000A86B40F48030A863206805F06BF9206899
:101CE00004F078FC00BF002084F8BC0400BF00BFF3
:101CF000E3E7000010B50446D4F8080503F09FFFA1
:101D00002068D0F8000E40F001002168C1F8000EF4
:101D1000206A28B10348006840F0060001490860C5
:101D200010BD000010ED00E070B504460D460CB982
:101D3000012070BD5848006800F00700A84209D291
:101D400055490D700846006800F00700A84201D010
:101D50000120EEE7207800F0020002281DD1207853
:101D600000F00400042805D14C48006840F4E0501D
:101D70004A490860207800F00800082805D1474843
:101D8000006840F46040454908604448006820F01D
:101D9000F000A168084341490860207800F0010084
:101DA000A8B36068012807D13C4808380068C0F330
:101DB0004040B8B90120BCE76068022802D06068E2
:101DC000032807D1354808380068C0F3406048B997
:101DD0000120AEE7314808380068C0F3400008B978
:101DE0000120A6E72D48006820F003006168084341
:101DF0002A490860FEF79CFF064609E0FEF798FFB7
:101E0000801B41F28831884202D9032091E707E024
:101E10002248006800F00C006168B0EB810FEDD142
:101E20001D48006800F00700A84209D91A490D7042
:101E30000846006800F00700A84201D0012078E7BA
:101E4000207800F00400042807D11448006820F42A
:101E5000E050E168084311490860207800F008006C
:101E6000082808D10D48006820F46040216940EA44
:101E7000C1000A49086000F061F808490968C1F327
:101E80000311074A515CC8400649086006480068CB
:101E9000FEF77EFF00204CE7003C0240083802407D
:101EA000FC9300087C000020740000200F220260D8
:101EB0000D4A126802F0030242600B4A126802F0F7
:101EC000F0028260084A126802F4E052C260064AD8
:101ED000126802F46042D2080261044A126802F0F9
:101EE00007020A607047000008380240003C0240C8
:101EF00001480068704700007C00002000B5FFF733
:101F0000F7FF04490968C1F38221034A515CC840C4
:101F100000BD0000083802400C94000800B5FFF72F
:101F2000E7FF04490968C1F34231034A515CC840E4
:101F300000BD0000083802400C9400082DE9F0476D
:101F4000002400250026A1462548006800F00C006A
:101F500020B1042805D008283AD105E0DFF88490A4
:101F600039E0DFF8849036E01D48001F006800F07B
:101F70003F041B48001F006800F4800078B11A4835
:101F80001749091F0968C1F38811A0FB01700146B8
:101F9000224600233846FEF7E7F905460EE01148D1
:101FA0000F49091F0968C1F38811A0FB01700146A0
:101FB000224600233846FEF7D7F905460848001F99
:101FC0000068C0F30140401C4600B5FBF6F902E092
:101FD000DFF8109000BF00BF4846BDE8F087000062
:101FE000083802400024F400001BB700F8B504468E
:101FF0000CB90120F8BD207800F00100002874D051
:10200000F948006800F00C0004280DD0F64800687C
:1020100000F00C00082813D1F348001F006800F4FA
:102020008000B0F5800F0BD1EF4808380068C0F38E
:102030004040002859D06068002856D10120D9E7D7
:1020400000BF6068B0F5803F08D1E74808380068F5
:1020500040F48030E449083908601EE06068B0F55B
:10206000A02F0DD1E0480838006840F48020DE49F8
:10207000083908600846006840F4803008600CE0C9
:10208000D9480838006820F48030D74908390860FA
:102090000846006820F48020086000BF606890B1A6
:1020A000FEF746FE054606E0FEF742FE401B6428AA
:1020B00001D903209EE7CC4808380068C0F34040AF
:1020C0000028F1D011E0FEF733FE054606E0FEF7EA
:1020D0002FFE401B642801D903208BE7C248083833
:1020E0000068C0F340400028F1D1207800F00200E1
:1020F00002285FD1BC48006800F00C0058B1BA4813
:10210000006800F00C0008281CD1B748001F0068C8
:1021100000F48000B0B9B44808380068C0F340004B
:1021200020B1E068012801D0012063E7AE480838FB
:10213000006820F0F800216940EAC100AA49083986
:10214000086037E0E06800B30120A8490860FEF7A6
:10215000EFFD054606E0FEF7EBFD401B022801D926
:10216000032047E7A04808380068C0F34000002873
:10217000F1D09D480838006820F0F800216940EA55
:10218000C10099490839086014E0002097490860A7
:10219000FEF7CEFD054606E0FEF7CAFD401B02280D
:1021A00001D9032026E7904808380068C0F34000B2
:1021B0000028F1D1207800F0080008282CD16069AF
:1021C000A8B101208A490860FEF7B2FD054606E085
:1021D000FEF7AEFD401B022801D903200AE7824822
:1021E0006C300068C0F340000028F1D014E00020FB
:1021F0007F490860FEF79CFD054606E0FEF798FD66
:10220000401B022801D90320F4E677486C300068AF
:10221000C0F340000028F1D1207800F00400042829
:1022200070D1002770483830006800F0805090B9B5
:1022300000BF002000906C483830006840F08050AB
:102240006949383108600846006800F08050009005
:1022500000BF00BF01276748006800F48070B0B974
:102260006448006840F4807062490860FEF760FDD1
:10227000054606E0FEF75CFD401B022801D903205D
:10228000B8E65C48006800F480700028F2D000BF17
:10229000A068012808D154486830006840F0010067
:1022A0005149683108601DE0A06805280DD14E48ED
:1022B0006830006840F004004B4968310860084607
:1022C000006840F0010008600CE047486830006892
:1022D00020F001004449683108600846006820F099
:1022E0000400086000BFA068A8B1FEF721FD054604
:1022F00009E0FEF71DFD401B41F28831884202D9FA
:10230000032077E626E0384868300068C0F34000D4
:102310000028EED013E0FEF70BFD054608E0FEF7BF
:1023200007FD401B41F28831884201D9032061E654
:102330002D4868300068C0F340000028EFD1012F1D
:1023400007D129483830006820F0805026493831BC
:10235000086000BFA069002845D02348006800F04D
:102360000C0008285DD0A069022845D100201F4933
:102370000866FEF7DDFC054606E0FEF7D9FC401BCB
:10238000022801D9032035E6174808380068C0F351
:1023900040600028F1D1D4E907010843616A40EAAE
:1023A00081110122A06AC2EB500041EA00412C20B9
:1023B000005D41EA00600C49091F086001200B49DB
:1023C0000866FEF7B5FC054606E0FEF7B1FC401BCB
:1023D000022801D903200DE6034808380068C0F33D
:1023E00040600028F1D049E0083802400000474230
:1023F000800E474200700040002021490866FEF729
:1024000097FC054606E0FEF793FC401B022801D925
:102410000320EFE51B480068C0F340600028F2D1BC
:102420002CE0A069012800D1E4E51648001D0668EB
:10243000A069012820D006F48001E06981421BD107
:1024400006F03F01206A814216D147F6C070304045
:10245000616AB0EB811F0FD106F440310122A06AFE
:10246000C2EB5000B1EB004F06D106F070612C209A
:10247000005DB1EB006F01D00120BBE50020B9E5A4
:10248000000047420038024010B504460CB9012054
:1024900010BD606A38B96068B0F5827F00D105E090
:1024A0000021E16102E00021216161610021A1625E
:1024B00094F8510028B9002084F85000204600F01C
:1024C00047F8022084F851002068006820F040009E
:1024D00021680860A08800F48270218901F4044119
:1024E0000843A18901F400610843217C01F0020145
:1024F0000843217D01F001010843218B01F40071A3
:102500000843217F01F0380108432021095D01F0D3
:1025100080010843218D01F40051084321680860BF
:102520000421A06901EA104094F8241001F0100180
:102530000843216848602068C06920F40060216871
:10254000C86100206065012084F8510000209FE7E9
:1025500010B586B00446142101A8FDF7FBFF5249CF
:102560002068884230D100BF002000904F480068AA
:1025700040F480504D4908600846006800F48050DF
:10258000009000BF00BF00BF0020009047481438F3
:10259000006840F0010045491439086008460068A9
:1025A00000F00100009000BF00BFE0200190022079
:1025B000029000200390032004900520059001A9BB
:1025C0003B48FEF7B5FA6DE03A492068884233D1BE
:1025D00000BF002000903548001F006840F4804094
:1025E0003249091F08600846006800F480400090E6
:1025F00000BF00BF00BF002000902C4814380068C6
:1026000040F002002949143908600846006800F0CB
:102610000200009000BF00BF4FF460400190022014
:10262000029000200390032004900520059001A94A
:102630002148FEF77DFA35E020492068884231D1F3
:1026400000BF002000901948001F006840F40040BF
:102650001649091F08600846006800F40040009011
:1026600000BF00BF00BF0020009010481438006871
:1026700040F002000D49143908600846006800F077
:102680000200009000BF00BF38200190022002909D
:1026900000200390032004900620059001A906481D
:1026A000FEF746FA06B010BD003001404438024043
:1026B000000002400038004000040240003C00409E
:1026C0002DE9F8430446884616461D464FF000099A
:1026D0006068B0F5827F0DD1A06858B9042084F8F5
:1026E00051003346424641462046009500F077F9B6
:1026F000BDE8F88300BF94F85000012801D1022002
:10270000F6E7012084F8500000BFFEF711FB0746F2
:1027100094F85100012802D04FF002097EE0B8F190
:10272000000F00D016B94FF0010977E0042084F8BB
:10273000510000206065C4F83880A687E6872063D2
:10274000A086E08620646064A068B0F5004F0BD1DD
:102750002068006820F04000216808602068006858
:1027600020F48040216808602068006800F0400084
:10277000402805D02068006840F0400021680860CB
:10278000E068F8B91AE02068806800F0010050B1F4
:102790002068007BA16B0870A06B401CA063E08FD9
:1027A000401EE0870AE0FEF7C3FAC01BA84201D32F
:1027B000681C00B915B94FF003092FE0E08F00281D
:1027C000E1D11EE01AE02068806800F0010050B1FD
:1027D0002068C068A16B0880A06B801CA063E08F9C
:1027E000401EE0870AE0FEF7A3FAC01BA84201D30F
:1027F000681C00B915B94FF003090FE0E08F0028FD
:10280000E1D13A462946204601F06BFC08B1202070
:102810006065606D08B14FF0010900BF012084F8C8
:10282000510000BF002084F8500000BF48465FE719
:102830002DE9F84F0446884616461D464FF0000A1B
:1028400000BF94F85000012802D10220BDE8F88FA3
:10285000012084F8500000BFFEF76AFA0746B1462F
:1028600094F85100012802D04FF0020AADE0B8F10F
:10287000000F00D016B94FF0010AA6E0032084F83B
:10288000510000206065C4F83080A686E686A0630B
:10289000A087E08760642064A068B0F5004F0BD18A
:1028A0002068006820F04000216808602068006807
:1028B00040F48040216808602068006800F0400013
:1028C000402805D02068006840F04000216808607A
:1028D000E068B0F5006F2FD1606810B1B9F1010F59
:1028E00009D1206B00882168C860206B801C2063A0
:1028F000E08E401EE0861BE02068806800F0020049
:1029000002280AD1206B00882168C860206B801CD7
:102910002063E08E401EE0860AE0FEF709FAC01B45
:10292000A84201D3681C00B915B94FF0030A4CE066
:10293000E08E0028E0D12EE0606810B1B9F1010FFF
:1029400009D1206B007821680873206B401C20633C
:10295000E08E401EE0861BE02068806800F00200E8
:1029600002280AD1206B007821680873206B401C74
:102970002063E08E401EE0860AE0FEF7D9F9C01B16
:10298000A84201D3681C00B915B94FF0030A1CE036
:10299000E08E0028E0D13A462946204601F0ECFBC3
:1029A00008B120206065A06850B900BF00200090E9
:1029B0002068C068009020688068009000BF00BF59
:1029C000606D08B14FF0010A00BF012084F851008A
:1029D00000BF002084F8500000BF504636E72DE9C4
:1029E000FF5F0446884691461D460E9E01200290D8
:1029F0000020019000BF94F85000012803D102206C
:102A000004B0BDE8F09F012084F8500000BFFEF73D
:102A10008FF9074694F851B060680390AA46BBF15D
:102A2000010F0BD00398B0F5827F04D1A06810B9D4
:102A3000BBF1040F02D002200190DBE0B8F1000FDF
:102A400003D0B9F1000F00D015B901200190D1E0F9
:102A500094F85100042802D0052084F85100002089
:102A60006065C4F83890E587A587C4F83080E586AE
:102A7000A586206460642068006800F0400040285B
:102A800005D02068006840F0400021680860E068D8
:102A9000B0F5006F4AD1606810B1BAF1010F09D1E9
:102AA000206B00882168C860206B801C2063E08E4A
:102AB000401EE08633E02068806800F002000228B3
:102AC00010D1E08E70B1029801280BD1206B0088E4
:102AD0002168C860206B801C2063E08E401EE08669
:102AE000002002902068806800F0010068B1E08F4B
:102AF00058B12068C068A16B0880A06B801CA063DF
:102B0000E08F401EE08701200290FEF711F9C01B04
:102B1000B04204D3701C10B1032001906AE0E08E33
:102B20000028C8D1E08F0028C5D14AE0606810B104
:102B3000BAF1010F09D1206B007821680873206B6E
:102B4000401C2063E08E401EE08634E020688068F0
:102B500000F00200022810D1E08E70B10298012826
:102B60000BD1206B007821680873206B401C206318
:102B7000E08E401EE086002002902068806800F011
:102B8000010068B1E08F58B12068C068A16B08707F
:102B9000A06B401CA063E08F401EE08701200290E4
:102BA000FEF7C6F8C01BB04201D3701C00B916B9BD
:102BB000032001901EE0E08E0028C7D1E08F00289E
:102BC000C4D13A463146204601F0D6FA20B1012060
:102BD0000190202060650DE0A06850B900BF002082
:102BE00000902068C068009020688068009000BF56
:102BF00000BF00BF012084F8510000BF002084F80E
:102C0000500000BF0198FBE67047704730B50246A0
:102C10000B4600BF92F83C00012801D1022030BDD4
:102C2000012082F83C0000BF022082F83D001068BD
:102C300044681068816824F07004186804431068C0
:102C40004460184D1068A8421BD01068B0F1804F46
:102C500017D0154D1068A84213D0144D1068A84223
:102C60000FD0134D1068A8420BD0124D1068A84227
:102C700007D0114D1068A84203D0104D1068A8422B
:102C800005D121F08001586801431068816001205E
:102C900082F83D0000BF002082F83C0000BF00BF6A
:102CA000BDE70000000001400004004000080040B3
:102CB000000C0040000401400040014000180040AA
:102CC00010B504460CB9012010BD94F83D0028B998
:102CD000002084F83C00204600F026F8022084F80A
:102CE0003D00211D206801F0D9FB012084F8460039
:102CF00000BF84F83E0001213F20015540200155CE
:102D00004120015500BF00BF012084F8420043204C
:102D10000155442001554520015500BF012084F88C
:102D20003D000020D0E7000008B50168B1F1804FF8
:102D30000FD100BF002100911B49096841F001013A
:102D4000194A11601146096801F00101009100BFA4
:102D500029E0164A016891420FD100BF002100917D
:102D60001149096841F004010F4A116011460968D0
:102D700001F00401009100BF15E00D4A0168914285
:102D800011D100BF002100910749091D096841F4D4
:102D90008031054A121D11601146096801F4803125
:102DA000009100BF00BF08BD40380240000800404D
:102DB00000400140014691F83D00012801D001206A
:102DC0007047022081F83D000868C06840F00100AB
:102DD0000B68D8601A4B086898421BD00868B0F19D
:102DE000804F17D0174B0868984213D0164B0868CD
:102DF00098420FD0154B086898420BD0144B0868C6
:102E0000984207D0134B0868984203D0124B0868C9
:102E100098420CD10868806800F00702062A0CD09E
:102E20000868006840F001000B68186005E0086859
:102E3000006840F001000B6818600020C0E7000047
:102E4000000001400004004000080040000C004069
:102E50000004014000400140001800402DE9F0410D
:102E600004460D46002700BF94F83C00012802D11B
:102E70000220BDE8F081012084F83C0000BF022060
:102E800084F83D002068866826F0770626F47F46A1
:102E9000206886602868502833D00CDC202850D069
:102EA00004DC00284BD0102851D149E0302849D00B
:102EB00040284CD139E060282DD0702807D0B0F5DB
:102EC000805F03D0B0F5005F41D10DE041E0D5E96E
:102ED00002136A68206801F04DFB2068866846F09E
:102EE00077062068866034E0D5E902136A682068B6
:102EF00001F040FB2068806840F4804021688860D1
:102F000027E0EA686968206801F024FC5021206805
:102F100001F03BFB1DE0EA686968206801F02DFCC8
:102F20006021206801F031FB13E0EA6869682068DD
:102F300001F010FC4021206801F027FB09E000BFF0
:102F400000BF00BF2968206801F01FFB01E00127D6
:102F500000BF00BF012084F83D0000BF002084F8BE
:102F60003C0000BF384684E7704710B5044620682F
:102F70000069C0F34000D8B12068C068C0F34000C9
:102F8000B0B16FF00200216808610120207720684D
:102F9000806900F0030018B12046FFF7E5FF05E067
:102FA000204600F04DF9204600F01AFA0020207764
:102FB00020680069C0F38000D8B12068C068C0F301
:102FC0008000B0B16FF00400216808610220207712
:102FD0002068806900F4407018B12046FFF7C4FFF4
:102FE00005E0204600F02CF9204600F0F9F9002019
:102FF000207720680069C0F3C000D8B12068C0689D
:10300000C0F3C000B0B16FF008002168086104206F
:1030100020772068C06900F0030018B12046FFF750
:10302000A3FF05E0204600F00BF9204600F0D8F998
:103030000020207720680069C0F30010D8B1206814
:10304000C068C0F30010B0B16FF0100021680861D3
:10305000082020772068C06900F4407018B120462D
:10306000FFF782FF05E0204600F0EAF8204600F076
:10307000B7F9002020772068006900F0010058B1FE
:103080002068C06800F0010030B16FF001002168D5
:103090000861204600F0A6F920680069C0F3C0105E
:1030A00058B12068C068C0F3C01030B16FF0800024
:1030B000216808612046FFF7A7FD20680069C0F37A
:1030C000801058B12068C068C0F3801030B16FF034
:1030D000400021680861204600F090F920680069EE
:1030E000C0F3401058B12068C068C0F3401030B140
:1030F0006FF02000216808612046FFF786FD10BDB3
:1031000010B586B00446142101A8FDF723FA206803
:10311000B0F1804F1DD100BF0020009041480068F1
:1031200040F001003F4908600846006800F00100D7
:10313000009000BF00BF07200190022002900020F5
:10314000039004900120059001A93748FDF7F0FC99
:1031500065E03649206888421DD100BF00200090FC
:103160003048006840F002002E49086008460068B8
:1031700000F00200009000BF00BF0120019002207B
:1031800002900020039004900220059001A9284895
:10319000FDF7CEFC43E02749206888421ED100BFDE
:1031A000002000901F48006840F002001D490860A0
:1031B0000846006800F00200009000BF00BF4FF416
:1031C0007070019002200290002003900490022071
:1031D000059001A91648FDF7ABFC20E016492068D0
:1031E00088421CD100BF002000900E48006840F0CB
:1031F00010000C4908600846006800F010000090BC
:1032000000BF00BF602001900220029000200390C8
:1032100004900320059001A90848FDF789FC06B039
:1032200010BD0000303802400000024000040040A1
:10323000000402400008004000400140001002402D
:1032400070472DE9F04104460D461646002700BFA1
:1032500094F83C00012802D10220BDE8F081012051
:1032600084F83C0000BF36B1042E1BD0082E31D0AC
:103270000C2E5ED145E02946206801F08FF92068C8
:10328000806940F00800216888612068806920F02A
:1032900004002168886120688069296908432168E1
:1032A000886148E02946206801F0B0F9206880690B
:1032B00040F40060216888612068806920F48060A3
:1032C0002168886120688069296940EA01202168B5
:1032D000886130E02946206801F0D6F92068C0698D
:1032E00040F008002168C8612068C06920F004002F
:1032F0002168C8612068C069296908432168C861DC
:1033000019E02946206801F0FBF92068C06940F403
:1033100000602168C8612068C06920F4806021686D
:10332000C8612068C069296940EA01202168C86134
:1033300001E0012700BF00BF00BF002084F83C006F
:1033400000BF384689E710B504460CB9012010BD0E
:1033500094F83D0028B9002084F83C00204600F095
:1033600025F8022084F83D00211D206801F096F820
:10337000012084F8460000BF84F83E0001213F2070
:103380000155402001554120015500BF00BF0120DB
:1033900084F8420043200155442001554520015541
:1033A00000BF012084F83D000020D0E708B50A4A9C
:1033B000016891420FD100BF0021009107490968BF
:1033C00041F00201054A11601146096801F002014D
:1033D000009100BF00BF08BD00040040403802401B
:1033E0007047000010B5044603492068884201D1A7
:1033F000FDF7A4FC10BD000000200040704710B590
:1034000004460CB9012010BDA06900B100E000BF66
:1034100094F83D0028B9002084F83C00204600F0D4
:1034200027F8242084F83D002068C06820F400506C
:103430002168C860204601F0B5F92068006920F4D1
:103440009040216808612068406920F02A002168C6
:1034500048612068C06840F400502168C8600020BE
:103460002064202084F83D0084F83E000020CAE754
:1034700010B586B00446142101A8FDF76BF8B149D8
:103480002068884231D100BF00200090AE4800681B
:1034900040F40020AC4908600846006800F40020B1
:1034A000009000BF00BF00BF00200090A648103869
:1034B000006840F00400A44910390860084600681C
:1034C00000F00400009000BF00BF4FF44060019086
:1034D0000220029000200390032004900820059011
:1034E00001A99A48FDF724FB2AE1994920688842FE
:1034F0004DD100BF002000909348006840F4801038
:10350000914908600846006800F48010009000BFF0
:1035100000BF00BF002000908B481038006840F0CA
:1035200004008949103908600846006800F004006A
:10353000009000BF00BF00BF002000900846006858
:1035400040F0080008600846006800F0080000909D
:1035500000BF00BF88140190022002900020039059
:10356000032004900820059001A97848FDF7E0FAAF
:103570000420019002200290002003900320049078
:103580000820059001A97348FDF7D2FAD8E07249E6
:103590002068884233D100BF002000906A48001D97
:1035A000006840F010006849091D0860084600687E
:1035B00000F01000009000BF00BF00BF002000908E
:1035C00061481038006840F001005F491039086018
:1035D0000846006800F00100009000BF00BF4FF4F3
:1035E000C06001900220029000200390032004900C
:1035F0000720059001A95948FDF79AFAA0E058491B
:103600002068884230D100BF002000904E480068FA
:1036100040F400304C4908600846006800F400306F
:10362000009000BF00BF00BF002000904648103847
:10363000006840F0080044491039086008460068F6
:1036400000F00800009000BF00BF60200190022041
:10365000029000200390032004900720059001A908
:103660003C48FDF765FA6BE03E492068884231D15D
:1036700000BF002000903448006840F480203249A8
:1036800008600846006800F48020009000BF00BF7A
:1036900000BF002000902C481038006840F008005F
:1036A0002949103908600846006800F008000090B9
:1036B00000BF00BF4FF44070019002200290002034
:1036C0000390032004900720059001A92148FDF7ED
:1036D0002FFA35E024492068884231D100BF00200C
:1036E00000901948001D006840F020001649091D8F
:1036F00008600846006800F02000009000BF00BF8E
:1037000000BF0020009010481038006840F004000E
:103710000D49103908600846006800F00400009068
:1037200000BF00BFC0200190022002900020039043
:10373000032004900820059001A90448FDF7F8F93A
:1037400006B010BD004C0040403802400008024066
:1037500000500040000C02400010014000000240F8
:1037600000440040004800400014014000BFFEE754
:1037700030B50B46002100BF16E00A24B4EB107FE1
:1037800005D9302404EB107403F8114005E04124FE
:1037900004EB10740A3C03F81140000100254C00B2
:1037A000641C1D554C1CE1B29142E6DB30BD0000AB
:1037B0001FB5002000900190029003901548164913
:1037C00008604FF480304860002113488160016137
:1037D000017680F82010C162104981620021C16029
:1037E0000121C161002180F8301001214161FDF704
:1037F00017F908B1FDF731F804200090012001907D
:103800000020029069460448FDF744F808B1FDF72E
:1038100024F81FBD00200140900100200100000F8E
:1038200010B5044A0021044803F03AFE0349086039
:1038300010BD0000D8930008D14200080800002005
:1038400000B587B0142102A8FCF784FE00BF002059
:1038500001903D48006840F010003B490860084670
:10386000006800F01000019000BF00BF00BF002002
:1038700001900846006840F0800008600846006833
:1038800000F08000019000BF00BF00BF0020019049
:103890000846006840F0010008600846006800F033
:1038A0000100019000BF00BF00BF0020019008464A
:1038B000006840F0040008600846006800F004005A
:1038C000019000BF00BF00BF0020019008460068C3
:1038D00040F0020008600846006800F00200019015
:1038E00000BF00BF00BF002001900846006840F004
:1038F000080008600846006800F00800019000BF5A
:1039000000BF012230211148FDF70CFA01220221EB
:103910000F48FDF707FA3020029001200390049031
:103920000320059002A90948FDF702F90220029040
:103930000120039004900320059002A90448FDF79C
:10394000F7F807B000BD0000303802400008024020
:103950000004024010B50F480F4908604FF4827010
:10396000486000210C488160C16002210161012191
:103970004161490281611821C161002101624162F6
:1039800081620A21C162FEF77FFD08B1FCF765FF85
:1039900010BD000000300140D801002010B50E48D5
:1039A0000E4908604FF48270486000210B48816026
:1039B000C160016141614FF4007181610021C16109
:1039C0000162416281620A21C162FEF75DFD08B1B8
:1039D000FCF743FF10BD000000380040300200201B
:1039E00010B50E480E4908604FF4827048600021FF
:1039F0000B488160C160016141614FF400718161D8
:103A00000021C1610162416281620A21C162FEF747
:103A10003BFD08B1FCF721FF10BD0000003C004059
:103A20008802002000B58DB0002009900A900B900C
:103A30000C90079008901C216846FCF78BFD4FF016
:103A400080402749086000204860002124488160A8
:103A5000491EC160002101618161FFF731F908B1A0
:103A6000FCF7FBFE4FF48050099009A91C48FFF7B2
:103A7000F5F908B1FCF7F1FE1948FFF764FC08B14D
:103A8000FCF7EBFE00200790089007A91448FFF709
:103A9000BDF808B1FCF7E1FE602000900020019025
:103AA00002900490002269460D48FFF7CAFB08B156
:103AB000FCF7D3FE042269460948FFF7C2FB08B1B0
:103AC000FCF7CBFE082269460548FFF7BAFB08B1B0
:103AD000FCF7C3FE0248FFF713FB0DB000BD00006A
:103AE000E002002000B589B00020079008901C215A
:103AF0006846FCF72FFD1848184908600020486008
:103B00000021164881604FF6FF71C16000210161FC
:103B10008161FFF718FC08B1FCF79FFE00200790B9
:103B2000089007A90D48FFF771F808B1FCF795FE5A
:103B300060200090002001900290049008226946C5
:103B40000648FFF77EFB08B1FCF787FE0348FFF746
:103B5000D7FA09B000BD000000040040280300208F
:103B600000B58DB0002009900A900B900C90079042
:103B700008901C216846FCF7EDFC2C482C49086095
:103B80000020486000212A4881604FF6FF71C16023
:103B9000002101618161FFF793F808B1FCF75DFE38
:103BA0004FF48050099009A92148FFF757F908B14F
:103BB000FCF753FE1E48FFF7C6FB08B1FCF74DFEAD
:103BC00000200790089007A91948FFF71FF808B1CF
:103BD000FCF743FE602000900020019002900490CA
:103BE000002269461248FFF72CFB08B1FCF735FEAE
:103BF000042269460E48FFF724FB08B1FCF72DFEAE
:103C0000082269460A48FFF71CFB08B1FCF725FEAD
:103C10000C2269460648FFF714FB08B1FCF71DFEAD
:103C20000348FFF76DFA0DB000BD0000000800402A
:103C30007003002000B58BB0002007900890099019
:103C40000A901C216846FCF785FC1F481F49086044
:103C50000020486000211D4881604FF6FF71C1605F
:103C6000002101618161FFF72BF808B1FCF7F5FD38
:103C70004FF48050079007A91448FFF7EFF808B1F8
:103C8000FCF7EBFD1148FFF75EFB08B1FCF7E5FD23
:103C9000602000900020019002900490002269466C
:103CA0000A48FFF7CEFA08B1FCF7D7FD04226946AF
:103CB0000648FFF7C6FA08B1FCF7CFFD0348FFF747
:103CC0001FFA0BB000BD000000400140B803002007
:103CD00010B50B480B4908604FF4E13048600021F3
:103CE00008488160C16001610C214161002181614E
:103CF000C161FFF784FB08B1FCF7AFFD10BD000008
:103D0000004C00400004002010B50B480B4908602F
:103D10004FF4E1304860002108488160C1600161D2
:103D20000C21416100218161C161FFF768FB08B18D
:103D3000FCF793FD10BD000000500040440400203B
:103D400010B50B480B4908604FF4E1304860002182
:103D500008488160C16001610C21416100218161DD
:103D6000C161FFF74CFB08B1FCF777FD10BD000007
:103D7000001001408804002010B50B480B49086072
:103D80004FF4E1304860002108488160C160016162
:103D90000C21416100218161C161FFF730FB08B155
:103DA000FCF75BFD10BD000000440040CC04002087
:103DB00010B50B480B4908604FF4E1304860002112
:103DC00008488160C16001610C214161002181616D
:103DD000C161FFF714FB08B1FCF73FFD10BD000007
:103DE000004800401005002010B50B480B49086042
:103DF0004FF4E1304860002108488160C1600161F2
:103E00000C21416100218161C161FFF7F8FA08B11D
:103E1000FCF723FD10BD00000014014054050020F4
:103E200010B500220D490E4801F011FC08B1FCF755
:103E300014FD0C490A4801F03FFF08B1FCF70DFDE5
:103E40000949074801F044F808B1FCF706FD0448A9
:103E500002F034F808B1FCF700FD10BD0C000020A2
:103E6000E0050020100100205C00002000BFFEE7FC
:103E700000BFFEE710B50248FDF74EFA10BD000086
:103E8000BC1A00202DE9F04704460D462668374647
:103E9000D6F8408007F5306000EB4510D0F8089068
:103EA000104880450BD909F40040B0F5004F06D109
:103EB0004FF4004107F5306000EB4510816020466B
:103EC000FDF7E9FE0748804508D92069012805D19A
:103ED00004F2C4420121206802F086FD0020BDE802
:103EE000F08700000A30544F2DE9F04705460C4694
:103EF000D5F800904E46D9F840A006F5306000EBAA
:103F00004410D0F808802869012855D108F008002D
:103F100008280FD1434882450BD908F40040B0F57A
:103F2000004F7BD14FF4004106F5306000EB4410A8
:103F3000816073E008F02000202806D1202106F5DA
:103F4000306000EB4410816068E008F02800002831
:103F500064D1344882450CD908F40040B0F5004FD4
:103F600007D14FF4004106F5306000EB441081604A
:103F700054E004EBC40105F51F7000EB810706F562
:103F8000306000EB4410F9690069C0F31200081AB0
:103F9000386264B9B86930B905F2C44201212868B1
:103FA00002F022FD03E0396A386908443861E1B261
:103FB0002846FDF717F831E01B4882451BD108F46D
:103FC0000040B0F5004F07D14FF4004106F53060D6
:103FD00000EB4410816021E008F02000202805D18A
:103FE000202106F5306000EB44108160E1B22846E4
:103FF000FCF7F8FF12E06CB904EBC40105F51F7083
:1040000000EB8100806928B905F2C44200212868CC
:1040100002F0EAFCE1B22846FCF7E4FF0020BDE82C
:10402000F08700000A30544F0A31544F2DE9F84F01
:1040300007460E46D7F80090C84606EBC60107F1C2
:104040003C0000EB8104A169206A884202D901206A
:10405000BDE8F88F216AA069451AE068A84200D23D
:10406000E568E81C4FEA900A17E0216AA069451A42
:10407000E068A84200D2E568E81C4FEA900A387C64
:10408000ABB2F2B200904846216903F03FF92069D3
:1040900028442061206A2844206208F5106000EB63
:1040A0004610806980B2504506D3A169206A8842D3
:1040B00002D2A0690028D8D1216AA06988420ED80E
:1040C00006F00F01012000FA01FB40F6340050F821
:1040D000080020EA0B0040F6340141F808000020F7
:1040E000B6E7F8B504460E4615466068B0F5827F1F
:1040F0000DD1A068B0F5004F03D0A068B0F5806F77
:1041000005D12068006820F04000216808606068E0
:10411000B0F5827F1FD1A068B0F5806F0DD0334617
:10412000002280212046009500F05CF808B3606D05
:1041300040F0200060650320F8BD334600220121D5
:104140002046009500F04EF898B1606D40F02000D8
:1041500060650320F0E733460022012120460095E8
:1041600000F040F828B1606D40F020006065032049
:10417000E2E70020E0E700007CB504460D46164665
:10418000164800681821B0FBF1F01549B0FBF1F0BA
:104190004FF47A71484301906068B0F5827F0DD189
:1041A0002B46002280212046009600F01BF898B193
:1041B000606D40F02000606503207CBD00BF019869
:1041C00000B908E00198401E019020688068C0F3A3
:1041D000C0100028F3D100BF0020EEE77C000020D3
:1041E00040420F002DE9F84F04460D4690461E460A
:1041F000DDF82890FCF79CFDA0EB0900371AFCF7CE
:1042000097FD82462C480068C0F3CB30784300907D
:1042100045E0701C002842D0FCF78AFDA0EB0A00A4
:10422000B84200D2A7BB2068406820F0E0002168B7
:1042300048606068B0F5827F0DD1A068B0F5004F8E
:1042400003D0A068B0F5806F05D12068006820F029
:10425000400021680860A06AB0F5005F0DD100BF82
:104260002068006820F40050216808602068006819
:1042700040F400502168086000BF012084F851001C
:1042800000BF002084F8500000BF0320BDE8F88F75
:10429000FFE7009800B900270098401E00902068B2
:1042A00080682840A84201D1012000E0002040455C
:1042B000AFD10020EAE700007C00002030B50146C5
:1042C0000A461378521C147843EA042030BD0000DB
:1042D000FFF7A6FD012210212F48FCF723FD012244
:1042E00020212D48FCF71EFD012202212B48FCF75E
:1042F00019FD00BF002210212748FCF713FD8F2075
:10430000274908704FF0FF3301222648FEF790FA44
:104310004FF0FF33012224492248FEF7D1F9012250
:1043200010211D48FCF7FEFC002220211A48FCF752
:10433000F9FC83201A4908704FF0FF330122194815
:10434000FEF776FA4FF0FF33012217491548FEF7C2
:10435000B7F9012220211048FCF7E4FC00220221D9
:104360000E48FCF7DFFC8D200D4908704FF0FF333D
:1043700001220C48FEF75CFA4FF0FF3301220A4994
:104380000848FEF79DF9012202210448FCF7CAFC07
:10439000012003F02FF8ADE70008024000040240BE
:1043A00004000020D80100200500002010B54FF0C7
:1043B000E020006904F0B4FD012801D004F0FEF90A
:1043C00010BD000000B593B0302107A8FCF7C2F87B
:1043D000142102A8FCF7BEF800BF00200190244879
:1043E000006840F08050224908600846006800F0EC
:1043F0008050019000BF00BF00BF002001901D4809
:10440000006840F480401B4908600846006800F4DA
:104410008040019000BF00BF012007900004089079
:1044200002200D9041050E9106210F91A8211091B7
:10443000022111910721129107A8FDF7D7FD08B1BC
:10444000FCF70BFA0F20029002200390002004904A
:104450004FF4A05005904FF480500690052102A81B
:10446000FDF762FC08B1FCF7F8F913B000BD0000DD
:1044700040380240007000400348006840F470007B
:10448000014908607047000088ED00E010B502485F
:10449000FEF76BFD10BD00009805002010B5026806
:1044A000294B98420ED0B0F1804F0BD0274B984249
:1044B00008D0274B984205D0264B984202D0264B75
:1044C000984203D122F070024B681A431E4B984267
:1044D00020D0B0F1804F1DD01C4B98421AD01C4BFD
:1044E000984217D01B4B984214D01B4B984211D0C6
:1044F0001A4B98420ED01A4B98420BD0194B984247
:1045000008D0194B984205D0184B984202D0184B4E
:10451000984203D122F44072CB681A4322F0800300
:104520004C6943EA040202608B68C3620B688362D1
:10453000054B984202D0084B984201D10B690363A6
:104540000123436110BD0000000001400004004051
:1045500000080040000C0040000401400040014001
:10456000004401400048014000180040001C004089
:104570000020004030B50C46816821F47F4142EABA
:10458000032525432943816030BD0A46816821F017
:10459000700142F0070319438160704730B5056A26
:1045A00025F001050562026A4368846924F07004FD
:1045B00024F003040D682C4322F002028D682A4384
:1045C000104DA84200D103E00F4DA84206D100BF14
:1045D00022F00802CD682A4322F00402094DA842C5
:1045E00002D0094DA84207D123F4807323F400734D
:1045F0004D692B438D692B43436084614D6845634E
:10460000026230BD000001400004014030B5056A7F
:1046100025F010050562026A4368846924F4E044C9
:1046200024F440740D6844EA052422F020028D68C9
:1046300042EA0512124DA84200D103E0114DA842F2
:1046400007D100BF22F08002CD6842EA051222F0B5
:1046500040020B4DA84202D00A4DA84209D123F4D2
:10466000806323F400634D6943EA85038D6943EA5F
:104670008503436084614D688563026230BD00003C
:10468000000001400004014030B5056A25F4807542
:104690000562026A4368C46924F0700424F00304CC
:1046A0000D682C4322F400728D6842EA0522124DF7
:1046B000A84200D103E0114DA84207D100BF22F467
:1046C0000062CD6842EA052222F480620A4DA842C7
:1046D00002D00A4DA84209D123F4805323F4005399
:1046E0004D6943EA05138D6943EA05134360C461CC
:1046F0004D68C563026230BD000001400004014006
:1047000030B5056A25F480550562036A4468C269BC
:1047100022F4E04222F440720D6842EA052223F4BA
:1047200000538D6843EA0533084DA84202D0084D76
:10473000A84204D124F480444D6944EA85144460BD
:10474000C2614D680564036230BD00000000014095
:104750000004014030B50B461446026A056A25F094
:1047600001050562816921F0F00141EA041122F09E
:104770000A021A438161026230BD30B50B4614460D
:10478000056A25F0100505628169026A21F470410D
:1047900041EA043122F0A00242EA0312816102627E
:1047A00030BD00002DE9F84F04462068006920F470
:1047B0004050E1680843216808612169A068084306
:1047C00061690843E169084300902068C06849F2C4
:1047D0000C618843009908432168C86020684069DB
:1047E00020F44070A1690843216848617649206837
:1047F000884203D075492068884203D1FDF78EFBBB
:10480000814602E0FDF77AFB8146E069B0F5004F92
:104810006CD102206168A0FB015003461920A9FB5E
:10482000007001462A463846FBF79EFD6421B0FB26
:10483000F1F04FEA001A02206168A0FB01510B461B
:104840001920A9FB00712A463846FBF78DFD8346E7
:1048500002206168A0FB015003461920A9FB0071EA
:104860002A463846FBF780FD6421B0FBF1F000EBEF
:10487000C00101EB0010ABEB8000322101EBC00066
:104880006421B0FBF1F000F0F8000AEB400A0220CE
:104890006168A0FB015003461920A9FB0070014686
:1048A0002A463846FBF760FD834602206168A0FB7C
:1048B000015003461920A9FB00712A463846FBF730
:1048C00053FD6421B0FBF1F000EBC00101EB0010DF
:1048D000ABEB8000322101EBC0006421B0FBF1F0B2
:1048E00000F007005044216888606AE00420616895
:1048F000A0FB015003461920A9FB007001462A467F
:104900003846FBF731FD824604206168A0FB015068
:1049100003461920A9FB007001462A463846FBF7DA
:1049200023FD6421B0FBF1F000EBC00101EB0010AE
:10493000AAEB8000322101EB00106421B0FBF1F002
:1049400000F0F00A04206168A0FB01700346192002
:10495000A9FB00513A462846FBF706FD6421B0FB4F
:10496000F1F00AEB001A04206168A0FB01510B462C
:104970001920A9FB00712A463846FBF7F5FC83464F
:1049800004206168A0FB015003461920A9FB0070B8
:1049900001462A463846FBF7E7FC6421B0FBF1F0FC
:1049A00000EBC00101EB0010ABEB8000322101EB0A
:1049B00000106421B0FBF1F000F00F0050442168BA
:1049C0008860BDE8F88F000000100140001401402D
:1049D0002DE9F04104460D46D4F8C87204F5307054
:1049E000D4F8D41250F8210010B90320BDE8F081AA
:1049F00004F53070D4F8D41250F8216005F00F009F
:104A000000EB800104F1140000EB8100406838B332
:104A100005F00F0000EB800104F1140000EB8100B1
:104A2000416805F00F0000EBC00207F13C0000EB0D
:104A30008200C068B1FBF0F200FB121080B90021C7
:104A400005F00F0000EB800204F1140000EB82007F
:104A5000416000231A462946204601F0FAF817E083
:104A60000020C6F8140204F53170D4F8D41250F8BE
:104A70002100006960B1D6F8080204F53171D4F85C
:104A8000D42251F822102A460B6906F50471984782
:104A90000020ABE770B504460E4604F53070D4F83C
:104AA000D41250F82150D4F8D41250F8210008B98B
:104AB000032070BD3146204600F027FFC5F80C02E8
:104AC000D5F8040204F53171D4F8D43251F823102A
:104AD000CA6805F5037190470020EAE770B50446FF
:104AE0000D4630480178204600F0E1FD00212D48B8
:104AF000007800F00F0000EB800204F1140000EBDE
:104B00008200018228480178204600F0D0FD002173
:104B10002548007800F00F0000EB800204F5AA7031
:104B200000EB8200018221480178204600F0BFFDA1
:104B300000211E48007800F00F0000EB800204F115
:104B4000140000EB820001821848007800F00F008A
:104B500000EB800204F1140000EB8200418204F5B6
:104B60003070D4F8D41250F82100C8B104F5317176
:104B7000D4F8D42251F822104868804704F53071E7
:104B8000D4F8D42251F8220001F08CFB002104F566
:104B90003070D4F8D42240F822100020C4F8BC02AF
:104BA000002070BD8B0100208C0100208D010020B1
:104BB00070B5044604F53070D4F8D41250F8215082
:104BC0000DB9032070BD04F53170D4F8D41250F83B
:104BD000210098B195F80002FF280FD095F8012226
:104BE00095F8000204F53171D4F8D46251F826101A
:104BF0008B6829469847FF2085F800020020E1E7EE
:104C000001460A2008800148704700000401002086
:104C10002DE9F041044682210D4800F06EFC054666
:104C200001210B4800F069FC06468121084800F08C
:104C300064FC07460DB11020A8710EB14020B08071
:104C40000FB14020B880432020800148BDE8F081AA
:104C5000480100202DE9F041044682210E4800F071
:104C60004CFC054601210C4800F047FC064681211A
:104C7000094800F042FC07460DB11020A87116B19A
:104C80004FF40070B08017B14FF40070B88043202B
:104C900020800148BDE8F081480100202DE9F04165
:104CA000044682210D4800F028FC054601210B48EE
:104CB00000F023FC06468121084800F01EFC074650
:104CC0000DB11020A8710EB14020B0800FB140206E
:104CD000B880432020800148BDE8F08148010020D1
:104CE00070B504460E464FF4077001F0DDFA054634
:104CF00045B9002104F53070D4F8D42240F82210D0
:104D0000022070BD4FF407712846FBF723FC04F521
:104D10003070D4F8D41240F82150D4F8D41250F89E
:104D20002100C4F8BC02207C98BB4FF4007302221F
:104D300050480178204600F089FE01214D48007856
:104D400000F00F0000EB800204F1140000EB820081
:104D500001824B02022248480178204600F076FE8C
:104D600001214548007800F00F0000EB800204F5B7
:104D7000AA7000EB8200018210214048007800F008
:104D80000F0000EB800204F1140000EB820041826E
:104D900032E0FFE74023022236480178204600F047
:104DA00055FE01213348007800F00F0000EB80022F
:104DB00004F1140000EB82000182402302222E48FD
:104DC0000178204600F042FE01212B48007800F0D7
:104DD0000F0000EB800204F5AA7000EB8200018254
:104DE00010212648007800F00F0000EB800204F14B
:104DF000140000EB82004182082303221F4801783F
:104E0000204600F023FE01211C48007800F00F002E
:104E100000EB800204F1140000EB8200018200200C
:104E2000C5F8040204F53171D4F8D42251F82210E7
:104E3000086880470020C5F81402C5F81802D5F8A4
:104E4000040208B902205CE7207C48B94FF40073E3
:104E5000094801782046D5F8042200F00FFE07E04B
:104E60004023054801782046D5F8042200F006FECC
:104E7000002046E78B0100208C0100208D010020DE
:104E800070B5044604F53070D4F8D41250F82150AF
:104E9000D4F8D41250F8210008B9032070BD207C4A
:104EA00048B94FF40073094801782046D5F8042228
:104EB00000F0E4FD07E04023044801782046D5F8DF
:104EC000042200F0DBFD0020E8E700008C01002058
:104ED000024609B90320704702F53170D2F8D43286
:104EE00040F823100020F6E710B5024602F53070B6
:104EF000D2F8D44250F824300BB9032010BDC3F8C7
:104F000004120020FAE730B503460C4603F5307072
:104F1000D3F8D45250F8251009B9032030BDC1F898
:104F20000842C1F810220020F8E72DE9FC410546AF
:104F30000C4605F53070D5F8D41250F821600020E9
:104F400001900090804616B90320BDE8FC812078CE
:104F500000F0600000283DD020287CD1E08868B3B4
:104F6000207800F08000B8B1E288607805F53171F2
:104F7000D5F8D4C251F82C108B6831469847E08898
:104F8000072801D9072000E0E08807463A46314665
:104F9000284600F0E2F81CE0607886F80002E0881D
:104FA000402801D2E08800E0402086F8010296F80F
:104FB00001223146284600F0AFF80AE0607805F596
:104FC0003171D5F8D42251F8221000228B68214685
:104FD000984747E0607830B1012832D00A2813D0D2
:104FE0000B282FD121E095F89C02032805D102223D
:104FF0006946284600F0B1F805E02146284600F051
:105000007FF84FF0030824E095F89C02032805D1AF
:10501000012201A9284600F0A0F805E02146284613
:1050200000F06EF84FF0030813E095F89C02032897
:1050300005D02146284600F063F84FF0030808E049
:1050400009E006E02146284600F05AF84FF0030830
:1050500000BF00BF06E02146284600F051F84FF09F
:10506000030800BF00BF40466FE770B504460D4619
:105070000026D4F8B802294642682046904700B17D
:105080000326304670BD70B504460D4694F89C0268
:10509000012804D0022803D003280CD101E000BF6E
:1050A00000BF6888012805D10020C4F8A40220466A
:1050B00000F064F804E02946204600F021F800BF23
:1050C00000BF70BD024600207047024600207047B6
:1050D00070B506460C4615462B4622460021304642
:1050E00000F0CCFC002070BD70B506460C4615469D
:1050F0002B4622460021304600F0ABFD002070BD5B
:1051000070B504460D468021204600F076FD002152
:10511000204600F072FD70BD70B504460E4615467F
:105120000320C4F894024FF4AC700551001D0551E2
:105130002B4632460021204600F0A0FC002070BD26
:1051400010B504460520C4F8940200231A461946F7
:10515000204600F093FC002010BD70B504460E46BA
:1051600015460220C4F89402A561E5612B4632463B
:105170000021204600F06DFD002070BD10B50446F2
:105180000420C4F8940200231A461946204600F071
:1051900060FD002010BD000070B505460C462DB91D
:1051A0002246064906A000F012FA04E0224603490E
:1051B00003A000F00CFA014870BD0000BC080020FC
:1051C00043444320436F6E66696700000246122025
:1051D00008800148704700002800002070B505468F
:1051E0000C462DB92246064906A000F0F0F904E06D
:1051F0002246034903A000F0EAF9014870BD00000F
:10520000BC08002043444320496E746572666163A4
:105210006500000002460420088001487047000035
:105220003C00002070B505460C462246024903A00A
:1052300000F0CDF9004870BDBC08002053544D6902
:1052400063726F656C656374726F6E69637300007F
:1052500070B505460C462DB92246064906A000F059
:10526000B6F904E02246034903A000F0B0F9014872
:1052700070BD0000BC08002053544D3332205669E5
:10528000727475616C20436F6D506F727400000012
:1052900070B505460C461A202080FBF7E1FA01485C
:1052A00070BD00004000002070B504460D46E8883F
:1052B000012804D029462046FFF722FF1EE094F87B
:1052C0009C02012804D0022803D0032810D109E051
:1052D00000BF0020A060012204F108012046FFF772
:1052E0003CFF0AE00122211D2046FFF736FF04E0C3
:1052F00029462046FFF704FF00BF00BF70BDF8B588
:1053000004460E46002000900027002570880012F9
:10531000082875D2DFE800F0C7040C20C7C7A5B580
:10532000207CD4F8B4120A68694690470746C1E069
:10533000207C40B9D4F8B802816A6846884707469D
:105340000220787007E0D4F8B802C16A684688473E
:10535000074602207870ADE0B078062878D2DFE802
:1053600000F00316293C5063D4F8B402406838B109
:10537000207CD4F8B4124A6869469047074605E095
:1053800031462046FFF7BCFE681CC5B267E0D4F882
:10539000B402806838B1207CD4F8B4128A686946B7
:1053A0009047074605E031462046FFF7A9FE681CF6
:1053B000C5B254E0D4F8B402C06838B1207CD4F847
:1053C000B412CA6869469047074605E03146204650
:1053D000FFF796FE681CC5B241E0D4F8B40200693C
:1053E00038B1207CD4F8B4120A6969469047074660
:1053F00005E031462046FFF783FE681CC5B22EE06B
:1054000051E0D4F8B402406938B1207CD4F8B41229
:105410004A6969469047074605E031462046FFF74E
:105420006FFE681CC5B21AE0D4F8B402806940B1BE
:10543000207CD4F8B4128A6969469047074606E092
:1054400006E031462046FFF75BFE681CC5B206E069
:1054500031462046FFF754FE681CC5B200BF00BFAE
:1054600028E0207C30B9D4F8B802416B6846884700
:10547000074605E031462046FFF742FE681CC5B2EC
:1054800018E0207C40B9D4F8B802016B6846884720
:1054900007460720787005E031462046FFF730FECA
:1054A000681CC5B206E031462046FFF729FE681C9D
:1054B000C5B200BF00BF05B1F8BDF088C0B1BDF8EE
:1054C000000080B1F088BDF80010884202DDBDF810
:1054D000000000E0F0880090BDF80020394620462A
:1054E000FFF73BFE07E031462046FFF709FE02E0EA
:1054F0002046FFF743FE00BFDEE72DE9F8410546F1
:105500000F462C462E464FF00008708831788842AE
:1055100018DD307800900FE06946204600F020F852
:1055200004466078052807D1A04698F80200B842E2
:1055300000D106E04FF000087088BDF800108842E6
:10554000EADC00BF4046BDE8F881014600200A467B
:1055500002E0431CD8B2521C1378002BF9D17047DB
:1055600010B5024610460B88047823440B8003785C
:10557000981810BD70B504460D4694F89C02012899
:1055800004D0022803D003281AD101E000BF00BFD5
:10559000E888022804D029462046FFF7B1FD14E030
:1055A0000120E060D4F8A40218B1E06840F00200E5
:1055B000E060022204F10C012046FFF7CEFD04E07A
:1055C00029462046FFF79CFD00BF00BF70BD2DE9B6
:1055D000F04107460D46904600240FB9BDE8F08122
:1055E0003E463046FFF7B1FF022101EB4000A8F82C
:1055F000000098F800002855601CC4B2032028550C
:10560000601CC4B208E030782855761C601CC4B217
:1056100000202855601CC4B230780028F3D100BFA8
:10562000DCE70146002031B1012906D0022906D06D
:10563000032908D105E0002007E0032005E0012050
:1056400003E0032001E0032000BF00BF70472DE905
:10565000F04104460D46164614B90320BDE8F0811A
:105660000020C4F8B802C4F8C402C4F8D0020DB1D6
:10567000C4F8B452012084F89C022670204600F041
:105680004DF907463846E9E72DE9F04104460D4655
:10569000002600272946D4F8C802FBF710FD06466D
:1056A0003046FFF7BEFF07463846BDE8F0812DE9DA
:1056B000F04104460D46002600272946D4F8C802CA
:1056C000FBF7C8FC06463046FFF7ABFF07463846F7
:1056D000BDE8F0812DE9F04704460F469146002FC2
:1056E00056D104F11405D4F89402022846D1D5E924
:1056F000020188420FD9D5E90201401AA860494643
:105700002046AA68FFF7F0FC00231A4619462046F7
:1057100000F0B4F932E0D5E90210884217D1E96807
:105720006868884213D36868D4F8981288420ED209
:10573000002211462046FFF7D7FC0020C4F898024B
:1057400000231A461946204600F098F916E094F80E
:105750009C0203280BD1D4F8B802C06838B10020ED
:10576000C4F8D402D4F8B802C16820468847802122
:10577000204600F042FA2046FFF7E2FC94F8A0022F
:1057800050B3204600F0BCFA002084F8A00223E0C9
:1057900047F080012046FFF795FC0646FF2E1BD000
:1057A000D6B994F89C02032816D104F52E7050F84F
:1057B0002600406980B1C4F8D46204F52E7050F818
:1057C000260039464269204690478046B8F1000FCE
:1057D00002D04046BDE8F0870020FBE72DE9F04706
:1057E00005460F4690464FF00009002F51D105F5B0
:1057F000AA76D5F8940203286FD1D6E9020188422F
:1058000010D9D6E90201401AB060D6E902018842F7
:1058100001D2B06800E0F068024641462846FFF732
:1058200057FC5AE095F8AA0200F01F0020B10128A9
:1058300004D0022812D109E0002411E040F2AE2089
:10584000415D2846FFF741FC044609E040F2AE20E6
:10585000415D2846FFF736FC044601E0002400BF06
:1058600000BF94B995F89C0203280ED105F52E705F
:1058700050F82400006940B1C5F8D44205F52E70F7
:1058800050F824000169284688472846FFF776FC2F
:1058900023E007F07F012846FFF714FC0446FF2CA5
:1058A0001BD0D4B995F89C02032810D105F52E70B1
:1058B00050F82400806950B1C5F8D44205F52E7027
:1058C00050F8240039468269284690478146B9F14C
:1058D000000F02D04846BDE8F0870020FBE70146F4
:1058E0000020704770B504460025012084F89C0212
:1058F000D4F8B80238B12179D4F8B8024268204609
:10590000904700B10325284670BD70B504460D468A
:105910002946D4F8C802FBF710FC70BD10B5044648
:10592000207800282AD11648C0F80845C4F8C802D3
:105930004FF0A0401249086004204860022110483E
:10594000C16000210161022181610021C161016208
:105950004162C1620163FCF756F808B1FAF77DFFB6
:1059600080210748FBF7FBFA402200210448FBF79F
:10597000FBFA802201210248FBF7F6FA002010BD55
:10598000BC1A002010B50246D2F8C83201F08000DF
:10599000802809D101F07F0000EBC00403F13C0036
:1059A00000EB8400807810BD01F07F0000EBC004A4
:1059B00003F51F7000EB84008078F4E770B50446AF
:1059C0000D4604F52E70D4F8D41250F8210008B911
:1059D000032070BD94F89C02032811D104F52E70A9
:1059E000D4F8D41250F82100006A48B104F52E70A2
:1059F000D4F8D41250F821002946026A2046904774
:105A00000020E6E770B504460D4604F52E70D4F884
:105A1000D41250F8210008B9032070BD94F89C02FC
:105A2000032811D104F52E70D4F8D41250F82100B7
:105A3000406A48B104F52E70D4F8D41250F8210011
:105A40002946426A204690470020E6E72DE9F047C4
:105A500004460F4615461E464FF00008C1462B4629
:105A600032463946D4F8C802FBF772FB80464046FE
:105A7000FFF7D7FD81464846BDE8F0872DE9F0479E
:105A800004460D4616461F464FF00008C1463B46E9
:105A900032462946D4F8C802FBF7A0FB80464046B0
:105AA000FFF7BFFD81464846BDE8F08770B5044664
:105AB0000025012084F89C020020C4F89402606054
:105AC000C4F8A40284F8A002D4F8B80258B1D4F8FB
:105AD000B802406838B12179D4F8B802426820464B
