:020000040800F2
:10000000585D002045030008BF4A0008A7400008CB
:10001000BD4A000821080008F97800080000000027
:100020000000000000000000000000008502000841
:10003000B711000800000000E10200086D5100083F
:100040005F0300085F0300085F0300085F03000808
:100050005F0300085F0300085F0300085F030008F8
:100060005F0300085F0300085F030008C510000875
:100070005F0300085F0300085F0300085F030008D8
:10008000D1100008DD1000085F0300085F030008BE
:100090005F0300085F0300085F0300085F030008B8
:1000A0005F0300085F0300085F0300085F030008A8
:1000B0005F0300085F0300085F0300085F03000898
:1000C0005F0300085F0300085F0300085F03000888
:1000D0005F0300085F030008DD5900085F030008A4
:1000E0005F0300085F0300085F0300085F03000868
:1000F0005F030008395200085F0300085F0300082F
:100100005F0300085F0300082D5200085F0300082A
:100110005F030008395500085F0300085F0300080B
:100120005F0300085F0300085F0300085F03000827
:100130005F0300085F0300085F0300085F03000817
:100140005F0300085F0300085F030008C14A00085E
:100150005F0300085F0300085F0300085F030008F7
:100160005F0300085F0300085F0300085F030008E7
:100170005F0300085F0300085F0300080000000041
:100180005F0300085F03000800F002F800F06AF85F
:100190000AA090E8000C82448344AAF10107DA45E2
:1001A00001D100F05FF8AFF2090EBAE80F0013F0CA
:1001B000010F18BFFB1A43F00103184700E80000C5
:1001C00040E800000A444FF0000C10F8013B13F027
:1001D000070408BF10F8014B1D1108BF10F8015BA0
:1001E000641E05D010F8016B641E01F8016BF9D193
:1001F00013F0080F1EBF10F8014BAD1C0C1B09D1EA
:100200006D1E58BF01F801CBFAD505E014F8016B5B
:1002100001F8016B6D1EF9D59142D6D370470000ED
:10022000103A24BF78C878C1FAD8520724BF30C822
:1002300030C144BF04680C607047000000230024F4
:1002400000250026103A28BF78C1FBD8520728BFE6
:1002500030C148BF0B6070471FB50EF030FA1FBDAC
:1002600010B510BD00F00FFA1146FFF7F5FF0AF0C8
:100270009FF800F02DFA03B4FFF7F2FF03BC00F083
:1002800031FA00002C4B19680868B0E8F04F80F391
:100290000988BFF36F8F4FF0000080F3118870471B
:1002A0000000000008480068006880F308884FF0EC
:1002B000000080F3148862B661B6BFF34F8FBFF3BE
:1002C0006F8F00DF00BF00BF08ED00E0DFF80C001B
:1002D000016841F470010160704700BF88ED00E0E3
:1002E000EFF30980BFF36F8F134B1A681EF0100FE6
:1002F00008BF20ED108A20E9F04F106009B44FF0DC
:10030000500080F31188BFF34F8FBFF36F8F0CF055
:1003100061FC4FF0000080F3118809BC196808687F
:10032000B0E8F04F1EF0100F08BFB0EC108A80F359
:100330000988BFF36F8F704700000010EFF305804E
:10034000704700000948804709480047FEE7FEE77C
:10035000FEE7FEE7FEE7FEE7FEE7FEE7FEE7FEE775
:1003600004480549054A064B704700001D52000825
:100370008901000858570020585D00205859002076
:100380005859002053EA020C00F069802DE9F04B27
:100390004FF00006002B1FBFB3FA83F503FA05F4F4
:1003A00024FA05F65E4012BF1643B2FA82F502FA4D
:1003B00005F4C5F120051EBF22FA05FC44EA0C0431
:1003C000203556EA044C4FEA144418BF641C4FF021
:1003D00000084FF00009904271EB030C39D300295B
:1003E00019BFB1FA81F701FA07F6B0FA80F700FAFF
:1003F00007F6C7F120071EBF20FA07FC46EA0C06E5
:100400002037B6FBF4FCA7EB0507103F07F01F0BE6
:10041000CBF120060CFA0BFB2CFA06F644BFB346D0
:100420000026202FA4BF5E464FF0000B5BEA060CAF
:1004300008BF4FF0010B19EB0B09ABFB027C48EB3B
:100440000608C01B06FB02CC0BFB03CC71EB0C01B6
:10045000C1E70B46024641464846BDE8F08B13B55E
:100460004FF000004FF00001AFF30080BDE81C40EA
:10047000704710B5431C02E010F8011B71B18107F1
:10048000FAD14FF0013202C88C1A8C4314EAC2111F
:10049000F9D0C01A0A0603D0C01E10BDC01A10BD84
:1004A0000A0401D0801E10BD0902FCD0401E10BD00
:1004B000032A40F2308010F0030C00F0158011F890
:1004C000013BBCF1020F624498BF11F801CB00F868
:1004D000013B38BF11F8013BA2F1040298BF00F8BC
:1004E00001CB38BF00F8013B11F0030300F0258079
:1004F000083AC0F0088051F8043B083A51F804CBA0
:10050000A0E80810F5E7121D5CBF51F8043B40F865
:10051000043BAFF30080D20724BF11F8013B11F870
:1005200001CB48BF11F8012B24BF00F8013B00F8B4
:1005300001CB48BF00F8012B704710B5203AC0F03E
:100540000B80B1E81850203AA0E81850B1E81850D4
:10055000A0E81850BFF4F5AF5FEA027C24BFB1E811
:100560001850A0E8185044BF18C918C0BDE8104082
:100570005FEA827C24BF51F8043B40F8043B08BF8B
:100580007047D20728BF31F8023B48BF11F8012B52
:1005900028BF20F8023B48BF00F8012B704701F04C
:1005A000FF03114601B543EA032242EA024200F08A
:1005B0000BF801BD02F0FF0343EA032242EA0242C4
:1005C00000F002B84FF000020429C0F0128010F0D1
:1005D000030C00F01B80CCF1040CBCF1020F18BF1F
:1005E00000F8012BA8BF20F8022BA1EB0C0100F0B2
:1005F0000DB85FEAC17C24BF00F8012B00F8012B85
:1006000048BF00F8012B70474FF0000200B51346B9
:1006100094469646203922BFA0E80C50A0E80C5022
:10062000B1F12001BFF4F7AF090728BFA0E80C50D3
:1006300048BF0CC05DF804EB890028BF40F8042BCC
:1006400008BF704748BF20F8022B11F0804F18BF39
:1006500000F8012B704770477047704710B500F0E5
:100660000DF8006810BD10B5044600F007F80460EE
:1006700010BD000000487047F85600200048704741
:10068000F856002070477546FFF7F4FFAE460500A8
:100690006946534620F00700854618B020B5FFF79D
:1006A0005FFEBDE820404FF000064FF000074FF01E
:1006B00000084FF0000B21F00701AC46ACE8C00980
:1006C000ACE8C009ACE8C009ACE8C0098D46704789
:1006D00010B50446AFF300802046BDE81040FFF798
:1006E000CABD000001491820ABBEFEE7260002008B
:1006F0004A494A6822F440324A604A6843681A43C9
:100700004A6001684A6822F480724A6001684A6857
:10071000036942EA03224A6001684A6822F0407293
:100720004A6001684A6883681A434A6001688A68B7
:1007300022F400628A6001688A68C3681A438A608A
:10074000816A6FF07062D14214D001688A6822F029
:1007500070628A6001688A68836A1A438A600168E5
:100760008A6822F040528A6001688A68C36A1A4324
:100770008A6009E001688A6822F070628A60016814
:100780008A6822F040528A6001688A6822F0020278
:100790008A6001688A68037E42EA43028A6090F8B0
:1007A000201089B101684A6842F400624A60016819
:1007B0004A6822F460424A6001684B68426A521EED
:1007C00043EA42324A6004E001684A6822F4006267
:1007D0004A600168CA6A22F47002CA620168CB6A80
:1007E000828B521E43EA0252CA6201688A6822F46E
:1007F00000728A6001688A6890F8303042EA4322C9
:100800008A6001688A6822F480628A6001688A6866
:10081000406942EA80208860704700000023014060
:10082000FEE704284FF000007047002070470000EA
:1008300010B500220449054805F0E2FA04490348CE
:1008400005F0D0FA002010BD481400206C070020ED
:10085000480C002010B50146034805F0C3FA0248D1
:1008600005F094FA002010BD6C07002000207047AE
:1008700070B59AB0394801ACC17901208DF80410E7
:10088000DFED370A022902D0032920D05DE00022E3
:10089000344D05EB820191ED000A20EE200ABDEEF9
:1008A000C00A10EE101A431CDBB221540E0A581C69
:1008B000C0B2E6540E0C431CDBB22654090E581C81
:1008C000C0B2E154521CD2B2032AE2D33DE000226E
:1008D000254D05EB820191ED000A20EE200ABDEEC8
:1008E000C00A10EE101A431CDBB221540E0A581C29
:1008F000C0B2E6540E0C431CDBB22654090E581C41
:10090000C0B2E154521CD2B2032AE2D30022174DE6
:1009100005EB820191ED000A20EE200ABDEEC00A2F
:1009200010EE101A431CDBB221540E0A581CC0B240
:10093000E6540E0C431CDBB22654090E581CC0B200
:10094000E154521CD2B2092AE2D3009001AB032237
:10095000A621AA200BF092FC1AB070BD1846002008
:1009600000247449E83B0020243C0020303C002057
:1009700000B59BB0C148006800EE900A9FEDC00A28
:1009800060EE800AFDEEE00A10EE900A8DF8080095
:10099000010A8DF80910010C8DF80A10000E8DF86F
:1009A0000B00B648806800EE900A60EE800AFDEE0B
:1009B000E00A10EE900A8DF80C00010A8DF80D1077
:1009C000010C8DF80E10000E8DF80F00AB48C068BA
:1009D00000EE900A60EE800AFDEEE00A10EE900A4A
:1009E0008DF81000010A8DF81110010C8DF812100D
:1009F000000E8DF81300A348006800EE900A60EE28
:100A0000800AFDEEE00A10EE900A8DF81400010A4B
:100A10008DF81510010C8DF81610000E8DF81700CA
:100A20009848806800EE900A60EE800AFDEEE00AC9
:100A300010EE900A8DF81800010A8DF81910010CBB
:100A40008DF81A10000E8DF81B008E48C06800EE5D
:100A5000900A60EE800AFDEEE00A10EE900A8DF832
:100A60001C00010A8DF81D10010C8DF81E10000EDF
:100A70008DF81F008448006800EE900A60EE800A3E
:100A8000FDEEE00A10EE900A8DF82000010A8DF8C4
:100A90002110010C8DF82210000E8DF823007A48E9
:100AA000806800EE900A60EE800AFDEEE00A10EE2B
:100AB000900A8DF82400010A8DF82510010C8DF89C
:100AC0002610000E8DF827006F48C06800EE900ACF
:100AD00060EE800AFDEEE00A10EE900A8DF8280024
:100AE000010A8DF82910010C8DF82A10000E8DF8DE
:100AF0002B006648006800EE900A60EE800AFDEE6A
:100B0000E00A10EE900A8DF82C00010A8DF82D10E5
:100B1000010C8DF82E10000E8DF82F005B488068B8
:100B200000EE900A60EE800AFDEEE00A10EE900AF8
:100B30008DF83000010A8DF83110010C8DF832105B
:100B4000000E8DF833005148C06800EE900A60EE48
:100B5000800AFDEEE00A10EE900A8DF83400010ADA
:100B60008DF83510010C8DF83610000E8DF8370019
:100B70004748006800EE900A60EE800AFDEEE00A49
:100B800010EE900A8DF83800010A8DF83910010C2A
:100B90008DF83A10000E8DF83B003D48806800EE5D
:100BA000900A60EE800AFDEEE00A10EE900A8DF8E1
:100BB0003C00010A8DF83D10010C8DF83E10000E2E
:100BC0008DF83F003248C06800EE900A60EE800A5F
:100BD000FDEEE00A10EE900A8DF84000010A8DF853
:100BE0004110010C8DF84210000E8DF84300294988
:100BF000086800EE900A60EE800AFDEEE00A10EE52
:100C0000900A8DF84400020A8DF84520020C8DF8F8
:100C10004620000E8DF84700886800EE900A60EECE
:100C2000800AFDEEE00A10EE900A8DF84800020AF4
:100C30008DF84920020C8DF84A20000E8DF84B00EB
:100C4000C86800EE900A20EE800ABDEEC00A10EEE1
:100C5000100A8DF84C00010A8DF84D10010C8DF82A
:100C60004E10000E8DF84F004820009002AB052278
:100C7000A621AA200BF002FB1BB000BD543C0020B3
:100C800000007A44843C0020B43C0020E43C002076
:100C9000143D0020443D0020F0B40021324A9FED75
:100CA000330AD279022A04D0012A5AD0032A1ED04C
:100CB00057E000222E4D4318445C5E7844EA062437
:100CC0009E78DB78360446EA03631C4300EE904AC4
:100CD00005EB8203F8EEE00A80EE801A83ED001A3D
:100CE000091DC9B2521CD2B2032AE4D339E0002252
:100CF000204D4318445C5E7844EA06249E78DB78F5
:100D0000360446EA03631C4300EE904A05EB820377
:100D1000B8EEE01AC1EE000AC3ED000A091DC9B21F
:100D2000521CD2B2032AE4D30022134D4318445C70
:100D30005E7844EA06249E78DB78360446EA03634C
:100D40001C4300EE904A05EB8203F8EEE00A80EEC9
:100D5000801A83ED001A091DC9B2521CD2B2092AA9
:100D6000E4D3F0BC0AF0B4BB184600200024744958
:100D7000E83B0020243C0020303C00200149007862
:100D8000C87170471846002030B401784278C378A3
:100D900041EA02218278120442EA0362114300EE22
:100DA000101AB8EEC01A9FEDC00AC04AC1EE000A80
:100DB00010EE901A116002794379C17942EA032258
:100DC00083791B0443EA01610A4300EE902AB74A83
:100DD000B8EEE01AC1EE000A10EE901A9160027AA5
:100DE000437AC17A42EA0322837A1B0443EA01610F
:100DF0000A4300EE902AAD4AB8EEE01AC1EE000AAE
:100E000010EE901AD160027B437BC17B42EA032241
:100E1000837B1B0443EA01610A4300EE902AA44A43
:100E2000B8EEE01AC1EE000A10EE901A1160027CD2
:100E3000437CC17C42EA0322837C1B0443EA0161B8
:100E40000A4300EE902A9A4AB8EEE01AC1EE000A70
:100E500010EE901A9160027D437DC17D42EA03222B
:100E6000837D1B0443EA01610A4300EE902A904A05
:100E7000B8EEE01AC1EE000A10EE901AD160027EC0
:100E8000437EC17E42EA0322837E1B0443EA016162
:100E90000A4300EE902A874AB8EEE01AC1EE000A33
:100EA00010EE901A1160027F437FC17F42EA032255
:100EB000837F1B0443EA01610A4300EE902A7D4AC6
:100EC000B8EEE01AC1EE000A10EE901A916090F8A8
:100ED000202090F8213000F1200142EA03228B7893
:100EE000C9781B0443EA01610A4300EE902A714A63
:100EF000B8EEE01AC1EE000A10EE901AD16090F838
:100F0000242090F8253000F1240142EA03228B7856
:100F1000C9781B0443EA01610A4300EE902A664A3D
:100F2000B8EEE01AC1EE000A10EE901A116090F8C7
:100F3000283090F8294000F1280143EA04238C78F6
:100F4000C978240444EA01610B4300EE903AB8EEFC
:100F5000E01AC1EE000A10EE901A916090F82C3061
:100F600090F82D4000F12C0143EA04238C78C978D5
:100F7000240444EA01610B4300EE903AB8EEE01A13
:100F8000C1EE000A10EE901AD16090F8302090F86F
:100F9000313000F1300142EA03228B78C9781B041A
:100FA00043EA01610A4300EE902A444AB8EEE01A8F
:100FB000C1EE000A10EE901A116090F8343090F8EB
:100FC000354000F1340143EA04238C78C9782404C5
:100FD00044EA01610B4300EE903AB8EEE01AC1EE2C
:100FE000000A10EE901A916090F8383090F839406D
:100FF00000F1380143EA04238C78C978240444EAD8
:1010000001610B4300EE903AB8EEE01AC1EE000A1F
:1010100010EE901AD16090F83C2090F83D3000F12D
:101020003C0142EA03228B78C9781B0443EA016140
:101030000A4300EE902A224AB8EEE01AC1EE000AF6
:1010400010EE901A116090F8403090F8414000F195
:10105000400143EA04238C78C978240444EA0161FE
:101060000B4300EE903AB8EEE01AC1EE000A10EE23
:10107000901A916090F8443000F1440190F84500D6
:1010800043EA00208B78C9781B0443EA01610843D6
:1010900000EE900AB8EEE01AC1EE000A10EE900AD7
:1010A000D06030BC0AF014BA00007A44543C0020EE
:1010B000843C0020B43C0020E43C0020143D00208F
:1010C000443D0020014800F011BA00000406002051
:1010D000014800F00BBA0000C4060020014800F0EF
:1010E00005BA0000640600200168CAB2103A18234D
:1010F000B2FBF3F2064B9B5CC3656FF30901032A55
:1011000002D9091D816500E08165806D704700008E
:1011100094E7000810B5014600208A6A8B694FF0F9
:10112000C074002B0ED0B3F5005F1AD062B3012A51
:101130002AD0022A28D0032A03D1C96AC90100D5BE
:10114000012010BD1AB1012A06D0022AF9D1C96ABC
:10115000C901F6D5012010BDC96AA142FBD1012009
:1011600010BD52B1012A0AD0022A06D0032AF7D1B3
:10117000C96AA142F4D1012010BD012010BDC96A85
:10118000C901FBD5012010BD012010BD30B5046898
:10119000256825F480252560046863608368402BFA
:1011A00004D0036899600068C26030BD03689A602B
:1011B0000068C16030BD704772B6FEE770B50022AE
:1011C0000023C57800212C1D06E0465C3244D2B2D3
:1011D0001344DBB2491CC9B2A142F6D328440179B9
:1011E000914204D14079984201D1012070BD002084
:1011F00070BD000010B50B480168001D0468001D9B
:101200000068084400280BD00822074902F04CFF70
:10121000054920460422BDE81040103102F044BFC9
:1012200010BD0000107AFF1F4A00002078B500248E
:10123000009490F83C20012A19D0012280F83C202B
:101240000A680725092A14D90368DE680A3A02EBFE
:1012500042029540AE43DE600A788B680A3A02EBA0
:10126000420293400268D5682B43D36011E002200C
:1012700078BD03681E6902EB42029540AE431E61D1
:101280000A788B6802EB42029340026815692B438F
:1012900013614A681F25072A13D203685E6B521E2A
:1012A00002EB82029540AE435E630A8893B20A79EC
:1012B000521E02EB820293400268556B2B4353632C
:1012C00028E00D2A13D203681E6BD21F02EB8202A4
:1012D0009540AE431E630A8893B20A79D21F02EB8F
:1012E000820293400268156B2B43136312E003687C
:1012F000DE6A0D3A02EB82029540AE43DE620A8856
:1013000093B20A790D3A02EB820293400268D56AE1
:101310002B43D362174A184B05689D4206D10D68CE
:10132000122D03D1556845F48005556005689D422E
:101330001BD10B68102B01D0112B16D1536843F42D
:1013400000035360096810290FD10C490C4A096841
:10135000B1FBF2F101EB81014900009102E000993B
:10136000491E009100990029F9D180F83C400020E5
:1013700078BD0000002301400020014084000020CF
:1013800040420F0070B504460026002C03D0206CAC
:10139000002510B107E0012070BD204600F01CF8C8
:1013A000656484F83C50206CC00610D4206C20F496
:1013B000885040F0020020642046FFF799F96564E8
:1013C000206C20F0020040F00100206400E00126C3
:1013D00084F83C50304670BD10B586B004461421E8
:1013E00001A8FFF711F91149206888421CD100219A
:1013F0000F48026842F480720260006800F4807056
:1014000000900B481438026842F001020260006844
:1014100000F0010000901020019003200290039141
:1014200001A9044800F0FEF906B010BD00200140FB
:1014300044380240000002402DE9F0410446A76D07
:1014400000F0E0FA054694F835000026022806D0A0
:101450008020606584F834600120BDE8F081206858
:10146000016821F0160101602068416921F08001C6
:101470004161206C08B9A06C20B12068016821F09E
:10148000080101602068016821F0010101600BE0A2
:1014900000F0B8FA401B052806D920203434206219
:1014A000032060702670D8E720680068C007EFD17D
:1014B00034343F2094F828108840B86001206070D0
:1014C00026700020C9E790F83510022903D080214A
:1014D000416501207047052180F8351000680168DA
:1014E00021F0010101600020704700002DE9F84360
:1014F00004464FF00009CDF800906F484FF41651A4
:101500000068B0FBF1F7A56D2E6894F85C00082226
:1015100002FA00F1314210D02068016849070CD569
:10152000016821F00401016094F85C0002FA00F106
:10153000A960606D40F00100606594F85C104FF0A8
:10154000010808FA01F0304208D02168496909060B
:1015500004D5A860606D40F00200606594F85C10EE
:1015600004208840304208D021680968890704D5E2
:10157000A860606D40F00400606594F85C10102075
:101580008840304220D02168096809071CD5A8602E
:101590002068016849030CD50068000304D4216C5D
:1015A00091B1204688470FE0A16C69B12046884779
:1015B0000AE00168C90503D4016821F0080101604F
:1015C000216C09B12046884794F85C10202088409F
:1015D00030424CD021680968C90648D5A86094F803
:1015E000350005280BD020680168490330D5006814
:1015F000000328D4616C51B32046884737E0206847
:10160000016821F0160101602068416921F0800124
:101610004161206C08B9A06C20B12068016821F0FC
:101620000801016094F85C103F208840A86084F8AD
:10163000358084F83490216D00293BD001B02046DC
:10164000BDE8F0430847E16B09B1204688470EE04A
:101650000168C90507D4016821F01001016084F810
:10166000358084F83490E16B09B120468847606D7D
:1016700000281FD0606DC00714D0052084F8350005
:101680002068016821F0010101600098401C009071
:10169000B84203D820680068C007F6D184F83580C6
:1016A00084F83490E16C002904D001B02046BDE8F4
:1016B000F0430847BDE8F883840000202DE9F0419D
:1016C000044600F09FF905465CB1022084F835001D
:1016D000002684F834602068016821F0010101606F
:1016E0000DE00120BDE8F08100F08CF9401B0528D9
:1016F00005D920206065032084F83500F2E72068D2
:101700000068C007F0D121680A6820480240D4E987
:1017100001031843D4E903352B4318436369184385
:10172000A3691843E3691843236A18431043626AA4
:10173000042A03D1D4E90B231A431043086020681C
:10174000406920F00700656A2946054301270429FE
:101750000DD1A06A0543E06A48B12046FFF7DAFCE4
:1017600028B14020606584F835700120BAE7206810
:1017700045612046FFF7B8FC94F85C203F2191407A
:101780008160666584F835700020ABE73F8010F01B
:101790002DE9F04104460025A66D94F83400012897
:1017A0000DD0012084F8340094F835700020012F0A
:1017B00007D084F8340002252846BDE8F0810220D5
:1017C000FBE7022784F8357060652046FFF7DEFCF2
:1017D00094F85C103F208840B0602068016841F0B8
:1017E00016010160206C20B12068016841F00801F9
:1017F00001602068016841F001010160DCE7000040
:1018000070B5044600F0FEF80546601C02D004489E
:101810000078044400F0F6F8401BA042FAD370BDF3
:10182000780000202DE9F84F0022DFF89C914FF05E
:10183000010803274FF00F0C09F1040AA9F1040B6A
:1018400008FA02F50B682B40AB426ED10C7904F01C
:101850000304012C01D0022C15D18668540007FA2C
:1018600004FE26EA0E06D1F80CE00EFA04FE4EEA5B
:10187000060EC0F808E04468AC430D79C5F30015C6
:101880009540254345600C79E443A40708D0C5681A
:10189000540007FA04F6B5438E68A6402E43C6608E
:1018A0000C7904F00304022C11D1D40800EB840657
:1018B000356A5407E40E0CFA04FE25EA0E05D1F849
:1018C00010E00EFA04FE4EEA050EC6F820E00568A8
:1018D000540007FA04F6B5430E7906F00306A64055
:1018E0002E4306604C6814F4403F67D0374C25689F
:1018F00045F480452560246804F480440094344C09
:1019000022F003052E19D6F8085894074FEA147EE2
:101910000CFA0EF4A5432F4CA04201D1002424E080
:101920002D4CA04202D101241FE047E02B4CA042E5
:1019300001D1022419E02A4CA04201D1032414E071
:10194000284CA04201D104240FE0274CA04201D131
:1019500005240AE0254CA04201D1062405E0244CD0
:10196000A04201D1072400E0082404FA0EF42C431D
:10197000C6F80848D9F800409C434D68ED0200D5F0
:101980001C43C9F80040DAF800409C434D68AD02A2
:1019900000D51C43CAF80040DBF800409C434D686A
:1019A000AD0300D51C43CBF80040074D083D2C6823
:1019B0009C434E68F60300D51C432C60521C102A31
:1019C000FFF43EAFBDE8F88F083C014044380240C8
:1019D00000300140000002400004024000080240C4
:1019E000000C0240001002400014024000180240A7
:1019F000001C0240002A01D0816170470904816106
:101A0000704700000148806870470000780000209F
:101A10000248816802781144816070477800002094
:101A200010B50B48016841F400710160016841F490
:101A300080610160016841F480710160032000F061
:101A40009FF80F2000F006F800F050F8002010BDBD
:101A5000003C024030B587B0054600241E480168AE
:101A600041F480710160006800F48070009001A969
:101A700002A800F043FE0598A8B100F063FE400004
:101A80001649B0FBF1F1491E1648154A026040F2B2
:101A9000E732C260416004618460846101F0F0FB60
:101AA00004461CB115E000F04DFEE9E70D4801F0D9
:101AB00093FC04466CB92D2000F034F8102D07D2A9
:101AC000002229462D2000F03BF80748056000E081
:101AD000012407B0204630BD4038024040420F008C
:101AE00000200040240700207C00002082B00C4829
:101AF000016841F480410160006800F48040019079
:101B00000748001F016841F080510160006800F043
:101B10008050019000220F21901E02B000F010B8FA
:101B200044380240002809DB00F01F0201219140E7
:101B30004009800000F1E020C0F80011704700006B
:101B4000F0B40D460D4B1B68C3F30223C3F1070429
:101B5000042C00D90424191D072901D2002300E018
:101B6000DB1E012606FA04F1491E294099409E40D9
:101B7000761E16403143F0BC06F077B80CED00E05D
:101B800000F00701054A10684FF6FF03184040EACD
:101B90000120034908431060704700000CED00E08D
:101BA0000000FA057047006841620020704770B578
:101BB0000368586A002907D09C6A00EB144400208F
:101BC0004FF48275491E0AE040EA024098620DE037
:101BD00005EB80069E5904EB1644401CC0B28842B7
:101BE000F6D305EB810144EA02405850002070BD55
:101BF000D0F8080504F0EDBC01EBC10200EB820255
:101C0000D0F80805D26C04F011BC01EBC10200EB66
:101C10008202D0F80805D2F88C2204F075BCD0F806
:101C2000080504F0D8BC0A0601F00F0101EBC10160
:101C300000EB810101D53C3101E001F51F71006825
:101C400005F088BC70B504460B0601F00F0000EBF0
:101C5000C00104EB81014FF001024FF0000502D5F5
:101C60003C314A7002E001F51F714D70087094F824
:101C7000BC04012808D084F8BC24206805F022F9AF
:101C800084F8BC54002070BD022070BD70B50446BD
:101C900001F00F006268904201D9012070BD0B066F
:101CA00001F00F0101EBC10104EB81014FF00102D2
:101CB0004FF0000502D53C314A7002E001F51F717A
:101CC0004D708D70087094F8BC04012808D084F819
:101CD000BC24206805F0EAFA84F8BC54002070BDEA
:101CE000022070BD01F00F0101EBC10100EB81008A
:101CF000D0F89C0270472DE9F04104460F0601F030
:101D00000F0000EBC00104EB81014FF001064FF022
:101D1000000502D53C314E7002E001F51F714D7097
:101D20000870CA600B714A7802B10881022B00D199
:101D30004D7194F8BC04012809D084F8BC64206873
:101D400005F00CF8284684F8BC54BDE8F081022068
:101D5000FBE770B50D4605F00F0404EBC40100EB82
:101D6000810101F51F710A618B6100230B624B70C9
:101D70000C700369012B00D14A612A0705D0027C4F
:101D8000006805F0EBFA002070BD027C006805F0E9
:101D9000D7F9F8E770B504460D46616805F00F0005
:101DA000884201D9012070BD29064FF000064FF08E
:101DB000010206D500EBC00104EB81013C314A7001
:101DC00006E005EBC50104EB810101F51F714E70C2
:101DD0008A70087094F8BC04012807D084F8BC24E9
:101DE000206805F08FFA280702D007E0022070BDB6
:101DF000217C04F2C442206805F02EFA84F8BC6409
:101E0000002070BD70B50D4605F00F0404EBC40151
:101E100000EB81013C310A618B6100230B620123DD
:101E20004B700C700369012B00D14A612A0705D061
:101E3000027C006805F092FA002070BD027C006808
:101E400005F07EF9F8E72DE9F84F044625682846A5
:101E500005F02EFC00287ED1206805F055FC0028F6
:101E600079D0D5F80808C0F30D20C4F8FC04206828
:101E700005F04AFC800704D52068416901F00201A1
:101E80004161206805F040FCC10604F2C4400090A6
:101E900035D52068816921F0100181612F6A07F032
:101EA0000F0000EBC00004EB800606F51F76C7F3B9
:101EB0004340022802D0062812D01BE047F6F070FB
:101EC000074217D0C7F30A1217462846316905F0B2
:101ED0001FFC306938443061306A3844306209E0B0
:101EE00008222846009905F013FC306AC7F30A114E
:101EF000084430622068816941F0100181612068E6
:101F000005F002FC00034FF0080B4FF000094FF002
:101F100001085ED50026206805F0D5FB824655E015
:101F20005FEACA704FD0F1B2206805F0E5FB0746C2
:101F3000F80707D005EB4610C0F8088B314620465D
:101F400002F0E8FD380709D505EB4610C0F808BBDC
:101F50003146204600E0F9E102F0B8FDF80604D56C
:101F600005EB46111020C1F8080BB8071CD56869AD
:101F7000000605D5D5F8040840F48061C5F80418BA
:101F800006EBC60004EB800000F51F70C178012944
:101F900005D180F80390F1B2204600F0DDF905EBA1
:101FA00046110220C1F8080BB80604D505EB46100F
:101FB0002021C0F8081BB80405D505EB46104FF4E6
:101FC0000051C0F8081B761C4FEA5A0ABAF1000FFC
:101FD000A6D1206805F098FB40036CD5206805F079
:101FE0006BFB8246002663E05FEACA705DD0F1B207
:101FF000206805F06FFB0746F80723D006F00F01B5
:1020000008FA01F0D5F834188143C5F8341805EB07
:102010004610C0F80889206901280FD106EBC600D8
:1020200004EB8000D0E912211144C16436B9606D1F
:1020300020B920680121009A05F00EF9F1B220467E
:10204000FFF7DAFD380703D505EB4610C0F808B9ED
:10205000F80604D505EB46111020C1F808097806EA
:1020600004D505EB46104021C0F80819B80716D56D
:102070003146284605F0E8FA06EBC60004EB80007E
:102080003C30C178012905D180F80390F1B2204697
:1020900000F05EF905EB46110220C1F80809380688
:1020A00003D53146204602F0A7FD761C4FEA5A0AB6
:1020B000BAF1000F98D1206805F026FB002811DA4C
:1020C000D5F8040820F00101C5F8041894F8F404C8
:1020D000012829D0204600F00EFA2068416901F05D
:1020E00000414161206805F00FFB00050BD5D5F8D4
:1020F0000808C00702D0204600F042FA2068416973
:1021000001F400614161206805F0FEFAC00461D568
:10211000D5F8040820F00101C5F804181021206842
:1021200005F092FA002120E084F8F4940021204682
:10213000FFF738FDD1E705EB411000F510604FF6D1
:102140007F328260036823F400130360C0F8082222
:10215000D0F8002222F40012C0F80022D0F80022A9
:1021600042F00062C0F80022491C60688842E2D850
:10217000D5F81C0840F00111C5F81C18206B60B19F
:10218000D5F8840840F00B01C5F88418D5F8440848
:1021900040F00B01C5F844180CE0D5F8140842F2E1
:1021A0002B010843C5F81408D5F8100840F00B01BE
:1021B000C5F81018D5F8000820F4FE61C5F800181D
:1021C000217C2068009A05F047F82068416901F4F5
:1021D00080514161206805F097FA800415D5206888
:1021E00004F0FEFD206805F053FAE06000F0A4FA68
:1021F0000146227B206805F0F1FA204600F064F9E0
:102200002068416901F400514161206805F07CFAC1
:10221000000707D5204600F072F92068416901F0F7
:1022200008014161206805F06FFA000615D5A8691C
:1022300020F08001A96101260CE006EBC60004EB4A
:10224000800090F87F02012803D1F1B22046FFF709
:10225000EAFC761C6068B042EFD8206805F054FABA
:10226000C00220D5012616E005EB4610D0F8001973
:1022700006EBC60004EB800090F84020012A09D14B
:10228000002907DA80F83F80F0B240F08001204654
:10229000FFF7C9FC761C6068B042E5D82068416948
:1022A00001F480114161206805F02EFA800230D5DA
:1022B000012026E005EB4011D1F8001B00EBC00225
:1022C00004EB820292F88032012B19D1002917DA2F
:1022D00094F8FC3401F4803103F0010399420FD1EA
:1022E00082F87F82A96941F08002AA6169690906C2
:1022F00006D4D5F8040840F40070C5F8040803E0DB
:10230000401C61688142D5D82068416901F4001100
:102310004161206805F0F8F9400007D52046FFF735
:1023200067FC2068416901F080414161206805F047
:10233000EBF940070AD520684568680702D52046B2
:10234000FFF76DFC2068416829434160BDE8F88FC4
:10235000D0F8080504F094B9D0F8080504F0A5B940
:102360002DE9F0418AB00446002C05D0266894F887
:10237000BD04002520B108E001200AB0BDE8F081CD
:1023800084F8BC54204600F05DF8032084F8BD04B6
:10239000F06BC00500D42561206804F0CBFE04F189
:1023A0001001282288466846FEF7C7F894E80F0017
:1023B00004F024FD022718B184F8BD740120DCE785
:1023C0000021206805F0C3F9002101260DE001EB92
:1023D000C10004EB80003C30467001700181057142
:1023E000C56005618561491CC9B260688842EED844
:1023F00000210DE001EBC10004EB800000F51F702F
:10240000457001700571C56005618561491CC9B2DF
:1024100060688842EED8282241466846FEF78DF86B
:1024200094E80F0004F0CEFD18B184F8BD740120CB
:10243000A3E784F8385084F8BD64206804F0B4FD44
:1024400000209AE710B586B00446142101A8FEF7D3
:10245000DBF82068B0F1A04F2FD1002118480268A6
:1024600042F001020260006800F0010000904FF4A9
:10247000C0500190022002900391032004900A2092
:10248000059001A90F48FFF7CDF90D48001D01681F
:1024900041F0800101600A481430016841F4804134
:1024A0000160006800F48040009000220521432074
:1024B000FFF746FB4320FFF735FB06B010BD0000D9
:1024C000303802400000024070B504460125E06843
:1024D00000280ED0022801D0FEF76EFE2946D4F85F
:1024E000080504F053F9D4F80805BDE8704004F07D
:1024F00006B90025F2E7D0F8080504F030B9D0F8A5
:10250000080504F036B910B5044694F8BC04012857
:102510000BD0012084F8BC0484F83810206805F042
:1025200046F9002084F8BC0410BD022010BDD0F88C
:10253000082500F2C441104604F034B910B5044631
:10254000206894F8BC14012906D0012184F8BC1439
:10255000A16A012902D008E0022010BDA169012969
:1025600003D0816B41F480318163206805F044F829
:10257000206804F00BFD002084F8BC0410BD0000AE
:1025800010B50446D4F8080504F04EF92068D0F8D8
:10259000001E41F00101C0F8001E206A002804D08E
:1025A0000248016841F00601016010BD10ED00E035
:1025B0002DE9F04704460D46002C13D0DFF8289192
:1025C000D9F80000EFB200F00700A8420CD289F859
:1025D0000070D9F8000000F00700A84204D00120E4
:1025E000BDE8F0870120FBE72068404E810712D547
:1025F000400703D5306840F4E05030602078000791
:1026000003D5306840F4604030603068A16820F045
:10261000F000084330602078C00731D0334960684B
:102620000839012808D002280BD0032809D00968EE
:1026300089070BD40120D3E70968890306D4012058
:10264000CEE70968890101D40120C9E7316821F08A
:10265000030101433160FFF7D5F9804641F2883A22
:1026600007E0FFF7CFF9A0EB0800504501D90320A0
:10267000B6E73068616800F00C00B0EB810FF0D174
:10268000D9F8000000F00700A84209D989F80070C5
:10269000D9F8000000F00700A84201D001209FE710
:1026A0002078400705D53068E16820F4E050084301
:1026B00030602078000706D53068216920F460403A
:1026C00040EAC100306000F05DF83168084AC1F3AB
:1026D0000311515CC8400749086007480068FFF7CC
:1026E000B9F900207CE70000003C024008380240B5
:1026F0009CE70008840000207C0000200F2202607C
:102700000B4A136803F003034360136803F0F003FC
:102710008360136803F4E053C360126802F46042FC
:10272000D20802610348006800F0070008607047A3
:1027300008380240003C0240014800687047000031
:102740008400002000B5FFF7F7FF04490968044A38
:10275000C1F38221515CC84000BD0000083802402E
:10276000ACE7000800B5FFF7E7FF04490968044A31
:10277000C1F34231515CC84000BD0000083802403E
:10278000ACE7000810B51748006810F00C011648B7
:1027900016D0164B042912D0082911D1114C241F30
:1027A000216801F03F02216849020AD52068C0F380
:1027B0008810A0FB03010023FDF7E4FD09E01846A3
:1027C00010BD21680023C1F38811A1FB0001FDF7B2
:1027D000D9FD2168C1F30141491C4900B0FBF1F06A
:1027E00010BD0000083802400024F400001BB700B0
:1027F0002DE9F84F0446002C13D02078DFF8A08391
:10280000C007A8F1040556D008F104000168C1F31F
:10281000810101290CD00068C0F38100022803D097
:102820000DE00120BDE8F88FD8F80000400206D581
:10283000286880033FD5606870BB0120F2E76068BC
:10284000B0F5803F10D0B0F5A02F12D0286820F44A
:1028500080302860286820F4802028606068E0B11B
:10286000FFF7D0F8064614E0286840F4803028606E
:10287000F4E7286840F480202860286840F480301D
:102880002860EBE7FFF7BEF8801B642801D903201E
:10289000C8E728688003F5D50DE0FFF7B3F80646D2
:1028A00006E0FFF7AFF8801B642801D90320B9E7E1
:1028B00028688003F5D42078BA4F80074FF00009CC
:1028C00048D5B748001D016811F00C0F08D000680A
:1028D000C0F38100022813D1D8F8000040020FD4C1
:1028E0002868800704D5E068012801D0012099E715
:1028F0002868216920F0F80040EAC100286029E03A
:10290000E068B8B101203860FFF77CF8064606E0C1
:10291000FFF778F8801B022801D9032082E7286896
:102920008007F5D52868216920F0F80040EAC10049
:1029300028600FE0C7F80090FFF764F8064606E04D
:10294000FFF760F8801B022801D903206AE7286896
:102950008007F5D42078000729D5DFF844A29248F3
:1029600061690AF1700A89B101210160FFF74AF833
:10297000064606E0FFF746F8801B022801D903202F
:1029800050E7DAF800008007F4D510E0C0F80090B6
:10299000FFF738F8064606E0FFF734F8801B0228F8
:1029A00001D903203EE7DAF800008007F4D420784C
:1029B000400778D54FF0000A79483C300068C000E5
:1029C0000BD477483C30016841F0805101600068C9
:1029D00000F0805000904FF0010ADFF8D0B1DBF832
:1029E0000000C00514D4DBF8000040F48070CBF880
:1029F0000000FFF707F8064606E0FFF703F8801B24
:102A0000022801D903200DE7DBF80000C005F4D54A
:102A1000634EA0686C3601280FD0052812D03068AC
:102A200020F001003060306820F004003060A068C1
:102A3000F8B1FEF7E7FF834617E0306840F0010089
:102A40003060F4E7306840F004003060306840F0F7
:102A500001003060EBE7FEF7D5FFA0EB0B0141F280
:102A60008830814201D90320DCE630688007F2D546
:102A700010E0FEF7C7FF834609E0FEF7C3FFA0EBB7
:102A80000B0141F28830814201D90320CAE6306847
:102A90008007F2D4BAF1010F05D141483C300168FA
:102AA00021F080510160A069C0B33D49091D09684A
:102AB0004FF0FF36C1F38101022946D0022805D02C
:102AC000C7F86090FEF79EFF04463AE0C7F86090B2
:102AD000FEF798FF814607E0FEF794FFA0EB0900A0
:102AE000022801D903209DE628688001F4D4D4E9A6
:102AF00007010843616AA26A890106EB520241EAB2
:102B00000241084394F82C1040EA0160C8F8000024
:102B100001203866FEF776FF044607E03DE0FEF749
:102B200071FF001B022801D903207BE62868800181
:102B3000F5D532E0FEF766FF001B022801D903201D
:102B400070E628688001F5D427E0012823D0D8F862
:102B50000000E26900F4800191421AD1226A00F07B
:102B60003F01914215D147F6C071626A0140B1EB55
:102B7000821F0ED1A26A00F4403106EB5202B1EB83
:102B8000024F06D194F82C1000F07060B0EB016F8A
:102B900003D0012046E6012044E6002042E6000082
:102BA0000438024000004742800E47420070004057
:102BB00070B50446002C09D0606A002540B125613B
:102BC0006561A56294F8510040B10CE0012070BD30
:102BD0006068B0F5827FF4D0E561F2E784F8505088
:102BE000204600F045F8022084F851002068016872
:102BF00021F040010160A088218900F4827001F475
:102C000004410843A18901F400610843217C01F0DB
:102C100002010843217D01F001010843218B01F4E9
:102C200000710843217F01F03801084394F8201017
:102C300001F080010843218D01F40051084321680F
:102C40000860A069042101EA104094F8241001F002
:102C500010010843216848602068C16921F40061BF
:102C6000C1616565012084F85100002070BD00003D
:102C700030B587B00446142102A8FDF7C5FC244DE9
:102C800020680024234902220323A8421ED12148A0
:102C90001430056845F480550560006800F48050E4
:102CA0000190086840F001000860086800F0010029
:102CB0000190E02002900392049405930520069071
:102CC00002A91548FEF7AEFD07B030BD134DA8426E
:102CD000FAD110481030056845F4004505600068D9
:102CE00000F400400190086840F0020008600868A5
:102CF00000F00200019038200290039204940593A2
:102D00000620069002A90648FEF78CFDDCE70000CD
:102D1000003001403038024000000240003C0040DA
:102D2000000402402DE9F84F04468A4691461D46AC
:102D3000002660684FF0040BB0F5827F01D1A068D7
:102D400088B194F85000012818D0012084F8500070
:102D5000FEF758FE074694F851004FF0000801288E
:102D60000ED0022682E084F851B04B4652465146BE
:102D70002046009500F048F9BDE8F88F0220FBE7F7
:102D8000BAF1000F1BD0B9F1000F18D084F851B080
:102D9000C4F85480C4F838A0A4F83C90A4F83E903D
:102DA000C4F83080A4F83480A4F83680C4F8408099
:102DB000C4F84480A068B0F5004F02D00BE00126B3
:102DC00054E02068016821F040010160206801683A
:102DD00021F48041016020680168490603D401683C
:102DE00041F040010160E068B0B131E020688168E5
:102DF000C90709D0007BA16B0870A06B401CA063C1
:102E0000E08F401EE08707E0FEF7FCFDC01BA842F4
:102E100001D3681C04D11DB1E08F0028E6D11AE06F
:102E2000032623E020688168C90709D0C068A16B28
:102E30000880A06B801CA063E08F401EE08707E045
:102E4000FEF7E0FDC01BA84201D3681C15D1A5B157
:102E5000E08F0028E6D13A462946204601F01AFFC5
:102E600008B120206065606D00B10126012084F862
:102E7000510084F8508030467EE70326F6E72DE9BE
:102E8000F84F04468B4692461D46002694F85000A3
:102E900001280DD04FF0010984F85090FEF7B2FDE3
:102EA000074694F85100B046012804D00226A5E058
:102EB0000220BDE8F88FBBF1000F1CD05FEA0A00CA
:102EC00019D0032084F85100C4F85480C4F830B0FD
:102ED000A4F834A0A4F836A0C4F83880A4F83C8044
:102EE000A4F83E80C4F84480C4F84080A068B0F5DF
:102EF000004F02D00BE0012680E02068016821F03D
:102F0000400101602068016841F48041016020684F
:102F10000168490603D4016841F040010160E0689E
:102F2000B0F5006F05D0606878B3BAF1010F2DD00D
:102F30004DE0606810B1BAF1010F20D1206B21681B
:102F40000088C860206B801C2063E08E401EE086F5
:102F500015E020688168890709D5216B0988C1605F
:102F6000206B801C2063E08E401EE08607E0FEF7A9
:102F700049FDC01BA84201D3681C04D11DB1E08EDD
:102F80000028E6D126E0032638E0FFE7206B216821
:102F900000780873206B401C2063E08E401EE086A2
:102FA00015E020688168890709D5216B09780173CC
:102FB000206B401C2063E08E401EE08607E0FEF799
:102FC00021FDC01BA84201D3681C0ED16DB1E08E5B
:102FD0000028E6D13A462946204601F0A1FE08B174
:102FE00020206065A06810B105E0032606E0206897
:102FF000C16880680090606D00B1012684F851902E
:1030000084F85080304654E72DE9F84F04460A9E74
:103010008A4693461F4601254FF0000894F8500059
:1030200001280ED0012084F85000FEF7EBFC814609
:1030300094F85100616801280DD0B1F5827F07D165
:1030400002E00220BDE8F88FA16809B9042802D087
:103050004FF00208C3E0BAF1000F28D0BBF1000F17
:1030600025D0380023D094F85100042802D0052040
:1030700084F8510000206065C4F838B0E787A7875E
:10308000C4F830A0E786A7862064606420680168E1
:10309000490603D4016841F040010160E068B0F5E1
:1030A000006F07D06068E8B3012F48D07DE04FF093
:1030B000010894E0606808B1012F39D1206B2168C4
:1030C0000088C860206B801C2063E08E401EE08674
:1030D0002EE02068816889070DD5E18E59B1012D58
:1030E00009D1216B0988C160206B801C2063E08EB0
:1030F000401EE086002520688168C9070BD0E18F5B
:1031000049B1C068A16B0880A06B801CA063E08FF0
:10311000401EE0870125FEF775FCA0EB0900B042D8
:1031200006D300E00BE0701C02D04FF0030856E01D
:10313000E08E0028CDD1E08F0028CAD13BE0206B83
:10314000216800780873206B401C2063E08E401ECD
:10315000E0862AE02068816889070DD5E18E59B1A3
:10316000012D09D1216B09780173206B401C20636C
:10317000E08E401EE086002520688168C9070BD0DC
:10318000E18F49B1C068A16B0870A06B401CA063BF
:10319000E08F401EE0870125FEF734FCA0EB09001C
:1031A000B04201D3701C11D186B1E08E0028D1D17C
:1031B000E08F0028CED14A463146204601F0B0FDCE
:1031C00038B14FF001082020606508E04FF0030897
:1031D00005E0A06818B92068C168806800900120E7
:1031E000503460700020207040462BE770477047D5
:1031F00070B590F83C20012A31D0012680F83C605F
:10320000022280F83D2002685468936824F070051B
:103210000C682C435460134C0268A24214D0B2F1E3
:10322000804F11D0104CA2420ED0104CA2420BD0B5
:103230000F4CA24208D00F4CA24205D00E4CA24225
:1032400002D00E4CA24204D123F0800349681943F6
:1032500091603C30467000210170002070BD02205A
:1032600070BD000000000140000400400008004064
:10327000000C0040000401400040014000180040E4
:1032800010B50446002C03D094F83D0010B107E0BF
:10329000012010BD002084F83C00204600F016F804
:1032A000022084F83D00211D206801F0CBFF0120A1
:1032B0003D3460726070A070E07020716071A07128
:1032C000E07120722070002010BD000008B5006879
:1032D0001D49B0F1804F0BD01C4A904211D10868B3
:1032E00040F004000860086800F00400009008BD89
:1032F000086840F001000860086800F001000090D4
:1033000008BD134A904211D1086840F008000860D7
:10331000086800F008000090002205213220FEF726
:103320000FFCBDE808403220FEF7FCBB094988428B
:10333000E6D10548001D016841F480310160006854
:1033400000F48030009008BD403802400008004082
:10335000000C00400040014090F83D10012901D0D0
:1033600001207047022180F83D100068134988420F
:1033700014D0B0F1804F11D0114988420ED01149BC
:1033800088420BD01049884208D01049884205D0A5
:103390000F49884202D00F49884209D1816801F063
:1033A0000701062908D0016841F00101016003E02E
:1033B000016841F0010101600020704700000140F8
:1033C0000004004000080040000C004000040140E0
:1033D000004001400018004090F83D10012901D044
:1033E00001207047022180F83D100168CA6842F050
:1033F0000102CA6000681449884214D0B0F1804FBD
:1034000011D0124988420ED0114988420BD011497F
:10341000884208D01049884205D01049884202D01D
:103420000F49884209D1816801F00701062908D0B7
:10343000016841F00101016003E0016841F0010110
:1034400001600020704700000000014000040040BF
:1034500000080040000C0040000401400040014012
:103460000018004070B50446002594F83C0001287F
:1034700017D0012684F83C60022084F83D002068C3
:10348000826822F0770222F47F4282600868502826
:1034900038D00DDC202853D005DC90B3102811D192
:1034A0004EE0022070BD30284AD040280AD13DE0CD
:1034B000602831D070280CD0B0F5805F03D0B0F513
:1034C000005F12D001253C34667000202070284631
:1034D00070BDCB68D1E90121206801F026FF20688A
:1034E000816841F077018160EDE7CB68D1E9012186
:1034F000206801F01AFF2068816841F480418160F2
:10350000E1E71DE0CA684968206801F0F1FF502139
:10351000206801F014FFD6E7CA684968206801F006
:10352000F8FF6021206801F00AFFCCE7CA6849680B
:10353000206801F0DDFF4021206801F000FFC2E7B4
:1035400022680146104601F0FAFEBCE7704770B5EC
:103550000446206801694FF00005C943890716D465
:10356000C168C943890712D4E91E0161012020778F
:1035700020688069800703D02046FFF7E7FF05E059
:10358000204600F0F9F8204600F089F925772068F8
:103590000169C943490718D4C168C943490714D40C
:1035A0006FF004010161022020772068806910F427
:1035B000407F03D02046FFF7C9FF05E0204600F01A
:1035C000DBF8204600F06BF9257720680169C943D4
:1035D000090717D4C168C943090713D46FF008015C
:1035E0000161042020772068C069800703D020464D
:1035F000FFF7ACFF05E0204600F0BEF8204600F0E3
:103600004EF9257720680169C943C90618D4C168F5
:10361000C943C90614D46FF0100101610820207756
:103620002068C06910F4407F03D02046FFF78EFF6A
:1036300005E0204600F0A0F8204600F030F925779C
:1036400020680169C943C90708D1C168C943C907CE
:1036500004D1891E0161204600F090F920680169BB
:10366000C943090609D4C168C943090605D46FF0E6
:10367000800101612046FFF7B9FD20680169C94357
:10368000490609D4C168C943490605D46FF0400111
:103690000161204600F07CF920680169C943890670
:1036A0000BD4C168C943890607D46FF020010161BA
:1036B0002046BDE87040FFF79ABD70BD10B586B0DA
:1036C0000446142101A8FCF79FFF20680021244A2A
:1036D0000223B0F1804F17D0224CA04228D11068AD
:1036E00040F002001060106800F0020000904FF4FB
:1036F00070700190029303910491059301A91A48F7
:10370000FEF790F806B010BD106840F001001060A0
:10371000106800F0010000900720019002930391CF
:1037200004910120059001A91048FEF77BF8E9E714
:103730000F4CA042E6D1106840F0100010601068F5
:1037400000F010000090602001900293039104911A
:103750000320059001A90748FEF764F8D2E70000AE
:1037600030380240000800400004024000000240DF
:103770000040014000100240704770B504460D46FD
:10378000002694F83C0001280FD0012084F83C006A
:103790006AB1042A1FD0082A32D00C2A44D001264C
:1037A000002084F83C00304670BD022070BD2946E0
:1037B000206801F0CDFD2068816941F00801816138
:1037C0002068816921F004018161206881692A698A
:1037D00011438161E4E72946206801F0EDFD20688E
:1037E000816941F4006181612068816921F480610F
:1037F0008161206881692A6941EA02218161CFE7FC
:103800002946206801F012FE2068C16941F00801D4
:10381000C1612068C16921F00401C1612068C169EA
:103820002A691143C161BBE72946206801F036FED1
:103830002068C16941F40061C1612068C16921F457
:103840008061C1612068C1692A6941EA0221C161C0
:10385000A6E710B50446002C03D094F83D0010B143
:1038600007E0012010BD002084F83C00204600F055
:1038700015F8022084F83D00211D206801F0E2FCCB
:1038800001203D3460726070A070E0702071607142
:10389000A071E07120722070002010BD7047704749
:1038A00010B50446002909D004290AD008290BD0F4
:1038B00094F8410001280AD0012010BD94F83E0080
:1038C000F8E794F83F00F5E794F84000F2E70220AB
:1038D000A9B3042937D0082938D084F8410001223F
:1038E000206801F015FD1E4920681E4A884201D05B
:1038F000904203D1436C43F4004343642068884200
:1039000013D0B0F1804F10D0174988420DD017491D
:1039100088420AD01649884207D0904205D01549FE
:10392000884202D01449884213D1816801F007010E
:10393000062912D0016841F0010101600DE0FFE7A6
:1039400084F83E00CBE784F83F00C8E784F84000E5
:10395000C5E7016841F001010160002010BD0000D1
:103960000000014000040140000400400008004045
:10397000000C00400040014000180040006803496E
:10398000884201D1FEF744B8704700000020004093
:10399000704738B5044694F83E00202801D0022034
:1039A00038BD71B16AB194F83C0001280BD00120F8
:1039B00084F83C002063204601F094FF014621B1C9
:1039C00007E0012038BD022038BD206B012802D05D
:1039D0000121084638BD20680268406800902068D0
:1039E0000C3050E8002F42F0100240E80023002B7A
:1039F000F5D1EEE710B50068124A90420BD132299A
:103A00001FD8114807F0EEFDBDE8104032220E49E4
:103A10000E48FFF7BEBF0E4A904212D10415A142D4
:103A20000FD80A460B48084900233231406909F093
:103A300024FD22460449BDE8104032310648FFF714
:103A4000A8BF10BD00500040D43D0020B0040020AD
:103A50000044004078010020380500200068094932
:103A6000884204D1322208490848FFF792BF08492A
:103A7000884205D10215044906483231FFF789BF53
:103A80007047000000500040D43D0020B0040020EA
:103A90000044004038050020F8B50446226810684C
:103AA000D168536900F00F06002E08D1850606D5AF
:103AB0008D0604D52046BDE8F84001F026BE00255D
:103AC000002E66D003F0010601F49077374360D0F2
:103AD000C20705D0CA0503D5226C42F00102226458
:103AE000420705D5DA0703D0226C42F002022264B5
:103AF000820705D5DA0703D0226C42F00402226463
:103B0000020707D501F02002324303D0226C42F0B5
:103B100008022264226C002A31D0800604D588066F
:103B200002D5204601F0F1FD20684069C0F3801005
:103B3000216C090700D438B3204601F0A4FD2068A9
:103B4000406940061CD52068143050E8001F21F061
:103B5000400140E80012002AF5D1A06B60B157493E
:103B60000165A06BFDF7AFFC002808D0A06B016DCC
:103B700001B0BDE8F04008472046FFF76FFFF8BDF1
:103B80002046FFF76BFFF8BD2046FFF767FF25646F
:103B9000F8BD236B012B7ED1C3067CD5CB067AD52D
:103BA00010685068009050694FF02003400643D5DC
:103BB000A16B0868406880B20028E9D0A28D8242DB
:103BC000E6D9E085C869B0F5807F2DD020680C303B
:103BD00050E8001F21F4807140E80012002AF5D15E
:103BE0002068143050E8001F21F0010140E8001265
:103BF000002AF5D12068143050E8001F21F0400160
:103C000040E80012002AF5D184F83E302563206890
:103C10000C3050E8001F21F0100140E80012002A8B
:103C2000F5D1A06BFDF708FCA08DE18D401A81B2A3
:103C30002046FFF7DFFEF8BDA08DE18D401A81B26E
:103C4000E08D0028F7D00029F5D020680C3050E82E
:103C5000002F22F4907240E80026002EF5D1206853
:103C6000143050E8002F22F0010240E80026002E18
:103C7000F5D184F83E30256320680C3050E8002FE1
:103C800022F0100240E80023002BF5D12046FFF778
:103C9000B1FEF8BDFFE7020606D50A0604D52046A8
:103CA000BDE8F84001F06ABE4006F2D54806F0D5FE
:103CB0002046BDE8F84001F00DBD00004555000864
:103CC00070B50446002C04D094F83D00002510B1D6
:103CD00006E0012070BD84F83C50204600F022F838
:103CE000242084F83D002068C16821F40051C1609F
:103CF000204601F06DFD2068016921F490410161C9
:103D00002068416921F02A0141612068C16841F4BD
:103D10000051C1602564202084F83D0084F83E00F5
:103D2000002070BD2DE9F04F87B00446142102A891
:103D3000FCF76AFCA449DFF88CC22068A24A10395B
:103D400002250327A14B00264FF0080A60451DD12C
:103D5000106840F400201060106800F4002001900A
:103D6000086840F004000860086800F00400019052
:103D7000B8020290039504960597CDF818A002A901
:103D80001846FDF74FFD07B0BDE8F08FDFF840C2E1
:103D90004FF000684FF4806960454DD1106840F4E1
:103DA00080101060106800F480100190086840F0E6
:103DB00004000860086800F004000190086840F002
:103DC00008000860086800F0080001904FF4805077
:103DD0000290039504960597CDF818A002A91846FD
:103DE000FDF720FD04200290039504960597CDF879
:103DF00018A002A97748FDF715FD784D7648286090
:103E0000C5F80480AE60EE60C5F810906E61AE61DA
:103E1000EE612E626E622846FDF750FC08B1FDF798
:103E2000CBF9A563AC63002205213520FDF788FEA0
:103E30003520FDF777FEA6E7DFF8A4E1DFF888B1CB
:103E40004FF0070C0BF1040B70451FD1DBF800009D
:103E500040F01000CBF80000DBF8000000F010008C
:103E60000190086840F001000860086800F0010057
:103E700001904FF4C0600290039504960597CDF829
:103E800018C002A95748FDF7CDFC7CE7DFF858E1E0
:103E9000704554D1106840F400301060106800F490
:103EA00000300190086840F008000860086800F0E1
:103EB0000800019060200290039504960597CDF8C4
:103EC00018C002A94348FDF7ADFC4348434D90306C
:103ED00060352860C5F804804020A860EE60C5F811
:103EE00010906E61AE61EE612E626E622846FDF743
:103EF000E5FB08B1FDF760F96563AC633648374D03
:103F00007830C0352860C5F80480AE60EE60C5F832
:103F100010906E61AE61EE612E626E622846FDF712
:103F2000CDFB08B1FDF748F9A563AC63002205217C
:103F30002620FDF705FE2620FDF7F4FD23E72B4C98
:103F4000A0421CD1106840F480201060106800F47A
:103F500080200190086840F008000860086800F0C0
:103F6000080001904FF44070029003950496059765
:103F7000CDF818C002A91748FDF754FC03E71C4A06
:103F80009042DBD1DBF8000040F02000CBF80000CD
:103F9000DBF8000000F020000190086840F0040009
:103FA0000860086800F004000190C02002900395AA
:103FB00004960597CDF818A002A91846FDF732FC23
:103FC000E1E60000004C004040380240000802409A
:103FD00000500040000C0240106002400406002027
:103FE0000010014000000240004400400048004032
:103FF0000014014070477047F7B5044694F83D003F
:10400000202801D00220FEBD019999B392B394F803
:104010003C00012831D0012084F83C002162A284B8
:10402000E28400252564212084F83D00636B144858
:10403000D863636B13481864636B1348D864606B70
:10404000056526681346361D3246606BFDF7A0FBFA
:1040500021686FF04000086084F83C5020681430FC
:1040600050E8001F41F0800140E80012002AF5D11D
:104070000020FEBDFFE70120FBE70220F9E700007A
:104080003B5600087D560008555500080068034956
:10409000884202D102490020087070470044004065
:1040A000780100207047FEE7F0B500230A2530268E
:1040B0003727002412E0B5EB107F04D906EB107C03
:1040C00001F813C003E007EB107C01F813C00001F6
:1040D00001EB430C8CF801405B1CDBB29342EAD34A
:1040E000F0BD00007FB50024009401940294039475
:1040F0001348124901604FF48031416084600461CB
:10410000047680F82040C4620E498162C4600125B3
:10411000C56180F830404561FDF734F908B1FDF71D
:104120004BF8042000900195029469460448FDF77D
:104130007DF8002801D0FDF73FF87FBD0020014049
:10414000540200200100000F08B51148016841F435
:1041500000110160006800F40010009000220521A9
:104160000B20FDF7EDFC0B20FDF7DCFC0022052108
:104170001020FDF7E5FC1020FDF7D4FC00220521FE
:104180001120FDF7DDFCBDE808401120FDF7CABC99
:104190003038024010B5124A0021124806F0F4F9F6
:1041A000114C20600E4A00212432104806F0ECF930
:1041B00060600B4A002148320D4806F0E5F9A06026
:1041C000074A00216C320B4806F0DEF9E060044A31
:1041D00000219032084806F0D7F9206110BD000098
:1041E000D4E60008634E000800000020734E00086B
:1041F000D94E0008114F0008854E00082DE9F04700
:1042000086B0142101A8FCF7FFF900273F48016898
:1042100041F010010160016801F010010091016896
:1042200041F080010160016801F0800100910168A6
:1042300041F001010160016801F001010091016894
:1042400041F004010160016801F00401009101687E
:1042500041F002010160016801F002010091016872
:1042600041F008010160006800F008000090284E4D
:10427000012230213046FDF7BDFBDFF89890002287
:1042800001214846FDF7B6FB012202214846FDF711
:10429000B1FBDFF884A04FF40048012241465046AC
:1042A000FDF7A8FB3020019001240294039403251C
:1042B000049501A93046FDF7B5FA019402940397DD
:1042C000049501A94846FDF7ADFA0226019602942D
:1042D0000394049501A94846FDF7A4FA4FF4604001
:1042E00001900296039704950520059001A9484680
:1042F000FDF798FACDF8048002940394049501A97F
:104300005046FDF78FFA06B0BDE8F087303802401E
:104310000008024000040240000C024010B51048A2
:104320000E4901604FF48271416000218160C160DB
:104330000222026101224261520282611022C261A4
:104340000162416281620A21C162FEF731FC0028EC
:1043500003D0BDE81040FCF72FBF10BD0030014076
:104360009C02002010B50F480D4901604FF4827186
:10437000416000218160C160016141614FF40072C0
:104380008261C1610162416281620A21C162FEF7FC
:104390000FFC002803D0BDE81040FCF70DBF10BD96
:1043A000003C0040F402002010B58EB000240A94B6
:1043B0000B940C940D94089409941C2101A8FCF70B
:1043C00023F925484FF08041016044608460611EFC
:1043D000C16004618461FEF753FF08B1FCF7ECFE95
:1043E0004FF480500A900AA91B48FFF73BF808B128
:1043F000FCF7E2FE1848FFF72CFA08B1FCF7DCFEE8
:104400000894099408A91448FEF7F2FE08B1FCF7D5
:10441000D3FE60200190029403940594002201A928
:104420000D48FFF7AAF908B1FCF7C6FE042201A95E
:104430000948FFF7A2F908B1FCF7BEFE082201A95E
:104440000548FFF79AF908B1FCF7B6FE0248FFF7F6
:1044500035F90EB010BD00004C03002010B58EB031
:1044600000240A940B940C940D94089409941C2134
:1044700001A8FCF7C9F82A482849016029214160B0
:10448000846041F28731C16004618461FEF7F8FE07
:1044900008B1FCF791FE4FF480500A900AA9204819
:1044A000FEF7E0FF08B1FCF787FE1D48FFF7D1F9E2
:1044B00008B1FCF781FE0894099408A91848FEF792
:1044C00097FE08B1FCF778FE6020019002940394F7
:1044D0000594002201A91248FFF74FF908B1FCF733
:1044E0006BFE042201A90E48FFF747F908B1FCF75B
:1044F00063FE082201A90A48FFF73FF908B1FCF75B
:104500005BFE0C2201A90648FFF737F908B1FCF75A
:1045100053FE0348FFF7D2F80EB010BD000800406C
:104520009403002010B586B00024029403940494F0
:1045300005940094019414481249016029214160B6
:104540008460611EC160046180218161FEF798FE74
:1045500008B1FCF731FE4FF48050029002A90A48DE
:10456000FEF780FF08B1FCF727FE0094019469462E
:104570000548FEF73DFE002801D0FCF71DFE06B001
:1045800010BD0000000C0040DC03002010B58CB012
:104590000024089409940A940B941C2101A8FCF7A8
:1045A00033F81D481B490160446084604FF6FF7179
:1045B000C16004618461FEF763FE08B1FCF7FCFD95
:1045C0004FF48050089008A91348FEF74BFF08B13C
:1045D000FCF7F2FD1048FFF73CF908B1FCF7ECFDE1
:1045E00060200190029403940594002201A90A48D6
:1045F000FFF7C3F808B1FCF7DFFD042201A9064864
:10460000FFF7BBF808B1FCF7D7FD0348FFF756F8F2
:104610000CB010BD004001402404002010B50C482F
:104620000A4901604FF4E131416000218160C160BD
:1046300001610C2242618161C161FFF741FB0028E9
:1046400003D0BDE81040FCF7B7BD10BD004C0040E2
:104650006C04002010B50E480C4901600D49416002
:104660004FF4805181604900C160C91001610C2183
:10467000416100218161C161FFF722FB002803D065
:10468000BDE81040FCF798BD10BD00000050004090
:10469000B0040020A086010010B50C480A49016052
:1046A0004FF4E131416000218160C16001610C2261
:1046B00042618161C161FFF703FB002803D0BDE8BF
:1046C0001040FCF779BD10BD00100140F40400203B
:1046D00010B50C480A4901604FF4E13141600021F6
:1046E0008160C16001610C2242618161C161FFF79B
:1046F000E7FA002803D0BDE81040FCF75DBD10BD0F
:10470000004400403805002010B50C480A490160FB
:104710004FF4E131416000218160C16001610C22F0
:1047200042618161C161FFF7CBFA002803D0BDE887
:104730001040FCF741BD10BD004800407C05002042
:1047400010B50C480A4901604FF4E1314160002185
:104750008160C16001610C2242618161C161FFF72A
:10476000AFFA002803D0BDE81040FCF725BD10BD0E
:1047700000140140C005002010B500220F49104868
:1047800001F02EFE08B1FCF717FD0E490C4802F0AF
:1047900075F808B1FCF710FD0B49094801F016FB4C
:1047A00008B1FCF709FD064802F03EF9002803D0E5
:1047B000BDE81040FCF700BD10BD00001400002053
:1047C0006C070020E40000206400002010B52DEDEF
:1047D000088BB0EE408AB0EE609AF0EE418AB0EEFF
:1047E00061BAF0EE429AB0EE62AAB5EEC0BAF6EE49
:1047F00000BAF1EE10FA6A4C09D1F5EEC09AF1EE6A
:1048000010FA04D1B5EEC0AAF1EE10FA67D02BEE83
:104810000B0A09EEA90A0AEE0A0A04F07DFE6BEE05
:10482000002A29EE803A2AEE002AD4ED031A94EDEC
:10483000050AD4ED020AD4ED043A21EE801A00EE06
:10484000E31A60EEA11A43EE801AF0EE6BAA50EE66
:10485000A0AA40EE00AA63EE2A0A42EE610A22EE06
:10486000012A02EEEA2A62EEA11A43EE411A94ED01
:10487000010AB5EEC00AF1EE10FA20DD20EE203A72
:1048800094ED091AD4ED062A43EE012AC4ED062A56
:1048900060EE023A94ED073A03EE813A84ED073A6E
:1048A00060EE213A94ED080A03EE810A84ED080ACD
:1048B00038EE228A39EE039A78EE808A07E09FED7F
:1048C000390A84ED060A84ED070A84ED080AB3EE7E
:1048D000040A00EE808A02EE009A41EE808A94ED8E
:1048E000090A20EE2B1A21EE080A61EE090A21EED0
:1048F000281AD4ED021A94ED032AD4ED042AB1EE5D
:10490000423A63EE003A94ED053A42EEE03A43EE65
:10491000413A73EEA14AC4ED024A61EE803A42EE9A
:10492000813A43EE603A73EE823AC4ED033A21EEE7
:10493000A04A02EE414A03EE004A34EE224A84EDD8
:10494000044A21EE811A02EE201A02EEC01A71EE1C
:10495000030AC4ED050A24EEA40A03EEA30A04EE3A
:10496000040A00EEA00A04F0D7FDD4ED020A60EEBE
:10497000800AC4ED020AD4ED030A60EE800AC4ED99
:10498000030AD4ED040A60EE800AC4ED040AD4EDF3
:10499000050A20EE800A84ED050ABDEC088B10BDE7
:1049A00090010020000000000F48DFED0E0AC0ED6E
:1049B000010AB7EE001A80ED021ADFED0C0AC0ED15
:1049C000030AC0ED040AC0ED050AC0ED060AC0EDF9
:1049D000070AC0ED080A00210170C1EE000AC0ED0F
:1049E000090A7047CDCCCC3E9001002000000000A9
:1049F00010B52DED028BF6EE008A2E4CF0EE680A13
:104A000004F1280094ED030AD4ED021A94ED041A7F
:104A100040EE400A21EE800AD4ED051A01EE210A8B
:104A200041EE410A04F082F894ED0A0A84ED0D0A81
:104A30009FED218A20EE080A84ED0A0A94ED030A0C
:104A4000D4ED050A94ED041A20EE200AD4ED020AF2
:104A500000EEC10AF8EE000A20EE200A03F016F973
:104A600084ED0E0A20EE080A84ED0B0A94ED040A88
:104A7000D4ED031A94ED051A40EE408A21EE800A27
:104A8000D4ED021A04F1300001EE810AF0EE680A5A
:104A900041EE410A04F04AF894ED0C0A84ED0F0A45
:104AA00020EE080A84ED0C0A01202070BDEC028B78
:104AB00010BD000090010020E12E6542FEE7FEE7F8
:104AC0000148FDF7C0B90000681E002070B504461B
:104AD0002068056C00EB4110D0F8081B0C4EB54265
:104AE00005D9090403D54FF40041C0F8081B20463E
:104AF000FDF71DFDB54208D92069012805D104F252
:104B0000C4420121206802F0A7FB002070BD000014
:104B10000A30544F2DE9F04105460C462E68306CA2
:104B200006EB4411D1F8083BD5F810804FF400474C
:104B30004FF0200C05F2C442B8F1010F08D0DFF8A5
:104B4000B080404545D118043AD5C1F8087B4CE007
:104B5000284E5FEA037806D5B04246D9180444D5FA
:104B6000C1F8087B41E05FEA836802D5C1F808CB51
:104B70003BE013F0280F38D1B04204D9180402D515
:104B8000C1F8087B31E004EBC40005EB800000F5C0
:104B90001F70D1F8101BC369C1F31201591A0162C9
:104BA00024B983693BB1026911440161E1B228462D
:104BB000FDF72BF819E00121286802F04DFBF5E71D
:104BC000980601D5C1F808CBE1B22846FDF71DF8DB
:104BD0000BE034B9D5F8940218B90021304602F040
:104BE0003BFBE1B22846FDF710F80020BDE8F0815C
:104BF0000A31544F0A30544F2DE9F84F80460E4683
:104C0000D8F8007006EBC60008EB80043C34A169BC
:104C1000206A884202D90120BDE8F88F081AE168AD
:104C2000814200D20846C01C4FEA900A07EB4619A1
:104C300016E0151AE268AA4200D21546E81C4FEAAF
:104C4000900A98F810000090ABB2F2B23846216991
:104C500002F03EFE206928442061206A2844206238
:104C6000D9F8180980B2504505D3A269206A90424C
:104C700001D2002ADDD1216AA069884208D806F055
:104C80000F0101208840D7F834188143C7F8341841
:104C90000020C1E7F8B504464FF4827560684FF410
:104CA0008063A8420AD1A068B0F5004F01D09842B5
:104CB00004D12068066826F0400606606068A842B5
:104CC0001ED1A06898420DD00B4600920022802190
:104CD000204600F063F808B3606D40F02000606586
:104CE0000320F8BD0B46009200220121204600F06F
:104CF00055F898B1606D40F0200060650320F8BD64
:104D00000B46009200220121204600F047F828B10E
:104D1000606D40F0200060650320F8BD0020F8BD04
:104D20007CB504461348144D0068B0FBF5F04FF411
:104D30007A75684301906068B0F5827F0DD10B46AB
:104D4000009200228021204600F028F878B1606DA2
:104D500040F02000606503207CBD019838B10198C7
:104D6000401E019020688068C0430006F5D50020F1
:104D70007CBD00008400002000366E0101B582B0C9
:104D80004FF47A700090012301AA02A90248FEF7AD
:104D90003BF99DF804000EBDF40200202DE9F84314
:104DA00004460F4691461E46089DFCF72BFE401B0D
:104DB000351AFCF727FE804626480068C0F3CB3042
:104DC000684300903AE0701C38D0FCF71BFEA0EB63
:104DD0000800A84203D215B1009858B32BE0206810
:104DE000416821F0E00141606068B0F5827F0BD13D
:104DF000A068B0F5004F02D0B0F5806F04D12068F4
:104E0000016821F040010160A06AB0F5005F09D19E
:104E10002068016821F4005101602068016841F4B4
:104E20000051016001205034607000202070032088
:104E3000BDE8F88300250098401E00902068806837
:104E400037EA000004D000204845BCD10020EFE73D
:104E50000120F9E7840000200178407841EA002031
:104E60007047FFF789FC642007F0AAFD07F04CF9B2
:104E7000FCE708B508F010FD00900121684607F036
:104E8000C7FDFAE790B008F007FD0F900F4C16220F
:104E900021466846FBF70CFB0C4922220C3906A878
:104EA000FBF706FB06A90A480EC907F0F7FA0A2124
:104EB000084807F015FA07F0A1F90649044804F07C
:104EC00071F80A210FA807F0A3FDE0E7A03A00203F
:104ED000D83B0020D20100209EB008F0DDFC1D90E0
:104EE000094C04F10C05702229466846FBF725FBA6
:104EF00094E80E00B1EE000A044803F0BDFC042162
:104F00001DA807F085FDEEE7D8010020D83B002062
:104F1000A4B008F0C1FC22901C211BA8FBF774FB75
:104F20009FED880AFFF740FD03F05EFC884DDFF837
:104F300018A2DFF818B205F11000864F4FF4FA6698
:104F40002390012211468448FCF754FD80491BA898
:104F500006F010FA7E4804F015F96C226846239991
:104F6000FBF7EBFA95E80F0006F066FC784804F0D2
:104F70005DF97A48007808280BD00020CAF81C0098
:104F8000CBF81C007649C8617648C07900287DD0EE
:104F9000BBE06C2268462399FBF7CFFA95E80F0037
:104FA000B0EE000A03F0F0FC6F48DAF82C10DBF8E2
:104FB0002C20B0F900006A4B00EB400000EE100A14
:104FC000DB6A684CF8EEC00A00EE101AA48970EE95
:104FD000800A00EE102A70EEC00A00EE103A70EE61
:104FE000800A00EE104AB8EE400A30EE800ABDEEAC
:104FF000C00A10EE109AC7F8009000EE100AF8EE02
:10500000C00A00EE101A70EE800A00EE102A70EE50
:10501000800A00EE103A70EEC00A00EE104AB8EEB8
:10502000400A30EE800ABDEEC00A10EE10CAC7F882
:1050300004C000EE100AF8EEC00A00EE101A70EE7E
:10504000C00A00EE102A70EE800A00EE103A70EEF0
:10505000800A00EE104AB8EE400A30EE800ABDEE3B
:10506000C00A10EE108AC7F8088000EE100AF8EEA9
:10507000C00A00EE101A70EEC00A00EE102A70EEA0
:10508000C00A00EE103A70EEC00A00E034E000EE14
:10509000104AB8EE400A30EE800ABDEEC00A10EEAB
:1050A000100AF860B9F1000F02DA4FF0000902E0CF
:1050B000B14500DDB146C7F80090BCF1000F02DA3F
:1050C0004FF0000C02E0B44500DDB446C7F804C060
:1050D000B8F1000F02DA4FF0000802E0B04500DD41
:1050E000B046C7F80880002801DA002002E0B0428C
:1050F00000DD3046F86047E76C2268462399FBF7ED
:105100001CFA95E80F0006F015FB97ED030A13480B
:10511000F8EEC01A97ED020AB8EEC01A97ED010A30
:10512000F8EEC00A97ED000AB8EEC00A05F0D6F90D
:10513000002201210848FCF75DFC022122A807F0AB
:1051400067FCFEE60000FA43543C0020843C00204B
:10515000D80100200846002000040240D2010020AF
:10516000B43C002018460020D83B002010B54FF07A
:10517000E020006908F082FB012803D0BDE8104060
:1051800007F064BE10BD000030B593B0302107A811
:10519000FBF73AFA142102A8FBF736FA00251D485E
:1051A000016841F080510160006800F0805001907A
:1051B0001948016841F480410160006800F48040B2
:1051C0000190012007900004089002240D948001B2
:1051D0000E9006200F90A820109011940720129096
:1051E00007A8FDF705FB08B1FBF7E6FF0F200290CB
:1051F000039404954FF4A05005904FF4805006900E
:10520000052102A8FDF7D4F9002801D0FBF7D4FF4F
:1052100013B030BD403802400070004002480168C1
:1052200041F470010160704788ED00E00148FEF72D
:105230008EB90000DC0300200148FEF788B90000A9
:10524000240700202DE9F0410268264D264E274F05
:10525000DFF89CC0274B4FF08048A84209D040455A
:1052600007D0B04205D0B84203D0604501D0984283
:1052700003D122F070044A682243A8421BD0404563
:1052800019D0B04217D0B84215D0604513D098421B
:1052900011D0194CA0420ED0184CA0420BD0184C83
:1052A000A04208D0174CA04205D0174CA04202D013
:1052B000164CA04203D122F44074CA6822434C69C0
:1052C00022F08002224302608A68C2620A68826217
:1052D000A84201D0984201D10969016301214161CD
:1052E000BDE8F081000001400004004000080040DB
:1052F000000C004000040140004001400044014017
:105300000048014000180040001C00400020004000
:1053100010B501F01F0101238B40046A9C43046215
:10532000036A8A401343036210BD10B5846824F4F5
:105330007F4442EA03220A432243826010BD82680E
:1053400022F070020A4342F00701816070470000BA
:10535000F0B5026A22F001020262026A43688469BF
:1053600024F0700424F003050C682C4322F002059D
:105370008A682A430E4E0F4FB04201D0B84205D181
:1053800022F00805CA682A4322F00402B04201D084
:10539000B84207D123F4807323F400734D691D4391
:1053A0008B692B4343608461496841630262F0BDAD
:1053B0000000014000040140F0B5026A22F0100232
:1053C0000262036A4268846924F4E04424F440746D
:1053D0000D6844EA052423F020038D6843EA051391
:1053E000104D114EA84201D0B04206D123F08003E7
:1053F000CF6843EA071323F04003A84201D0B0422C
:1054000009D122F4806222F400624D6942EA8502E9
:105410008D6942EA85024260846149688163036262
:10542000F0BD00000000014000040140F0B5026A38
:1054300022F480720262026A4368C46924F0700434
:1054400024F003050C682C4322F400728D6842EAB4
:105450000522104D104EA84201D0B04206D122F4D0
:105460000062CF6842EA072222F48062A84201D09B
:10547000B04209D123F4805323F400534D6943EA29
:1054800005138D6943EA05134360C4614968C1632C
:105490000262F0BD000001400004014030B5026A24
:1054A00022F480520262046A4268C36923F4E04332
:1054B00023F440730D6843EA052324F400548D68F7
:1054C00044EA0534084DA84202D0084DA84204D150
:1054D00022F480424D6942EA85124260C361496804
:1054E0000164046230BD000000000140000401407E
:1054F00010B5036A046A24F001040462846924F08C
:10550000F00444EA021423F00A020A4384610262AE
:1055100010BD10B5036A23F0100303628469036AA7
:1055200024F4704444EA023223F0A00343EA011158
:105530008261016210BD00000148FEF7ADBA0000B3
:10554000B004002010B5806B0021C185C184FEF736
:1055500085FA10BD70B5846B20684069C0F3C01037
:1055600094F83D100025212904D118B1E584204686
:1055700000F0BDF820684069C0F3801094F83E1038
:10558000222904D118B1E585204600F07CF8206C72
:1055900040F0100020642046FEF760FA70BD10B5A0
:1055A0000146886B09680968C9052FD40021C185A7
:1055B00001680C3151E8002F22F4807241E8002389
:1055C000002BF5D10168143151E8002F22F00102BF
:1055D00041E80023002BF5D10168143151E8002F78
:1055E00022F0400241E80023002BF5D1202180F871
:1055F0003E10016B012909D101680C3151E8002FDF
:1056000022F0100241E80023002BF5D1016B0129A3
:1056100002D0FEF7EFFC10BD818DFEF7EBF910BD57
:1056200010B5806B016B012902D0FEF7E4FC10BDC0
:10563000818D4908FEF7DEF910BD10B50146886B73
:1056400009680968C90516D40021C18401681431AC
:1056500051E8002F22F0800241E80023002BF5D111
:1056600001680C3151E8002F42F0400241E800236C
:10567000002BF5D110BDFEF709FD10BD10B5806BF4
:10568000FEF710FD10BD01680C3151E8002F22F427
:10569000907241E80023002BF5D10168143151E8E4
:1056A000002F22F0010241E80023002BF5D1016B0D
:1056B000012909D101680C3151E8002F22F01002B4
:1056C00041E80023002BF5D1202180F83E10002175
:1056D0000163704710B50168CA6822F04002CA60D1
:1056E000202180F83D10FEF7D1FC002010BD01689C
:1056F0000C3151E8002F22F0C00241E80023002BBA
:10570000F5D1202180F83D10704708B590F83E1083
:10571000222901D0022008BD82684FF480539A42AA
:1057200001D1016921B1816A9A421DD052B10BE0C9
:10573000816A02685268C2F308020A80816A891C81
:10574000816209E002697AB10268526802F07F0260
:105750000A70816A491C8162C18D491E0904090CC5
:10576000C18505D0002008BD026852680A70F0E7C4
:105770000168CA6822F02002CA600168CA6822F47F
:105780008072CA6001684A6922F001024A612021E0
:1057900080F83E10016B012903D0FEF72BFC00209E
:1057A00008BD0021016301680C3151E8002F22F08F
:1057B000100241E80023002BF5D101680A68D206E7
:1057C00002D50A6849680091818DFEF713F9E6E772
:1057D0002DE9F041044620680169E26821F4405156
:1057E00011430161A1682069E269014360691043C6
:1057F00001432068C26849F20C639A430A43C260BD
:1058000020684169A26921F4407111434161334923
:105810002068884202D03249884202D1FCF7A2FFB8
:1058200001E0FCF78FFFE169002319276425322688
:10583000B1F5004F28D061688B0F8A00A0FB0701EB
:10584000FAF7A0FD0146B0FBF5F07A42504301EBB8
:10585000800006EB0010B0FBF5F000F0F002B1FBA9
:10586000F5F002EB0012B1FBF5F07B42584301EB7F
:10587000800006EB0010B0FBF5F0216800F00F008F
:1058800010448860BDE8F08161684A18A0FB0701F8
:105890005B41FAF777FD0146B0FBF5F00201B1FB81
:1058A000F5F06FF01803584301EB800006EBC000E1
:1058B000B0FBF5F000F0F80002EB4002B1FBF5F0B0
:1058C000584301EB800006EBC000B0FBF5F0216807
:1058D00000F0070010448860D4E700000010014089
:1058E0000014014037B582B004461346039AA26201
:1058F000A38500252564222084F83E00A16B1C4866
:10590000C863A16B1B480864A16B1B48C864A06BEB
:1059100005652168A06B091DFBF73AFF2068016847
:105920004068019084F83C50206948B120680C30F0
:1059300050E8001F41F4807140E80012002AF5D1C0
:105940002068143050E8001F41F0010140E80012C7
:10595000002AF5D12068143050E8001F41F04001C2
:1059600040E80012002AF5D105B0002030BD00004B
:105970009F550008215600085555000890F83D1025
:10598000212901D0022070478168B1F5805F01D1E3
:10599000016961B1016A4A1C0262026809785160BA
:1059A000C18C491E0904090CC1840AD013E0016AA4
:1059B00002680988C1F308015160016A891C01620B
:1059C000EEE70168CA6822F08002CA600068C16818
:1059D00041F04001C1600020704700000148FEF71F
:1059E0005BB80000380500202DE9F0410E46D0F8E4
:1059F000C822D0F8D41200EB8101D1F8C0120029DE
:105A000025D006F00F0303EB830400EB840400278A
:105A1000A5694DB103EBC30302EB8302936CB5FBA5
:105A2000F3F203FB1252A2B1C1F81472D0F8D422DF
:105A300000EB8200D0F8C40203692BB1D1F8080250
:105A4000324601F5047198470020BDE8F08103203B
:105A5000FBE7A76100231A46314600F0EDFEF3E7AD
:105A600070B50546D5F8D40205EB8000D0F8C042E9
:105A7000002C12D0284600F0BEFDC4F80C02D5F868
:105A8000D412D4F8040205EB8101D1F8C412CA681B
:105A900004F503719047002070BD032070BD000025
:105AA00070B50446224D2046297800F0B6FC2878CF
:105AB000002600F00F0000EB800004EB80008684DD
:105AC0006978204600F0A9FC687800F00F0000EB30
:105AD000800004EB8000A0F86461A978204600F003
